{
  "contractName": "FavorTube",
  "abi": [
    {
      "inputs": [
        {
          "internalType": "uint8[]",
          "name": "taxRate",
          "type": "uint8[]"
        },
        {
          "internalType": "uint256",
          "name": "price",
          "type": "uint256"
        },
        {
          "internalType": "uint32",
          "name": "subscribeBlock_",
          "type": "uint32"
        },
        {
          "internalType": "address",
          "name": "ERC223Token",
          "type": "address"
        },
        {
          "internalType": "uint256",
          "name": "interval",
          "type": "uint256"
        }
      ],
      "stateMutability": "nonpayable",
      "type": "constructor"
    },
    {
      "anonymous": false,
      "inputs": [
        {
          "indexed": false,
          "internalType": "address",
          "name": "addr",
          "type": "address"
        },
        {
          "indexed": false,
          "internalType": "uint256",
          "name": "amount",
          "type": "uint256"
        }
      ],
      "name": "$exchange",
      "type": "event"
    },
    {
      "anonymous": false,
      "inputs": [
        {
          "indexed": false,
          "internalType": "address",
          "name": "owner",
          "type": "address"
        },
        {
          "indexed": false,
          "internalType": "uint256",
          "name": "price",
          "type": "uint256"
        },
        {
          "indexed": false,
          "internalType": "uint256",
          "name": "mode",
          "type": "uint256"
        }
      ],
      "name": "$setUserConfig",
      "type": "event"
    },
    {
      "anonymous": false,
      "inputs": [
        {
          "indexed": false,
          "internalType": "uint256",
          "name": "value",
          "type": "uint256"
        },
        {
          "indexed": false,
          "internalType": "uint32",
          "name": "expire",
          "type": "uint32"
        },
        {
          "components": [
            {
              "internalType": "address",
              "name": "account",
              "type": "address"
            },
            {
              "internalType": "uint256",
              "name": "rate",
              "type": "uint256"
            },
            {
              "internalType": "uint256",
              "name": "amount",
              "type": "uint256"
            }
          ],
          "indexed": false,
          "internalType": "struct FavorTube.PayInfo[4]",
          "name": "subInfo",
          "type": "tuple[4]"
        }
      ],
      "name": "$subInfo",
      "type": "event"
    },
    {
      "anonymous": false,
      "inputs": [
        {
          "indexed": false,
          "internalType": "address",
          "name": "owner",
          "type": "address"
        },
        {
          "indexed": false,
          "internalType": "address",
          "name": "licensee",
          "type": "address"
        },
        {
          "indexed": false,
          "internalType": "uint32",
          "name": "expire",
          "type": "uint32"
        }
      ],
      "name": "$subscribe",
      "type": "event"
    },
    {
      "anonymous": false,
      "inputs": [
        {
          "indexed": true,
          "internalType": "address",
          "name": "previousOwner",
          "type": "address"
        },
        {
          "indexed": true,
          "internalType": "address",
          "name": "newOwner",
          "type": "address"
        }
      ],
      "name": "OwnershipTransferred",
      "type": "event"
    },
    {
      "inputs": [],
      "name": "_defaultUserConfig",
      "outputs": [
        {
          "internalType": "uint256",
          "name": "price",
          "type": "uint256"
        },
        {
          "internalType": "uint256",
          "name": "mode",
          "type": "uint256"
        }
      ],
      "stateMutability": "view",
      "type": "function",
      "constant": true
    },
    {
      "inputs": [],
      "name": "_token",
      "outputs": [
        {
          "internalType": "address",
          "name": "",
          "type": "address"
        }
      ],
      "stateMutability": "view",
      "type": "function",
      "constant": true
    },
    {
      "inputs": [],
      "name": "exchangeableAmount",
      "outputs": [
        {
          "internalType": "uint256",
          "name": "",
          "type": "uint256"
        }
      ],
      "stateMutability": "view",
      "type": "function",
      "constant": true
    },
    {
      "inputs": [],
      "name": "getCurrentRound",
      "outputs": [
        {
          "internalType": "uint256",
          "name": "",
          "type": "uint256"
        }
      ],
      "stateMutability": "view",
      "type": "function",
      "constant": true
    },
    {
      "inputs": [
        {
          "internalType": "uint256",
          "name": "mode",
          "type": "uint256"
        }
      ],
      "name": "getTaxRate",
      "outputs": [
        {
          "internalType": "uint8[]",
          "name": "",
          "type": "uint8[]"
        }
      ],
      "stateMutability": "view",
      "type": "function",
      "constant": true
    },
    {
      "inputs": [],
      "name": "getTaxRateKey",
      "outputs": [
        {
          "internalType": "uint256[]",
          "name": "",
          "type": "uint256[]"
        }
      ],
      "stateMutability": "view",
      "type": "function",
      "constant": true
    },
    {
      "inputs": [
        {
          "internalType": "address",
          "name": "",
          "type": "address"
        }
      ],
      "name": "lockTotal",
      "outputs": [
        {
          "internalType": "uint256",
          "name": "",
          "type": "uint256"
        }
      ],
      "stateMutability": "view",
      "type": "function",
      "constant": true
    },
    {
      "inputs": [],
      "name": "owner",
      "outputs": [
        {
          "internalType": "address",
          "name": "",
          "type": "address"
        }
      ],
      "stateMutability": "view",
      "type": "function",
      "constant": true
    },
    {
      "inputs": [],
      "name": "periodData",
      "outputs": [
        {
          "internalType": "uint256",
          "name": "startBlockNumber",
          "type": "uint256"
        },
        {
          "internalType": "uint256",
          "name": "periodTime",
          "type": "uint256"
        },
        {
          "internalType": "uint256",
          "name": "periodNumber",
          "type": "uint256"
        }
      ],
      "stateMutability": "view",
      "type": "function",
      "constant": true
    },
    {
      "inputs": [],
      "name": "renounceOwnership",
      "outputs": [],
      "stateMutability": "nonpayable",
      "type": "function"
    },
    {
      "inputs": [],
      "name": "subscribeBlock",
      "outputs": [
        {
          "internalType": "uint32",
          "name": "",
          "type": "uint32"
        }
      ],
      "stateMutability": "view",
      "type": "function",
      "constant": true
    },
    {
      "inputs": [
        {
          "internalType": "address",
          "name": "newOwner",
          "type": "address"
        }
      ],
      "name": "transferOwnership",
      "outputs": [],
      "stateMutability": "nonpayable",
      "type": "function"
    },
    {
      "inputs": [
        {
          "internalType": "uint256",
          "name": "value",
          "type": "uint256"
        }
      ],
      "name": "setPeriodData",
      "outputs": [],
      "stateMutability": "nonpayable",
      "type": "function"
    },
    {
      "inputs": [],
      "name": "exchange",
      "outputs": [],
      "stateMutability": "nonpayable",
      "type": "function"
    },
    {
      "inputs": [
        {
          "internalType": "address",
          "name": "_from",
          "type": "address"
        },
        {
          "internalType": "uint256",
          "name": "_value",
          "type": "uint256"
        },
        {
          "internalType": "bytes",
          "name": "_data",
          "type": "bytes"
        }
      ],
      "name": "tokenReceived",
      "outputs": [],
      "stateMutability": "nonpayable",
      "type": "function"
    },
    {
      "inputs": [
        {
          "internalType": "uint32",
          "name": "subscribeBlock_",
          "type": "uint32"
        }
      ],
      "name": "setSubscribeBlock",
      "outputs": [],
      "stateMutability": "nonpayable",
      "type": "function"
    },
    {
      "inputs": [
        {
          "internalType": "uint256",
          "name": "price",
          "type": "uint256"
        },
        {
          "internalType": "uint256",
          "name": "mode",
          "type": "uint256"
        }
      ],
      "name": "setDefaultUserConfig",
      "outputs": [],
      "stateMutability": "nonpayable",
      "type": "function"
    },
    {
      "inputs": [
        {
          "internalType": "uint256",
          "name": "price",
          "type": "uint256"
        },
        {
          "internalType": "uint256",
          "name": "mode",
          "type": "uint256"
        }
      ],
      "name": "setUserConfig",
      "outputs": [],
      "stateMutability": "nonpayable",
      "type": "function"
    },
    {
      "inputs": [],
      "name": "userConfig",
      "outputs": [
        {
          "components": [
            {
              "internalType": "uint256",
              "name": "price",
              "type": "uint256"
            },
            {
              "internalType": "uint256",
              "name": "mode",
              "type": "uint256"
            }
          ],
          "internalType": "struct FavorTube.UserConfig",
          "name": "",
          "type": "tuple"
        }
      ],
      "stateMutability": "view",
      "type": "function",
      "constant": true
    },
    {
      "inputs": [
        {
          "internalType": "uint256",
          "name": "mode",
          "type": "uint256"
        },
        {
          "internalType": "uint8[]",
          "name": "taxRate_",
          "type": "uint8[]"
        }
      ],
      "name": "setTaxRate",
      "outputs": [
        {
          "internalType": "bool",
          "name": "success",
          "type": "bool"
        }
      ],
      "stateMutability": "nonpayable",
      "type": "function"
    },
    {
      "inputs": [
        {
          "internalType": "address",
          "name": "account",
          "type": "address"
        },
        {
          "internalType": "uint256",
          "name": "value",
          "type": "uint256"
        }
      ],
      "name": "withdrawTax",
      "outputs": [
        {
          "internalType": "bool",
          "name": "success",
          "type": "bool"
        }
      ],
      "stateMutability": "nonpayable",
      "type": "function"
    },
    {
      "inputs": [
        {
          "internalType": "address",
          "name": "token",
          "type": "address"
        },
        {
          "internalType": "address",
          "name": "account",
          "type": "address"
        },
        {
          "internalType": "uint256",
          "name": "value",
          "type": "uint256"
        }
      ],
      "name": "transferToken",
      "outputs": [
        {
          "internalType": "bool",
          "name": "success",
          "type": "bool"
        }
      ],
      "stateMutability": "nonpayable",
      "type": "function"
    },
    {
      "inputs": [
        {
          "internalType": "address",
          "name": "account",
          "type": "address"
        }
      ],
      "name": "transferChain",
      "outputs": [],
      "stateMutability": "payable",
      "type": "function",
      "payable": true
    }
  ],
  "bytecode": "0x60a06040523480156200001157600080fd5b506040516200359438038062003594833981810160405281019062000037919062000619565b80856200004c6000826200016560201b60201c565b50506200006e62000062620001c360201b60201c565b620001cb60201b60201c565b604051806060016040528043815260200182815260200160018152506003600082015181600001556020820151816001015560408201518160020155905050506001600881905550620000cc826200029160201b620017df1760201c565b620000d657600080fd5b8173ffffffffffffffffffffffffffffffffffffffff1660808173ffffffffffffffffffffffffffffffffffffffff168152505082600d60006101000a81548163ffffffff021916908363ffffffff16021790555060405180604001604052808581526020016000815250600b60008201518160000155602082015181600101559050505050505050620006c0565b60008160008085815260200190815260200160002090805190602001906200018f929190620002a4565b5060018390806001815401808255809150506001900390600052602060002001600090919091909150556001905092915050565b600033905090565b6000600260009054906101000a900473ffffffffffffffffffffffffffffffffffffffff16905081600260006101000a81548173ffffffffffffffffffffffffffffffffffffffff021916908373ffffffffffffffffffffffffffffffffffffffff1602179055508173ffffffffffffffffffffffffffffffffffffffff168173ffffffffffffffffffffffffffffffffffffffff167f8be0079c531659141344cd1fd0a4f28419497f9722a3daafe3b4186f6b6457e060405160405180910390a35050565b600080823b905060008111915050919050565b82805482825590600052602060002090601f016020900481019282156200033f5791602002820160005b838211156200030e57835183826101000a81548160ff021916908360ff1602179055509260200192600101602081600001049283019260010302620002ce565b80156200033d5782816101000a81549060ff02191690556001016020816000010492830192600103026200030e565b505b5090506200034e919062000352565b5090565b5b808211156200036d57600081600090555060010162000353565b5090565b6000604051905090565b600080fd5b600080fd5b600080fd5b6000601f19601f8301169050919050565b7f4e487b7100000000000000000000000000000000000000000000000000000000600052604160045260246000fd5b620003d5826200038a565b810181811067ffffffffffffffff82111715620003f757620003f66200039b565b5b80604052505050565b60006200040c62000371565b90506200041a8282620003ca565b919050565b600067ffffffffffffffff8211156200043d576200043c6200039b565b5b602082029050602081019050919050565b600080fd5b600060ff82169050919050565b6200046b8162000453565b81146200047757600080fd5b50565b6000815190506200048b8162000460565b92915050565b6000620004a8620004a2846200041f565b62000400565b90508083825260208201905060208402830185811115620004ce57620004cd6200044e565b5b835b81811015620004fb5780620004e688826200047a565b845260208401935050602081019050620004d0565b5050509392505050565b600082601f8301126200051d576200051c62000385565b5b81516200052f84826020860162000491565b91505092915050565b6000819050919050565b6200054d8162000538565b81146200055957600080fd5b50565b6000815190506200056d8162000542565b92915050565b600063ffffffff82169050919050565b6200058e8162000573565b81146200059a57600080fd5b50565b600081519050620005ae8162000583565b92915050565b600073ffffffffffffffffffffffffffffffffffffffff82169050919050565b6000620005e182620005b4565b9050919050565b620005f381620005d4565b8114620005ff57600080fd5b50565b6000815190506200061381620005e8565b92915050565b600080600080600060a086880312156200063857620006376200037b565b5b600086015167ffffffffffffffff81111562000659576200065862000380565b5b620006678882890162000505565b95505060206200067a888289016200055c565b94505060406200068d888289016200059d565b9350506060620006a08882890162000602565b9250506080620006b3888289016200055c565b9150509295509295909350565b608051612ea3620006f16000396000818161069701528181610ae5015281816112ca01526115210152612ea36000f3fe6080604052600436106101405760003560e01c80638943ec02116100b6578063d2f7265a1161006f578063d2f7265a14610440578063e0b5db2f14610457578063ecd0c0c314610482578063f16f2501146104ad578063f2fde38b146104d6578063f5537ede146104ff57610140565b80638943ec02146103405780638da5cb5b146103695780639f5afc2814610394578063a32bf597146103bf578063afd78029146103ea578063b47639a81461041357610140565b8063447dbbd011610108578063447dbbd014610230578063675585201461025b5780636e2c3ad214610298578063715018a6146102c1578063757d13e6146102d857806378d076851461031557610140565b806305a84a2b1461014557806307854e7e146101615780632a23c6411461018d5780633c8edd2a146101ca578063421c2bb914610207575b600080fd5b61015f600480360381019061015a9190611e74565b61053c565b005b34801561016d57600080fd5b50610176610602565b604051610184929190611eba565b60405180910390f35b34801561019957600080fd5b506101b460048036038101906101af9190611f0f565b610614565b6040516101c19190611f6a565b60405180910390f35b3480156101d657600080fd5b506101f160048036038101906101ec9190612117565b6106c5565b6040516101fe9190611f6a565b60405180910390f35b34801561021357600080fd5b5061022e60048036038101906102299190612173565b610755565b005b34801561023c57600080fd5b506102456108d2565b60405161025291906121d2565b60405180910390f35b34801561026757600080fd5b50610282600480360381019061027d91906121ed565b6108e8565b60405161028f91906122d8565b60405180910390f35b3480156102a457600080fd5b506102bf60048036038101906102ba9190612173565b610978565b005b3480156102cd57600080fd5b506102d6610a26565b005b3480156102e457600080fd5b506102ff60048036038101906102fa9190611e74565b610aae565b60405161030c91906122fa565b60405180910390f35b34801561032157600080fd5b5061032a610ac6565b6040516103379190612353565b60405180910390f35b34801561034c57600080fd5b5061036760048036038101906103629190612423565b610ae3565b005b34801561037557600080fd5b5061037e61106f565b60405161038b91906124a1565b60405180910390f35b3480156103a057600080fd5b506103a9611099565b6040516103b6919061256b565b60405180910390f35b3480156103cb57600080fd5b506103d46110f1565b6040516103e191906122fa565b60405180910390f35b3480156103f657600080fd5b50610411600480360381019061040c91906121ed565b61117b565b005b34801561041f57600080fd5b50610428611203565b6040516104379392919061258d565b60405180910390f35b34801561044c57600080fd5b5061045561121b565b005b34801561046357600080fd5b5061046c6113b7565b60405161047991906122fa565b60405180910390f35b34801561048e57600080fd5b5061049761151f565b6040516104a491906124a1565b60405180910390f35b3480156104b957600080fd5b506104d460048036038101906104cf91906125f0565b611543565b005b3480156104e257600080fd5b506104fd60048036038101906104f89190611e74565b6115e3565b005b34801561050b57600080fd5b506105266004803603810190610521919061261d565b6116da565b6040516105339190611f6a565b60405180910390f35b6105446117f2565b73ffffffffffffffffffffffffffffffffffffffff1661056261106f565b73ffffffffffffffffffffffffffffffffffffffff16146105b8576040517f08c379a00000000000000000000000000000000000000000000000000000000081526004016105af906126cd565b60405180910390fd5b8073ffffffffffffffffffffffffffffffffffffffff166108fc349081150290604051600060405180830381858888f193505050501580156105fe573d6000803e3d6000fd5b5050565b600b8060000154908060010154905082565b600061061e6117f2565b73ffffffffffffffffffffffffffffffffffffffff1661063c61106f565b73ffffffffffffffffffffffffffffffffffffffff1614610692576040517f08c379a0000000000000000000000000000000000000000000000000000000008152600401610689906126cd565b60405180910390fd5b6106bd7f000000000000000000000000000000000000000000000000000000000000000084846116da565b905092915050565b60006106cf6117f2565b73ffffffffffffffffffffffffffffffffffffffff166106ed61106f565b73ffffffffffffffffffffffffffffffffffffffff1614610743576040517f08c379a000000000000000000000000000000000000000000000000000000000815260040161073a906126cd565b60405180910390fd5b61074d83836117fa565b905092915050565b6000806000838152602001908152602001600020805490501415801561077c575060648210155b6107bb576040517f08c379a00000000000000000000000000000000000000000000000000000000081526004016107b290612739565b60405180910390fd5b604051806040016040528083815260200182815250600960006107dc6117f2565b73ffffffffffffffffffffffffffffffffffffffff1673ffffffffffffffffffffffffffffffffffffffff16815260200190815260200160002060008201518160000155602082015181600101559050506001600a600061083b6117f2565b73ffffffffffffffffffffffffffffffffffffffff1673ffffffffffffffffffffffffffffffffffffffff16815260200190815260200160002060006101000a81548160ff0219169083151502179055507f4619373028e67160770f20af9b5f8a296d2454407a13d608c905089399ec643b6108b56117f2565b83836040516108c693929190612759565b60405180910390a15050565b600d60009054906101000a900463ffffffff1681565b606060008083815260200190815260200160002080548060200260200160405190810160405280929190818152602001828054801561096c57602002820191906000526020600020906000905b82829054906101000a900460ff1660ff16815260200190600101906020826000010492830192600103820291508084116109355790505b50505050509050919050565b6109806117f2565b73ffffffffffffffffffffffffffffffffffffffff1661099e61106f565b73ffffffffffffffffffffffffffffffffffffffff16146109f4576040517f08c379a00000000000000000000000000000000000000000000000000000000081526004016109eb906126cd565b60405180910390fd5b604051806040016040528083815260200182815250600b60008201518160000155602082015181600101559050505050565b610a2e6117f2565b73ffffffffffffffffffffffffffffffffffffffff16610a4c61106f565b73ffffffffffffffffffffffffffffffffffffffff1614610aa2576040517f08c379a0000000000000000000000000000000000000000000000000000000008152600401610a99906126cd565b60405180910390fd5b610aac6000611856565b565b60076020528060005260406000206000915090505481565b610ace611d24565b610ade610ad96117f2565b61191c565b905090565b7f000000000000000000000000000000000000000000000000000000000000000073ffffffffffffffffffffffffffffffffffffffff16610b226117f2565b73ffffffffffffffffffffffffffffffffffffffff1614610b78576040517f08c379a0000000000000000000000000000000000000000000000000000000008152600401610b6f906127dc565b60405180910390fd5b600080610b84836119e2565b80925081935050506000610b978361191c565b90508060000151851015610be0576040517f08c379a0000000000000000000000000000000000000000000000000000000008152600401610bd790612848565b60405180910390fd5b600080600083602001518152602001908152602001600020805480602002602001604051908101604052809291908181526020018280548015610c6857602002820191906000526020600020906000905b82829054906101000a900460ff1660ff1681526020019060010190602082600001049283019260010382029150808411610c315790505b505050505090506000604051806080016040528060648985600081518110610c9357610c92612868565b5b602002602001015160ff16610ca891906128c6565b610cb2919061294f565b815260200160648985600181518110610cce57610ccd612868565b5b602002602001015160ff16610ce391906128c6565b610ced919061294f565b815260200160648985600281518110610d0957610d08612868565b5b602002602001015160ff16610d1e91906128c6565b610d28919061294f565b815260200160648985600381518110610d4457610d43612868565b5b602002602001015160ff16610d5991906128c6565b610d63919061294f565b8152509050610d8a8582600060048110610d8057610d7f612868565b5b6020020151611a02565b610dac8882600160048110610da257610da1612868565b5b6020020151611a02565b600073ffffffffffffffffffffffffffffffffffffffff168473ffffffffffffffffffffffffffffffffffffffff1614610e0357610e028482600260048110610df857610df7612868565b5b6020020151611a02565b5b7fc3b157ee7a0c96db039cb96afc467f0e52e15dff6f4ee4e954397872c93b02bd8589610e41600d60009054906101000a900463ffffffff16611b81565b604051610e5093929190612980565b60405180910390a17f30991fe619aa673cf0e8179fdc68d9c12887c78d06980383b345c8aebaf9908887610e95600d60009054906101000a900463ffffffff16611b81565b604051806080016040528060405180606001604052808b73ffffffffffffffffffffffffffffffffffffffff16815260200187600060048110610edb57610eda612868565b5b6020020151815260200188600081518110610ef957610ef8612868565b5b602002602001015160ff16815250815260200160405180606001604052808e73ffffffffffffffffffffffffffffffffffffffff16815260200187600160048110610f4757610f46612868565b5b6020020151815260200188600181518110610f6557610f64612868565b5b602002602001015160ff16815250815260200160405180606001604052808a73ffffffffffffffffffffffffffffffffffffffff16815260200187600260048110610fb357610fb2612868565b5b6020020151815260200188600281518110610fd157610fd0612868565b5b602002602001015160ff16815250815260200160405180606001604052803073ffffffffffffffffffffffffffffffffffffffff1681526020018760036004811061101f5761101e612868565b5b602002015181526020018860038151811061103d5761103c612868565b5b602002602001015160ff1681525081525060405161105d93929190612aa4565b60405180910390a15050505050505050565b6000600260009054906101000a900473ffffffffffffffffffffffffffffffffffffffff16905090565b606060018054806020026020016040519081016040528092919081815260200182805480156110e757602002820191906000526020600020905b8154815260200190600101908083116110d3575b5050505050905090565b60008060036000015443101561111a5760016003600201546111139190612adc565b9050611174565b6003600001544303611133576003600201549050611173565b6003600201546003600101546001600360000154436111529190612adc565b61115c9190612adc565b611166919061294f565b6111709190612b10565b90505b5b8091505090565b6111836117f2565b73ffffffffffffffffffffffffffffffffffffffff166111a161106f565b73ffffffffffffffffffffffffffffffffffffffff16146111f7576040517f08c379a00000000000000000000000000000000000000000000000000000000081526004016111ee906126cd565b60405180910390fd5b61120081611bbc565b50565b60038060000154908060010154908060020154905083565b600260085403611260576040517f08c379a000000000000000000000000000000000000000000000000000000000815260040161125790612bb2565b60405180910390fd5b600260088190555060006112726113b7565b9050600081036112b7576040517f08c379a00000000000000000000000000000000000000000000000000000000081526004016112ae90612c1e565b60405180910390fd5b6112c86112c26117f2565b82611c91565b7f000000000000000000000000000000000000000000000000000000000000000073ffffffffffffffffffffffffffffffffffffffff1663a9059cbb61130c6117f2565b836040518363ffffffff1660e01b815260040161132a929190612c3e565b6020604051808303816000875af1158015611349573d6000803e3d6000fd5b505050506040513d601f19601f8201168201806040525081019061136d9190612c93565b6113ac576040517f08c379a00000000000000000000000000000000000000000000000000000000081526004016113a390612d0c565b60405180910390fd5b506001600881905550565b6000806113c26110f1565b90506000600760003373ffffffffffffffffffffffffffffffffffffffff1673ffffffffffffffffffffffffffffffffffffffff1681526020019081526020016000205490506000600660003373ffffffffffffffffffffffffffffffffffffffff1673ffffffffffffffffffffffffffffffffffffffff16815260200190815260200160002060405180604001604052908160008201604051806040016040529081600082015481526020016001820154815250508152602001600282016040518060400160405290816000820154815260200160018201548152505081525050905080602001516000015183036114e3578060000151602001518160200151602001516114d19190612b10565b826114dc9190612adc565b9150611516565b60018160200151600001516114f89190612b10565b830361151557806020015160200151826115129190612adc565b91505b5b81935050505090565b7f000000000000000000000000000000000000000000000000000000000000000081565b61154b6117f2565b73ffffffffffffffffffffffffffffffffffffffff1661156961106f565b73ffffffffffffffffffffffffffffffffffffffff16146115bf576040517f08c379a00000000000000000000000000000000000000000000000000000000081526004016115b6906126cd565b60405180910390fd5b80600d60006101000a81548163ffffffff021916908363ffffffff16021790555050565b6115eb6117f2565b73ffffffffffffffffffffffffffffffffffffffff1661160961106f565b73ffffffffffffffffffffffffffffffffffffffff161461165f576040517f08c379a0000000000000000000000000000000000000000000000000000000008152600401611656906126cd565b60405180910390fd5b600073ffffffffffffffffffffffffffffffffffffffff168173ffffffffffffffffffffffffffffffffffffffff16036116ce576040517f08c379a00000000000000000000000000000000000000000000000000000000081526004016116c590612d9e565b60405180910390fd5b6116d781611856565b50565b60006116e46117f2565b73ffffffffffffffffffffffffffffffffffffffff1661170261106f565b73ffffffffffffffffffffffffffffffffffffffff1614611758576040517f08c379a000000000000000000000000000000000000000000000000000000000815260040161174f906126cd565b60405180910390fd5b8373ffffffffffffffffffffffffffffffffffffffff1663a9059cbb84846040518363ffffffff1660e01b8152600401611793929190612c3e565b6020604051808303816000875af11580156117b2573d6000803e3d6000fd5b505050506040513d601f19601f820116820180604052508101906117d69190612c93565b90509392505050565b600080823b905060008111915050919050565b600033905090565b6000816000808581526020019081526020016000209080519060200190611822929190611d3e565b5060018390806001815401808255809150506001900390600052602060002001600090919091909150556001905092915050565b6000600260009054906101000a900473ffffffffffffffffffffffffffffffffffffffff16905081600260006101000a81548173ffffffffffffffffffffffffffffffffffffffff021916908373ffffffffffffffffffffffffffffffffffffffff1602179055508173ffffffffffffffffffffffffffffffffffffffff168173ffffffffffffffffffffffffffffffffffffffff167f8be0079c531659141344cd1fd0a4f28419497f9722a3daafe3b4186f6b6457e060405160405180910390a35050565b611924611d24565b600a60008373ffffffffffffffffffffffffffffffffffffffff1673ffffffffffffffffffffffffffffffffffffffff16815260200190815260200160002060009054906101000a900460ff1661197c57600b6119bc565b600960008373ffffffffffffffffffffffffffffffffffffffff1673ffffffffffffffffffffffffffffffffffffffff1681526020019081526020016000205b604051806040016040529081600082015481526020016001820154815250509050919050565b600080828060200190518101906119f99190612dfc565b91509150915091565b6000811115611b7d576000611a156110f1565b90506000600660008573ffffffffffffffffffffffffffffffffffffffff1673ffffffffffffffffffffffffffffffffffffffff168152602001908152602001600020905081816002016000015403611a8b5782816002016001016000828254611a7f9190612b10565b92505081905550611b24565b600182611a989190612adc565b816002016000015414611acc576040518060400160405280600184611abd9190612adc565b81526020016000815250611af0565b80600201604051806040016040529081600082015481526020016001820154815250505b8160000160008201518160000155602082015181600101559050508181600201600001819055508281600201600101819055505b82600760008673ffffffffffffffffffffffffffffffffffffffff1673ffffffffffffffffffffffffffffffffffffffff1681526020019081526020016000206000828254611b739190612b10565b9250508190555050505b5050565b600080438363ffffffff16611b969190612b10565b905063ffffffff80168110611bb25763ffffffff915050611bb7565b809150505b919050565b600360000154431015611bd85780600360010181905550611c8e565b600060036001015460036000015443611bf19190612adc565b611bfb9190612e3c565b60036001015443611c0c9190612b10565b611c169190612adc565b9050600060036001015460036000015483611c319190612adc565b611c3b919061294f565b9050604051806060016040528083815260200184815260200160036002015483611c659190612b10565b815250600360008201518160000155602082015181600101556040820151816002015590505050505b50565b80600760008473ffffffffffffffffffffffffffffffffffffffff1673ffffffffffffffffffffffffffffffffffffffff1681526020019081526020016000206000828254611ce09190612adc565b925050819055507f0aa36af98793b49f134f1c56f26ee1a235db0a9c879f8d310b016c0117e8d4208282604051611d18929190612c3e565b60405180910390a15050565b604051806040016040528060008152602001600081525090565b82805482825590600052602060002090601f01602090048101928215611dd45791602002820160005b83821115611da557835183826101000a81548160ff021916908360ff1602179055509260200192600101602081600001049283019260010302611d67565b8015611dd25782816101000a81549060ff0219169055600101602081600001049283019260010302611da5565b505b509050611de19190611de5565b5090565b5b80821115611dfe576000816000905550600101611de6565b5090565b6000604051905090565b600080fd5b600080fd5b600073ffffffffffffffffffffffffffffffffffffffff82169050919050565b6000611e4182611e16565b9050919050565b611e5181611e36565b8114611e5c57600080fd5b50565b600081359050611e6e81611e48565b92915050565b600060208284031215611e8a57611e89611e0c565b5b6000611e9884828501611e5f565b91505092915050565b6000819050919050565b611eb481611ea1565b82525050565b6000604082019050611ecf6000830185611eab565b611edc6020830184611eab565b9392505050565b611eec81611ea1565b8114611ef757600080fd5b50565b600081359050611f0981611ee3565b92915050565b60008060408385031215611f2657611f25611e0c565b5b6000611f3485828601611e5f565b9250506020611f4585828601611efa565b9150509250929050565b60008115159050919050565b611f6481611f4f565b82525050565b6000602082019050611f7f6000830184611f5b565b92915050565b600080fd5b6000601f19601f8301169050919050565b7f4e487b7100000000000000000000000000000000000000000000000000000000600052604160045260246000fd5b611fd382611f8a565b810181811067ffffffffffffffff82111715611ff257611ff1611f9b565b5b80604052505050565b6000612005611e02565b90506120118282611fca565b919050565b600067ffffffffffffffff82111561203157612030611f9b565b5b602082029050602081019050919050565b600080fd5b600060ff82169050919050565b61205d81612047565b811461206857600080fd5b50565b60008135905061207a81612054565b92915050565b600061209361208e84612016565b611ffb565b905080838252602082019050602084028301858111156120b6576120b5612042565b5b835b818110156120df57806120cb888261206b565b8452602084019350506020810190506120b8565b5050509392505050565b600082601f8301126120fe576120fd611f85565b5b813561210e848260208601612080565b91505092915050565b6000806040838503121561212e5761212d611e0c565b5b600061213c85828601611efa565b925050602083013567ffffffffffffffff81111561215d5761215c611e11565b5b612169858286016120e9565b9150509250929050565b6000806040838503121561218a57612189611e0c565b5b600061219885828601611efa565b92505060206121a985828601611efa565b9150509250929050565b600063ffffffff82169050919050565b6121cc816121b3565b82525050565b60006020820190506121e760008301846121c3565b92915050565b60006020828403121561220357612202611e0c565b5b600061221184828501611efa565b91505092915050565b600081519050919050565b600082825260208201905092915050565b6000819050602082019050919050565b61224f81612047565b82525050565b60006122618383612246565b60208301905092915050565b6000602082019050919050565b60006122858261221a565b61228f8185612225565b935061229a83612236565b8060005b838110156122cb5781516122b28882612255565b97506122bd8361226d565b92505060018101905061229e565b5085935050505092915050565b600060208201905081810360008301526122f2818461227a565b905092915050565b600060208201905061230f6000830184611eab565b92915050565b61231e81611ea1565b82525050565b60408201600082015161233a6000850182612315565b50602082015161234d6020850182612315565b50505050565b60006040820190506123686000830184612324565b92915050565b600080fd5b600067ffffffffffffffff82111561238e5761238d611f9b565b5b61239782611f8a565b9050602081019050919050565b82818337600083830152505050565b60006123c66123c184612373565b611ffb565b9050828152602081018484840111156123e2576123e161236e565b5b6123ed8482856123a4565b509392505050565b600082601f83011261240a57612409611f85565b5b813561241a8482602086016123b3565b91505092915050565b60008060006060848603121561243c5761243b611e0c565b5b600061244a86828701611e5f565b935050602061245b86828701611efa565b925050604084013567ffffffffffffffff81111561247c5761247b611e11565b5b612488868287016123f5565b9150509250925092565b61249b81611e36565b82525050565b60006020820190506124b66000830184612492565b92915050565b600081519050919050565b600082825260208201905092915050565b6000819050602082019050919050565b60006124f48383612315565b60208301905092915050565b6000602082019050919050565b6000612518826124bc565b61252281856124c7565b935061252d836124d8565b8060005b8381101561255e57815161254588826124e8565b975061255083612500565b925050600181019050612531565b5085935050505092915050565b60006020820190508181036000830152612585818461250d565b905092915050565b60006060820190506125a26000830186611eab565b6125af6020830185611eab565b6125bc6040830184611eab565b949350505050565b6125cd816121b3565b81146125d857600080fd5b50565b6000813590506125ea816125c4565b92915050565b60006020828403121561260657612605611e0c565b5b6000612614848285016125db565b91505092915050565b60008060006060848603121561263657612635611e0c565b5b600061264486828701611e5f565b935050602061265586828701611e5f565b925050604061266686828701611efa565b9150509250925092565b600082825260208201905092915050565b7f4f776e61626c653a2063616c6c6572206973206e6f7420746865206f776e6572600082015250565b60006126b7602083612670565b91506126c282612681565b602082019050919050565b600060208201905081810360008301526126e6816126aa565b9050919050565b7f6d6f646520646f6573206e6f7420657869737400000000000000000000000000600082015250565b6000612723601383612670565b915061272e826126ed565b602082019050919050565b6000602082019050818103600083015261275281612716565b9050919050565b600060608201905061276e6000830186612492565b61277b6020830185611eab565b6127886040830184611eab565b949350505050565b7f496e636f727265637420636f6e74726163742061646472657373000000000000600082015250565b60006127c6601a83612670565b91506127d182612790565b602082019050919050565b600060208201905081810360008301526127f5816127b9565b9050919050565b7f7061696420707269636520697320746f6f206c6f770000000000000000000000600082015250565b6000612832601583612670565b915061283d826127fc565b602082019050919050565b6000602082019050818103600083015261286181612825565b9050919050565b7f4e487b7100000000000000000000000000000000000000000000000000000000600052603260045260246000fd5b7f4e487b7100000000000000000000000000000000000000000000000000000000600052601160045260246000fd5b60006128d182611ea1565b91506128dc83611ea1565b9250817fffffffffffffffffffffffffffffffffffffffffffffffffffffffffffffffff048311821515161561291557612914612897565b5b828202905092915050565b7f4e487b7100000000000000000000000000000000000000000000000000000000600052601260045260246000fd5b600061295a82611ea1565b915061296583611ea1565b92508261297557612974612920565b5b828204905092915050565b60006060820190506129956000830186612492565b6129a26020830185612492565b6129af60408301846121c3565b949350505050565b600060049050919050565b600081905092915050565b6000819050919050565b6129e081611e36565b82525050565b6060820160008201516129fc60008501826129d7565b506020820151612a0f6020850182612315565b506040820151612a226040850182612315565b50505050565b6000612a3483836129e6565b60608301905092915050565b6000602082019050919050565b612a56816129b7565b612a6081846129c2565b9250612a6b826129cd565b8060005b83811015612a9c578151612a838782612a28565b9650612a8e83612a40565b925050600181019050612a6f565b505050505050565b60006101c082019050612aba6000830186611eab565b612ac760208301856121c3565b612ad46040830184612a4d565b949350505050565b6000612ae782611ea1565b9150612af283611ea1565b925082821015612b0557612b04612897565b5b828203905092915050565b6000612b1b82611ea1565b9150612b2683611ea1565b9250827fffffffffffffffffffffffffffffffffffffffffffffffffffffffffffffffff03821115612b5b57612b5a612897565b5b828201905092915050565b7f5265656e7472616e637947756172643a207265656e7472616e742063616c6c00600082015250565b6000612b9c601f83612670565b9150612ba782612b66565b602082019050919050565b60006020820190508181036000830152612bcb81612b8f565b9050919050565b7f496e73756666696369656e742062616c616e6365000000000000000000000000600082015250565b6000612c08601483612670565b9150612c1382612bd2565b602082019050919050565b60006020820190508181036000830152612c3781612bfb565b9050919050565b6000604082019050612c536000830185612492565b612c606020830184611eab565b9392505050565b612c7081611f4f565b8114612c7b57600080fd5b50565b600081519050612c8d81612c67565b92915050565b600060208284031215612ca957612ca8611e0c565b5b6000612cb784828501612c7e565b91505092915050565b7f5769746864726177616c204661696c7572650000000000000000000000000000600082015250565b6000612cf6601283612670565b9150612d0182612cc0565b602082019050919050565b60006020820190508181036000830152612d2581612ce9565b9050919050565b7f4f776e61626c653a206e6577206f776e657220697320746865207a65726f206160008201527f6464726573730000000000000000000000000000000000000000000000000000602082015250565b6000612d88602683612670565b9150612d9382612d2c565b604082019050919050565b60006020820190508181036000830152612db781612d7b565b9050919050565b6000612dc982611e16565b9050919050565b612dd981612dbe565b8114612de457600080fd5b50565b600081519050612df681612dd0565b92915050565b60008060408385031215612e1357612e12611e0c565b5b6000612e2185828601612de7565b9250506020612e3285828601612de7565b9150509250929050565b6000612e4782611ea1565b9150612e5283611ea1565b925082612e6257612e61612920565b5b82820690509291505056fea264697066735822122021be0bd1ca725e5f57adfee231f12440bfd6363d8bc81f05c93c64912dbd39c964736f6c634300080d0033",
  "immutableReferences": {
    "1037": [
      {
        "length": 32,
        "start": 1687
      },
      {
        "length": 32,
        "start": 2789
      },
      {
        "length": 32,
        "start": 4810
      },
      {
        "length": 32,
        "start": 5409
      }
    ]
  },
  "source": "// SPDX-License-Identifier: MIT\npragma solidity ^0.8.0;\n\nimport \"@openzeppelin/contracts/security/ReentrancyGuard.sol\";\nimport \"@openzeppelin/contracts/access/Ownable.sol\";\nimport \"./ERC223/IERC223.sol\";\nimport \"./ERC223/IERC223Recipient.sol\";\nimport \"./TokenTax.sol\";\nimport \"./utils/Address.sol\";\nimport \"./LockBalance.sol\";\n\ncontract FavorTube is IERC223Recipient, TokenTax, Ownable, LockBalance, ReentrancyGuard {\n\n    struct PayInfo {\n        address account;\n        uint rate;\n        uint amount;\n    }\n\n    event $subInfo(uint value, uint32 expire, PayInfo[4] subInfo);\n    event $subscribe(address owner, address licensee, uint32 expire);\n    event $setUserConfig(address owner, uint256 price, uint mode);\n\n    struct UserConfig {\n        uint256 price;\n        uint mode;\n    }\n\n    mapping(address => UserConfig) _userConfig;\n    mapping(address => bool) _isSetConfig;\n\n    UserConfig public _defaultUserConfig;\n\n    uint32 public subscribeBlock;\n\n    address public immutable _token;\n\n    constructor(uint8[] memory taxRate, uint256 price, uint32 subscribeBlock_, address ERC223Token, uint interval) TokenTax(taxRate) LockBalance(interval) {\n        require(Address.isContract(ERC223Token));\n\n        _token = ERC223Token;\n\n        subscribeBlock = subscribeBlock_;\n\n        _defaultUserConfig = UserConfig(price, 0);\n    }\n\n    function setPeriodData(uint value) external override onlyOwner {\n        _setPeriodData(value);\n    }\n\n    function exchange() external override nonReentrant {\n        uint amount = exchangeableAmount();\n\n        require(amount != 0, \"Insufficient balance\");\n\n        _exchange(_msgSender(), amount);\n\n        require(IERC223(_token).transfer(_msgSender(), amount), \"Withdrawal Failure\");\n    }\n\n    function userConfig() external view returns (UserConfig memory) {\n        return userConfig(_msgSender());\n    }\n\n    function tokenReceived(address _from, uint _value, bytes memory _data) external override {\n\n        require(_msgSender() == _token, 'Incorrect contract address');\n\n        address owner;\n        address sharers;\n\n        (owner, sharers) = decodeCallbackData(_data);\n\n        UserConfig memory config = userConfig(owner);\n\n        if (_value < config.price)\n            revert(\"paid price is too low\");\n\n        uint8[] memory taxRate = taxRateMap[config.mode];\n\n        uint[4] memory amountArr = [(taxRate[0] * _value) / 100, (taxRate[1] * _value) / 100, (taxRate[2] * _value) / 100, (taxRate[3] * _value) / 100];\n\n        _lock(owner, amountArr[0]);\n        _lock(_from, amountArr[1]);\n        if (sharers != address(0)) _lock(sharers, amountArr[2]);\n\n        emit $subscribe(owner, _from, computeExpire(subscribeBlock));\n\n        emit $subInfo(\n            _value,\n            computeExpire(subscribeBlock),\n            [PayInfo(owner, amountArr[0], taxRate[0]),\n            PayInfo(_from, amountArr[1], taxRate[1]),\n            PayInfo(sharers, amountArr[2], taxRate[2]),\n            PayInfo(address(this), amountArr[3], taxRate[3])]);\n    }\n\n    function setSubscribeBlock(uint32 subscribeBlock_) external onlyOwner {\n        subscribeBlock = subscribeBlock_;\n    }\n\n    function setDefaultUserConfig(uint256 price, uint mode) external onlyOwner {\n        _defaultUserConfig = UserConfig(price, mode);\n    }\n\n    function setUserConfig(uint256 price, uint mode) external {\n        require(taxRateMap[mode].length != 0 && price >= 100, \"mode does not exist\");\n        _userConfig[_msgSender()] = UserConfig(price, mode);\n        _isSetConfig[_msgSender()] = true;\n\n        emit $setUserConfig(_msgSender(), price, mode);\n    }\n\n    function userConfig(address account) internal view returns (UserConfig memory) {\n        return _isSetConfig[account] ? _userConfig[account] : _defaultUserConfig;\n    }\n\n    function decodeCallbackData(bytes memory data) internal pure returns (address _owner, address _sharers) {\n        return abi.decode(data, (address, address));\n    }\n\n    function computeExpire(uint32 value) internal view returns (uint32) {\n        uint result = uint(value) + block.number;\n\n        if (result >= uint(type(uint32).max)) {\n            return type(uint32).max;\n        }\n\n        return uint32(result);\n    }\n\n    function setTaxRate(uint mode, uint8[] memory taxRate_) external override onlyOwner returns (bool success) {\n        return _setTaxRate(mode, taxRate_);\n    }\n\n    function withdrawTax(address account, uint value) external override onlyOwner returns (bool success) {\n        return transferToken(_token, account, value);\n    }\n\n    function transferToken(address token, address account, uint value) public onlyOwner returns (bool success){\n        return IERC223(token).transfer(account, value);\n    }\n\n    function transferChain(address account) payable external onlyOwner {\n        payable(account).transfer(msg.value);\n    }\n}\n",
  "sourcePath": "/home/lzy/Project/contracts/favor-contracts/contracts/FavorTube.sol",
  "compiler": {
    "name": "solc",
    "version": "0.8.13+commit.abaa5c0e.Emscripten.clang"
  },
  "schemaVersion": "3.4.3",
  "updatedAt": "2022-10-17T10:15:42.753Z",
  "networkType": "ethereum",
  "devdoc": {
    "kind": "dev",
    "methods": {
      "owner()": {
        "details": "Returns the address of the current owner."
      },
      "renounceOwnership()": {
        "details": "Leaves the contract without owner. It will not be possible to call `onlyOwner` functions anymore. Can only be called by the current owner. NOTE: Renouncing ownership will leave the contract without an owner, thereby removing any functionality that is only available to the owner."
      },
      "tokenReceived(address,uint256,bytes)": {
        "details": "Standard ERC223 function that will handle incoming token transfers.",
        "params": {
          "_data": "Transaction metadata.",
          "_from": "Token sender address.",
          "_value": "Amount of tokens."
        }
      },
      "transferOwnership(address)": {
        "details": "Transfers ownership of the contract to a new account (`newOwner`). Can only be called by the current owner."
      }
    },
    "version": 1
  },
  "userdoc": {
    "kind": "user",
    "methods": {},
    "version": 1
  }
}