{
  "contractName": "FavorTube",
  "abi": [
    {
      "inputs": [
        {
          "internalType": "uint8[5]",
          "name": "taxRate",
          "type": "uint8[5]"
        },
        {
          "internalType": "uint256",
          "name": "price",
          "type": "uint256"
        },
        {
          "internalType": "uint32",
          "name": "subscribeBlock_",
          "type": "uint32"
        },
        {
          "internalType": "address",
          "name": "ERC223Token",
          "type": "address"
        },
        {
          "internalType": "uint256",
          "name": "interval",
          "type": "uint256"
        }
      ],
      "stateMutability": "nonpayable",
      "type": "constructor"
    },
    {
      "anonymous": false,
      "inputs": [
        {
          "indexed": false,
          "internalType": "address",
          "name": "addr",
          "type": "address"
        },
        {
          "indexed": false,
          "internalType": "uint256",
          "name": "amount",
          "type": "uint256"
        }
      ],
      "name": "$exchange",
      "type": "event"
    },
    {
      "anonymous": false,
      "inputs": [
        {
          "indexed": false,
          "internalType": "address",
          "name": "channel",
          "type": "address"
        },
        {
          "indexed": false,
          "internalType": "uint256",
          "name": "price",
          "type": "uint256"
        },
        {
          "indexed": false,
          "internalType": "uint256",
          "name": "mode",
          "type": "uint256"
        }
      ],
      "name": "$setUserConfig",
      "type": "event"
    },
    {
      "anonymous": false,
      "inputs": [
        {
          "indexed": false,
          "internalType": "uint256",
          "name": "value",
          "type": "uint256"
        },
        {
          "indexed": false,
          "internalType": "address",
          "name": "sender",
          "type": "address"
        },
        {
          "indexed": false,
          "internalType": "uint32",
          "name": "expire",
          "type": "uint32"
        },
        {
          "components": [
            {
              "internalType": "address",
              "name": "account",
              "type": "address"
            },
            {
              "internalType": "uint256",
              "name": "amount",
              "type": "uint256"
            },
            {
              "internalType": "uint256",
              "name": "rate",
              "type": "uint256"
            }
          ],
          "indexed": false,
          "internalType": "struct FavorTube.PayInfo[3]",
          "name": "subInfo",
          "type": "tuple[3]"
        }
      ],
      "name": "$subInfo",
      "type": "event"
    },
    {
      "anonymous": false,
      "inputs": [
        {
          "indexed": false,
          "internalType": "address",
          "name": "channel",
          "type": "address"
        },
        {
          "indexed": false,
          "internalType": "address",
          "name": "licensee",
          "type": "address"
        },
        {
          "indexed": false,
          "internalType": "uint32",
          "name": "expire",
          "type": "uint32"
        }
      ],
      "name": "$subscribe",
      "type": "event"
    },
    {
      "anonymous": false,
      "inputs": [
        {
          "indexed": true,
          "internalType": "address",
          "name": "previousOwner",
          "type": "address"
        },
        {
          "indexed": true,
          "internalType": "address",
          "name": "newOwner",
          "type": "address"
        }
      ],
      "name": "OwnershipTransferred",
      "type": "event"
    },
    {
      "inputs": [],
      "name": "_defaultUserConfig",
      "outputs": [
        {
          "internalType": "uint256",
          "name": "price",
          "type": "uint256"
        },
        {
          "internalType": "uint256",
          "name": "mode",
          "type": "uint256"
        }
      ],
      "stateMutability": "view",
      "type": "function",
      "constant": true
    },
    {
      "inputs": [],
      "name": "_token",
      "outputs": [
        {
          "internalType": "address",
          "name": "",
          "type": "address"
        }
      ],
      "stateMutability": "view",
      "type": "function",
      "constant": true
    },
    {
      "inputs": [],
      "name": "exchangeableAmount",
      "outputs": [
        {
          "internalType": "uint256",
          "name": "",
          "type": "uint256"
        }
      ],
      "stateMutability": "view",
      "type": "function",
      "constant": true
    },
    {
      "inputs": [],
      "name": "getCurrentRound",
      "outputs": [
        {
          "internalType": "uint256",
          "name": "",
          "type": "uint256"
        }
      ],
      "stateMutability": "view",
      "type": "function",
      "constant": true
    },
    {
      "inputs": [
        {
          "internalType": "uint256",
          "name": "mode",
          "type": "uint256"
        }
      ],
      "name": "getTaxRate",
      "outputs": [
        {
          "internalType": "uint8[5]",
          "name": "",
          "type": "uint8[5]"
        }
      ],
      "stateMutability": "view",
      "type": "function",
      "constant": true
    },
    {
      "inputs": [],
      "name": "getTaxRateKey",
      "outputs": [
        {
          "internalType": "uint256[]",
          "name": "",
          "type": "uint256[]"
        }
      ],
      "stateMutability": "view",
      "type": "function",
      "constant": true
    },
    {
      "inputs": [
        {
          "internalType": "address",
          "name": "",
          "type": "address"
        }
      ],
      "name": "lockTotal",
      "outputs": [
        {
          "internalType": "uint256",
          "name": "",
          "type": "uint256"
        }
      ],
      "stateMutability": "view",
      "type": "function",
      "constant": true
    },
    {
      "inputs": [],
      "name": "owner",
      "outputs": [
        {
          "internalType": "address",
          "name": "",
          "type": "address"
        }
      ],
      "stateMutability": "view",
      "type": "function",
      "constant": true
    },
    {
      "inputs": [],
      "name": "periodData",
      "outputs": [
        {
          "internalType": "uint256",
          "name": "startBlockNumber",
          "type": "uint256"
        },
        {
          "internalType": "uint256",
          "name": "periodTime",
          "type": "uint256"
        },
        {
          "internalType": "uint256",
          "name": "periodNumber",
          "type": "uint256"
        }
      ],
      "stateMutability": "view",
      "type": "function",
      "constant": true
    },
    {
      "inputs": [],
      "name": "renounceOwnership",
      "outputs": [],
      "stateMutability": "nonpayable",
      "type": "function"
    },
    {
      "inputs": [],
      "name": "subscribeBlock",
      "outputs": [
        {
          "internalType": "uint32",
          "name": "",
          "type": "uint32"
        }
      ],
      "stateMutability": "view",
      "type": "function",
      "constant": true
    },
    {
      "inputs": [
        {
          "internalType": "address",
          "name": "newOwner",
          "type": "address"
        }
      ],
      "name": "transferOwnership",
      "outputs": [],
      "stateMutability": "nonpayable",
      "type": "function"
    },
    {
      "inputs": [
        {
          "internalType": "uint256",
          "name": "value",
          "type": "uint256"
        }
      ],
      "name": "setPeriodData",
      "outputs": [],
      "stateMutability": "nonpayable",
      "type": "function"
    },
    {
      "inputs": [],
      "name": "exchange",
      "outputs": [],
      "stateMutability": "nonpayable",
      "type": "function"
    },
    {
      "inputs": [
        {
          "internalType": "address",
          "name": "_sender",
          "type": "address"
        },
        {
          "internalType": "uint256",
          "name": "_value",
          "type": "uint256"
        },
        {
          "internalType": "bytes",
          "name": "_data",
          "type": "bytes"
        }
      ],
      "name": "tokenReceived",
      "outputs": [],
      "stateMutability": "nonpayable",
      "type": "function"
    },
    {
      "inputs": [
        {
          "internalType": "uint32",
          "name": "subscribeBlock_",
          "type": "uint32"
        }
      ],
      "name": "setSubscribeBlock",
      "outputs": [],
      "stateMutability": "nonpayable",
      "type": "function"
    },
    {
      "inputs": [
        {
          "internalType": "uint256",
          "name": "price",
          "type": "uint256"
        },
        {
          "internalType": "uint256",
          "name": "mode",
          "type": "uint256"
        }
      ],
      "name": "setDefaultUserConfig",
      "outputs": [],
      "stateMutability": "nonpayable",
      "type": "function"
    },
    {
      "inputs": [
        {
          "internalType": "uint256",
          "name": "price",
          "type": "uint256"
        },
        {
          "internalType": "uint256",
          "name": "mode",
          "type": "uint256"
        }
      ],
      "name": "setUserConfig",
      "outputs": [],
      "stateMutability": "nonpayable",
      "type": "function"
    },
    {
      "inputs": [],
      "name": "userConfig",
      "outputs": [
        {
          "components": [
            {
              "internalType": "uint256",
              "name": "price",
              "type": "uint256"
            },
            {
              "internalType": "uint256",
              "name": "mode",
              "type": "uint256"
            }
          ],
          "internalType": "struct FavorTube.UserConfig",
          "name": "",
          "type": "tuple"
        }
      ],
      "stateMutability": "view",
      "type": "function",
      "constant": true
    },
    {
      "inputs": [
        {
          "internalType": "uint256",
          "name": "mode",
          "type": "uint256"
        },
        {
          "internalType": "uint8[5]",
          "name": "taxRate_",
          "type": "uint8[5]"
        }
      ],
      "name": "setTaxRate",
      "outputs": [
        {
          "internalType": "bool",
          "name": "success",
          "type": "bool"
        }
      ],
      "stateMutability": "nonpayable",
      "type": "function"
    },
    {
      "inputs": [
        {
          "internalType": "address",
          "name": "account",
          "type": "address"
        },
        {
          "internalType": "uint256",
          "name": "value",
          "type": "uint256"
        }
      ],
      "name": "withdrawTax",
      "outputs": [
        {
          "internalType": "bool",
          "name": "success",
          "type": "bool"
        }
      ],
      "stateMutability": "nonpayable",
      "type": "function"
    },
    {
      "inputs": [
        {
          "internalType": "address",
          "name": "token",
          "type": "address"
        },
        {
          "internalType": "address",
          "name": "account",
          "type": "address"
        },
        {
          "internalType": "uint256",
          "name": "value",
          "type": "uint256"
        }
      ],
      "name": "transferToken",
      "outputs": [
        {
          "internalType": "bool",
          "name": "success",
          "type": "bool"
        }
      ],
      "stateMutability": "nonpayable",
      "type": "function"
    },
    {
      "inputs": [
        {
          "internalType": "address",
          "name": "account",
          "type": "address"
        }
      ],
      "name": "transferChain",
      "outputs": [],
      "stateMutability": "payable",
      "type": "function",
      "payable": true
    }
  ],
  "bytecode": "0x60a06040523480156200001157600080fd5b50604051620036a2380380620036a28339818101604052810190620000379190620005f0565b80856200004c6000826200016560201b60201c565b50506200006e62000062620001be60201b60201c565b620001c660201b60201c565b604051806060016040528043815260200182815260200160018152506003600082015181600001556020820151816001015560408201518160020155905050506001600881905550620000cc826200028c60201b620017e91760201c565b620000d657600080fd5b8173ffffffffffffffffffffffffffffffffffffffff1660808173ffffffffffffffffffffffffffffffffffffffff168152505082600d60006101000a81548163ffffffff021916908363ffffffff16021790555060405180604001604052808581526020016000815250600b600082015181600001556020820151816001015590505050505050506200067a565b6000816000808581526020019081526020016000209060056200018a9291906200029f565b5060018390806001815401808255809150506001900390600052602060002001600090919091909150556001905092915050565b600033905090565b6000600260009054906101000a900473ffffffffffffffffffffffffffffffffffffffff16905081600260006101000a81548173ffffffffffffffffffffffffffffffffffffffff021916908373ffffffffffffffffffffffffffffffffffffffff1602179055508173ffffffffffffffffffffffffffffffffffffffff168173ffffffffffffffffffffffffffffffffffffffff167f8be0079c531659141344cd1fd0a4f28419497f9722a3daafe3b4186f6b6457e060405160405180910390a35050565b600080823b905060008111915050919050565b826005601f016020900481019282156200032d5791602002820160005b83821115620002fc57835183826101000a81548160ff021916908360ff1602179055509260200192600101602081600001049283019260010302620002bc565b80156200032b5782816101000a81549060ff0219169055600101602081600001049283019260010302620002fc565b505b5090506200033c919062000340565b5090565b5b808211156200035b57600081600090555060010162000341565b5090565b6000604051905090565b600080fd5b600080fd5b6000601f19601f8301169050919050565b7f4e487b7100000000000000000000000000000000000000000000000000000000600052604160045260246000fd5b620003be8262000373565b810181811067ffffffffffffffff82111715620003e057620003df62000384565b5b80604052505050565b6000620003f56200035f565b9050620004038282620003b3565b919050565b600067ffffffffffffffff82111562000426576200042562000384565b5b602082029050919050565b600080fd5b600060ff82169050919050565b6200044e8162000436565b81146200045a57600080fd5b50565b6000815190506200046e8162000443565b92915050565b60006200048b620004858462000408565b620003e9565b90508060208402830185811115620004a857620004a762000431565b5b835b81811015620004d55780620004c088826200045d565b845260208401935050602081019050620004aa565b5050509392505050565b600082601f830112620004f757620004f66200036e565b5b60056200050684828562000474565b91505092915050565b6000819050919050565b62000524816200050f565b81146200053057600080fd5b50565b600081519050620005448162000519565b92915050565b600063ffffffff82169050919050565b62000565816200054a565b81146200057157600080fd5b50565b60008151905062000585816200055a565b92915050565b600073ffffffffffffffffffffffffffffffffffffffff82169050919050565b6000620005b8826200058b565b9050919050565b620005ca81620005ab565b8114620005d657600080fd5b50565b600081519050620005ea81620005bf565b92915050565b6000806000806000610120868803121562000610576200060f62000369565b5b60006200062088828901620004df565b95505060a0620006338882890162000533565b94505060c0620006468882890162000574565b93505060e06200065988828901620005d9565b9250506101006200066d8882890162000533565b9150509295509295909350565b608051612ff7620006ab6000396000818161069701528181610ad7015281816112d4015261152b0152612ff76000f3fe6080604052600436106101405760003560e01c80638943ec02116100b6578063d2f7265a1161006f578063d2f7265a14610440578063e0b5db2f14610457578063ecd0c0c314610482578063f16f2501146104ad578063f2fde38b146104d6578063f5537ede146104ff57610140565b80638943ec02146103405780638da5cb5b146103695780639f5afc2814610394578063a32bf597146103bf578063afd78029146103ea578063b47639a81461041357610140565b806355c19a381161010857806355c19a381461021e578063675585201461025b5780636e2c3ad214610298578063715018a6146102c1578063757d13e6146102d857806378d076851461031557610140565b806305a84a2b1461014557806307854e7e146101615780632a23c6411461018d578063421c2bb9146101ca578063447dbbd0146101f3575b600080fd5b61015f600480360381019061015a9190611f83565b61053c565b005b34801561016d57600080fd5b50610176610602565b604051610184929190611fc9565b60405180910390f35b34801561019957600080fd5b506101b460048036038101906101af919061201e565b610614565b6040516101c19190612079565b60405180910390f35b3480156101d657600080fd5b506101f160048036038101906101ec9190612094565b6106c5565b005b3480156101ff57600080fd5b50610208610841565b60405161021591906120f3565b60405180910390f35b34801561022a57600080fd5b506102456004803603810190610240919061228e565b610857565b6040516102529190612079565b60405180910390f35b34801561026757600080fd5b50610282600480360381019061027d91906122ce565b6108e7565b60405161028f91906123a6565b60405180910390f35b3480156102a457600080fd5b506102bf60048036038101906102ba9190612094565b61096a565b005b3480156102cd57600080fd5b506102d6610a18565b005b3480156102e457600080fd5b506102ff60048036038101906102fa9190611f83565b610aa0565b60405161030c91906123c1565b60405180910390f35b34801561032157600080fd5b5061032a610ab8565b604051610337919061241a565b60405180910390f35b34801561034c57600080fd5b50610367600480360381019061036291906124ea565b610ad5565b005b34801561037557600080fd5b5061037e611079565b60405161038b9190612568565b60405180910390f35b3480156103a057600080fd5b506103a96110a3565b6040516103b69190612632565b60405180910390f35b3480156103cb57600080fd5b506103d46110fb565b6040516103e191906123c1565b60405180910390f35b3480156103f657600080fd5b50610411600480360381019061040c91906122ce565b611185565b005b34801561041f57600080fd5b5061042861120d565b60405161043793929190612654565b60405180910390f35b34801561044c57600080fd5b50610455611225565b005b34801561046357600080fd5b5061046c6113c1565b60405161047991906123c1565b60405180910390f35b34801561048e57600080fd5b50610497611529565b6040516104a49190612568565b60405180910390f35b3480156104b957600080fd5b506104d460048036038101906104cf91906126b7565b61154d565b005b3480156104e257600080fd5b506104fd60048036038101906104f89190611f83565b6115ed565b005b34801561050b57600080fd5b50610526600480360381019061052191906126e4565b6116e4565b6040516105339190612079565b60405180910390f35b6105446117fc565b73ffffffffffffffffffffffffffffffffffffffff16610562611079565b73ffffffffffffffffffffffffffffffffffffffff16146105b8576040517f08c379a00000000000000000000000000000000000000000000000000000000081526004016105af90612794565b60405180910390fd5b8073ffffffffffffffffffffffffffffffffffffffff166108fc349081150290604051600060405180830381858888f193505050501580156105fe573d6000803e3d6000fd5b5050565b600b8060000154908060010154905082565b600061061e6117fc565b73ffffffffffffffffffffffffffffffffffffffff1661063c611079565b73ffffffffffffffffffffffffffffffffffffffff1614610692576040517f08c379a000000000000000000000000000000000000000000000000000000000815260040161068990612794565b60405180910390fd5b6106bd7f000000000000000000000000000000000000000000000000000000000000000084846116e4565b905092915050565b6000806000838152602001908152602001600020506005141580156106eb575060648210155b61072a576040517f08c379a000000000000000000000000000000000000000000000000000000000815260040161072190612800565b60405180910390fd5b6040518060400160405280838152602001828152506009600061074b6117fc565b73ffffffffffffffffffffffffffffffffffffffff1673ffffffffffffffffffffffffffffffffffffffff16815260200190815260200160002060008201518160000155602082015181600101559050506001600a60006107aa6117fc565b73ffffffffffffffffffffffffffffffffffffffff1673ffffffffffffffffffffffffffffffffffffffff16815260200190815260200160002060006101000a81548160ff0219169083151502179055507f4619373028e67160770f20af9b5f8a296d2454407a13d608c905089399ec643b6108246117fc565b838360405161083593929190612820565b60405180910390a15050565b600d60009054906101000a900463ffffffff1681565b60006108616117fc565b73ffffffffffffffffffffffffffffffffffffffff1661087f611079565b73ffffffffffffffffffffffffffffffffffffffff16146108d5576040517f08c379a00000000000000000000000000000000000000000000000000000000081526004016108cc90612794565b60405180910390fd5b6108df8383611804565b905092915050565b6108ef611dfc565b60008083815260200190815260200160002060058060200260405190810160405280929190826005801561095e576020028201916000905b82829054906101000a900460ff1660ff16815260200190600101906020826000010492830192600103820291508084116109275790505b50505050509050919050565b6109726117fc565b73ffffffffffffffffffffffffffffffffffffffff16610990611079565b73ffffffffffffffffffffffffffffffffffffffff16146109e6576040517f08c379a00000000000000000000000000000000000000000000000000000000081526004016109dd90612794565b60405180910390fd5b604051806040016040528083815260200182815250600b60008201518160000155602082015181600101559050505050565b610a206117fc565b73ffffffffffffffffffffffffffffffffffffffff16610a3e611079565b73ffffffffffffffffffffffffffffffffffffffff1614610a94576040517f08c379a0000000000000000000000000000000000000000000000000000000008152600401610a8b90612794565b60405180910390fd5b610a9e600061185b565b565b60076020528060005260406000206000915090505481565b610ac0611e1e565b610ad0610acb6117fc565b611921565b905090565b7f000000000000000000000000000000000000000000000000000000000000000073ffffffffffffffffffffffffffffffffffffffff16610b146117fc565b73ffffffffffffffffffffffffffffffffffffffff1614610b6a576040517f08c379a0000000000000000000000000000000000000000000000000000000008152600401610b61906128a3565b60405180910390fd5b6000806000610b78846119e7565b809350819450829550505050600073ffffffffffffffffffffffffffffffffffffffff168373ffffffffffffffffffffffffffffffffffffffff1614158015610bee5750600073ffffffffffffffffffffffffffffffffffffffff168273ffffffffffffffffffffffffffffffffffffffff1614155b8015610c2657508073ffffffffffffffffffffffffffffffffffffffff168273ffffffffffffffffffffffffffffffffffffffff1614155b610c65576040517f08c379a0000000000000000000000000000000000000000000000000000000008152600401610c5c9061290f565b60405180910390fd5b6000610c7084611921565b90508060000151861015610cb9576040517f08c379a0000000000000000000000000000000000000000000000000000000008152600401610cb09061297b565b60405180910390fd5b60008073ffffffffffffffffffffffffffffffffffffffff168373ffffffffffffffffffffffffffffffffffffffff161490506000610d6f8260008086602001518152602001908152602001600020600580602002604051908101604052809291908260058015610d65576020028201916000905b82829054906101000a900460ff1660ff1681526020019060010190602082600001049283019260010382029150808411610d2e5790505b5050505050611a0d565b90506000604051806060016040528060648b85600060038110610d9557610d9461299b565b5b602002015160ff16610da791906129f9565b610db19190612a82565b815260200160648b85600160038110610dcd57610dcc61299b565b5b602002015160ff16610ddf91906129f9565b610de99190612a82565b815260200160648b85600260038110610e0557610e0461299b565b5b602002015160ff16610e1791906129f9565b610e219190612a82565b8152509050610e488782600060038110610e3e57610e3d61299b565b5b6020020151611ada565b610e6a8682600160038110610e6057610e5f61299b565b5b6020020151611ada565b82610e9257610e918582600260038110610e8757610e8661299b565b5b6020020151611ada565b5b6000610eaf600d60009054906101000a900463ffffffff16611c59565b90507fc3b157ee7a0c96db039cb96afc467f0e52e15dff6f4ee4e954397872c93b02bd888883604051610ee493929190612ab3565b60405180910390a17f8eceedb6c7c87d09ab27d61b473d356d84d270c2cd64a977f531b47cb01fc03d8a8c83604051806060016040528060405180606001604052808f73ffffffffffffffffffffffffffffffffffffffff16815260200189600060038110610f5657610f5561299b565b5b602002015181526020018a600060038110610f7457610f7361299b565b5b602002015160ff16815250815260200160405180606001604052808e73ffffffffffffffffffffffffffffffffffffffff16815260200189600160038110610fbf57610fbe61299b565b5b602002015181526020018a600160038110610fdd57610fdc61299b565b5b602002015160ff16815250815260200160405180606001604052808d73ffffffffffffffffffffffffffffffffffffffff168152602001896002600381106110285761102761299b565b5b602002015181526020018a6002600381106110465761104561299b565b5b602002015160ff168152508152506040516110649493929190612bd7565b60405180910390a15050505050505050505050565b6000600260009054906101000a900473ffffffffffffffffffffffffffffffffffffffff16905090565b606060018054806020026020016040519081016040528092919081815260200182805480156110f157602002820191906000526020600020905b8154815260200190600101908083116110dd575b5050505050905090565b60008060036000015443101561112457600160036002015461111d9190612c1d565b905061117e565b600360000154430361113d57600360020154905061117d565b60036002015460036001015460016003600001544361115c9190612c1d565b6111669190612c1d565b6111709190612a82565b61117a9190612c51565b90505b5b8091505090565b61118d6117fc565b73ffffffffffffffffffffffffffffffffffffffff166111ab611079565b73ffffffffffffffffffffffffffffffffffffffff1614611201576040517f08c379a00000000000000000000000000000000000000000000000000000000081526004016111f890612794565b60405180910390fd5b61120a81611c94565b50565b60038060000154908060010154908060020154905083565b60026008540361126a576040517f08c379a000000000000000000000000000000000000000000000000000000000815260040161126190612cf3565b60405180910390fd5b6002600881905550600061127c6113c1565b9050600081036112c1576040517f08c379a00000000000000000000000000000000000000000000000000000000081526004016112b890612d5f565b60405180910390fd5b6112d26112cc6117fc565b82611d69565b7f000000000000000000000000000000000000000000000000000000000000000073ffffffffffffffffffffffffffffffffffffffff1663a9059cbb6113166117fc565b836040518363ffffffff1660e01b8152600401611334929190612d7f565b6020604051808303816000875af1158015611353573d6000803e3d6000fd5b505050506040513d601f19601f820116820180604052508101906113779190612dd4565b6113b6576040517f08c379a00000000000000000000000000000000000000000000000000000000081526004016113ad90612e4d565b60405180910390fd5b506001600881905550565b6000806113cc6110fb565b90506000600760003373ffffffffffffffffffffffffffffffffffffffff1673ffffffffffffffffffffffffffffffffffffffff1681526020019081526020016000205490506000600660003373ffffffffffffffffffffffffffffffffffffffff1673ffffffffffffffffffffffffffffffffffffffff16815260200190815260200160002060405180604001604052908160008201604051806040016040529081600082015481526020016001820154815250508152602001600282016040518060400160405290816000820154815260200160018201548152505081525050905080602001516000015183036114ed578060000151602001518160200151602001516114db9190612c51565b826114e69190612c1d565b9150611520565b60018160200151600001516115029190612c51565b830361151f578060200151602001518261151c9190612c1d565b91505b5b81935050505090565b7f000000000000000000000000000000000000000000000000000000000000000081565b6115556117fc565b73ffffffffffffffffffffffffffffffffffffffff16611573611079565b73ffffffffffffffffffffffffffffffffffffffff16146115c9576040517f08c379a00000000000000000000000000000000000000000000000000000000081526004016115c090612794565b60405180910390fd5b80600d60006101000a81548163ffffffff021916908363ffffffff16021790555050565b6115f56117fc565b73ffffffffffffffffffffffffffffffffffffffff16611613611079565b73ffffffffffffffffffffffffffffffffffffffff1614611669576040517f08c379a000000000000000000000000000000000000000000000000000000000815260040161166090612794565b60405180910390fd5b600073ffffffffffffffffffffffffffffffffffffffff168173ffffffffffffffffffffffffffffffffffffffff16036116d8576040517f08c379a00000000000000000000000000000000000000000000000000000000081526004016116cf90612edf565b60405180910390fd5b6116e18161185b565b50565b60006116ee6117fc565b73ffffffffffffffffffffffffffffffffffffffff1661170c611079565b73ffffffffffffffffffffffffffffffffffffffff1614611762576040517f08c379a000000000000000000000000000000000000000000000000000000000815260040161175990612794565b60405180910390fd5b8373ffffffffffffffffffffffffffffffffffffffff1663a9059cbb84846040518363ffffffff1660e01b815260040161179d929190612d7f565b6020604051808303816000875af11580156117bc573d6000803e3d6000fd5b505050506040513d601f19601f820116820180604052508101906117e09190612dd4565b90509392505050565b600080823b905060008111915050919050565b600033905090565b600081600080858152602001908152602001600020906005611827929190611e38565b5060018390806001815401808255809150506001900390600052602060002001600090919091909150556001905092915050565b6000600260009054906101000a900473ffffffffffffffffffffffffffffffffffffffff16905081600260006101000a81548173ffffffffffffffffffffffffffffffffffffffff021916908373ffffffffffffffffffffffffffffffffffffffff1602179055508173ffffffffffffffffffffffffffffffffffffffff168173ffffffffffffffffffffffffffffffffffffffff167f8be0079c531659141344cd1fd0a4f28419497f9722a3daafe3b4186f6b6457e060405160405180910390a35050565b611929611e1e565b600a60008373ffffffffffffffffffffffffffffffffffffffff1673ffffffffffffffffffffffffffffffffffffffff16815260200190815260200160002060009054906101000a900460ff1661198157600b6119c1565b600960008373ffffffffffffffffffffffffffffffffffffffff1673ffffffffffffffffffffffffffffffffffffffff1681526020019081526020016000205b604051806040016040529081600082015481526020016001820154815250509050919050565b600080600083806020019051810190611a009190612f3d565b9250925092509193909250565b611a15611ed2565b604051806060016040528084611a435783600260058110611a3957611a3861299b565b5b6020020151611a5d565b83600060058110611a5757611a5661299b565b5b60200201515b60ff1660ff16815260200184611a8b5783600360058110611a8157611a8061299b565b5b6020020151611aa5565b83600160058110611a9f57611a9e61299b565b5b60200201515b60ff1660ff16815260200183600460058110611ac457611ac361299b565b5b602002015160ff1660ff16815250905092915050565b6000811115611c55576000611aed6110fb565b90506000600660008573ffffffffffffffffffffffffffffffffffffffff1673ffffffffffffffffffffffffffffffffffffffff168152602001908152602001600020905081816002016000015403611b635782816002016001016000828254611b579190612c51565b92505081905550611bfc565b600182611b709190612c1d565b816002016000015414611ba4576040518060400160405280600184611b959190612c1d565b81526020016000815250611bc8565b80600201604051806040016040529081600082015481526020016001820154815250505b8160000160008201518160000155602082015181600101559050508181600201600001819055508281600201600101819055505b82600760008673ffffffffffffffffffffffffffffffffffffffff1673ffffffffffffffffffffffffffffffffffffffff1681526020019081526020016000206000828254611c4b9190612c51565b9250508190555050505b5050565b600080438363ffffffff16611c6e9190612c51565b905063ffffffff80168110611c8a5763ffffffff915050611c8f565b809150505b919050565b600360000154431015611cb05780600360010181905550611d66565b600060036001015460036000015443611cc99190612c1d565b611cd39190612f90565b60036001015443611ce49190612c51565b611cee9190612c1d565b9050600060036001015460036000015483611d099190612c1d565b611d139190612a82565b9050604051806060016040528083815260200184815260200160036002015483611d3d9190612c51565b815250600360008201518160000155602082015181600101556040820151816002015590505050505b50565b80600760008473ffffffffffffffffffffffffffffffffffffffff1673ffffffffffffffffffffffffffffffffffffffff1681526020019081526020016000206000828254611db89190612c1d565b925050819055507f0aa36af98793b49f134f1c56f26ee1a235db0a9c879f8d310b016c0117e8d4208282604051611df0929190612d7f565b60405180910390a15050565b6040518060a00160405280600590602082028036833780820191505090505090565b604051806040016040528060008152602001600081525090565b826005601f01602090048101928215611ec15791602002820160005b83821115611e9257835183826101000a81548160ff021916908360ff1602179055509260200192600101602081600001049283019260010302611e54565b8015611ebf5782816101000a81549060ff0219169055600101602081600001049283019260010302611e92565b505b509050611ece9190611ef4565b5090565b6040518060600160405280600390602082028036833780820191505090505090565b5b80821115611f0d576000816000905550600101611ef5565b5090565b6000604051905090565b600080fd5b600080fd5b600073ffffffffffffffffffffffffffffffffffffffff82169050919050565b6000611f5082611f25565b9050919050565b611f6081611f45565b8114611f6b57600080fd5b50565b600081359050611f7d81611f57565b92915050565b600060208284031215611f9957611f98611f1b565b5b6000611fa784828501611f6e565b91505092915050565b6000819050919050565b611fc381611fb0565b82525050565b6000604082019050611fde6000830185611fba565b611feb6020830184611fba565b9392505050565b611ffb81611fb0565b811461200657600080fd5b50565b60008135905061201881611ff2565b92915050565b6000806040838503121561203557612034611f1b565b5b600061204385828601611f6e565b925050602061205485828601612009565b9150509250929050565b60008115159050919050565b6120738161205e565b82525050565b600060208201905061208e600083018461206a565b92915050565b600080604083850312156120ab576120aa611f1b565b5b60006120b985828601612009565b92505060206120ca85828601612009565b9150509250929050565b600063ffffffff82169050919050565b6120ed816120d4565b82525050565b600060208201905061210860008301846120e4565b92915050565b600080fd5b6000601f19601f8301169050919050565b7f4e487b7100000000000000000000000000000000000000000000000000000000600052604160045260246000fd5b61215c82612113565b810181811067ffffffffffffffff8211171561217b5761217a612124565b5b80604052505050565b600061218e611f11565b905061219a8282612153565b919050565b600067ffffffffffffffff8211156121ba576121b9612124565b5b602082029050919050565b600080fd5b600060ff82169050919050565b6121e0816121ca565b81146121eb57600080fd5b50565b6000813590506121fd816121d7565b92915050565b60006122166122118461219f565b612184565b905080602084028301858111156122305761222f6121c5565b5b835b81811015612259578061224588826121ee565b845260208401935050602081019050612232565b5050509392505050565b600082601f8301126122785761227761210e565b5b6005612285848285612203565b91505092915050565b60008060c083850312156122a5576122a4611f1b565b5b60006122b385828601612009565b92505060206122c485828601612263565b9150509250929050565b6000602082840312156122e4576122e3611f1b565b5b60006122f284828501612009565b91505092915050565b600060059050919050565b600081905092915050565b6000819050919050565b612324816121ca565b82525050565b6000612336838361231b565b60208301905092915050565b6000602082019050919050565b612358816122fb565b6123628184612306565b925061236d82612311565b8060005b8381101561239e578151612385878261232a565b965061239083612342565b925050600181019050612371565b505050505050565b600060a0820190506123bb600083018461234f565b92915050565b60006020820190506123d66000830184611fba565b92915050565b6123e581611fb0565b82525050565b60408201600082015161240160008501826123dc565b50602082015161241460208501826123dc565b50505050565b600060408201905061242f60008301846123eb565b92915050565b600080fd5b600067ffffffffffffffff82111561245557612454612124565b5b61245e82612113565b9050602081019050919050565b82818337600083830152505050565b600061248d6124888461243a565b612184565b9050828152602081018484840111156124a9576124a8612435565b5b6124b484828561246b565b509392505050565b600082601f8301126124d1576124d061210e565b5b81356124e184826020860161247a565b91505092915050565b60008060006060848603121561250357612502611f1b565b5b600061251186828701611f6e565b935050602061252286828701612009565b925050604084013567ffffffffffffffff81111561254357612542611f20565b5b61254f868287016124bc565b9150509250925092565b61256281611f45565b82525050565b600060208201905061257d6000830184612559565b92915050565b600081519050919050565b600082825260208201905092915050565b6000819050602082019050919050565b60006125bb83836123dc565b60208301905092915050565b6000602082019050919050565b60006125df82612583565b6125e9818561258e565b93506125f48361259f565b8060005b8381101561262557815161260c88826125af565b9750612617836125c7565b9250506001810190506125f8565b5085935050505092915050565b6000602082019050818103600083015261264c81846125d4565b905092915050565b60006060820190506126696000830186611fba565b6126766020830185611fba565b6126836040830184611fba565b949350505050565b612694816120d4565b811461269f57600080fd5b50565b6000813590506126b18161268b565b92915050565b6000602082840312156126cd576126cc611f1b565b5b60006126db848285016126a2565b91505092915050565b6000806000606084860312156126fd576126fc611f1b565b5b600061270b86828701611f6e565b935050602061271c86828701611f6e565b925050604061272d86828701612009565b9150509250925092565b600082825260208201905092915050565b7f4f776e61626c653a2063616c6c6572206973206e6f7420746865206f776e6572600082015250565b600061277e602083612737565b915061278982612748565b602082019050919050565b600060208201905081810360008301526127ad81612771565b9050919050565b7f6d6f646520646f6573206e6f7420657869737400000000000000000000000000600082015250565b60006127ea601383612737565b91506127f5826127b4565b602082019050919050565b60006020820190508181036000830152612819816127dd565b9050919050565b60006060820190506128356000830186612559565b6128426020830185611fba565b61284f6040830184611fba565b949350505050565b7f496e636f727265637420636f6e74726163742061646472657373000000000000600082015250565b600061288d601a83612737565b915061289882612857565b602082019050919050565b600060208201905081810360008301526128bc81612880565b9050919050565b7f41646472657373204572726f7200000000000000000000000000000000000000600082015250565b60006128f9600d83612737565b9150612904826128c3565b602082019050919050565b60006020820190508181036000830152612928816128ec565b9050919050565b7f7061696420707269636520697320746f6f206c6f770000000000000000000000600082015250565b6000612965601583612737565b91506129708261292f565b602082019050919050565b6000602082019050818103600083015261299481612958565b9050919050565b7f4e487b7100000000000000000000000000000000000000000000000000000000600052603260045260246000fd5b7f4e487b7100000000000000000000000000000000000000000000000000000000600052601160045260246000fd5b6000612a0482611fb0565b9150612a0f83611fb0565b9250817fffffffffffffffffffffffffffffffffffffffffffffffffffffffffffffffff0483118215151615612a4857612a476129ca565b5b828202905092915050565b7f4e487b7100000000000000000000000000000000000000000000000000000000600052601260045260246000fd5b6000612a8d82611fb0565b9150612a9883611fb0565b925082612aa857612aa7612a53565b5b828204905092915050565b6000606082019050612ac86000830186612559565b612ad56020830185612559565b612ae260408301846120e4565b949350505050565b600060039050919050565b600081905092915050565b6000819050919050565b612b1381611f45565b82525050565b606082016000820151612b2f6000850182612b0a565b506020820151612b4260208501826123dc565b506040820151612b5560408501826123dc565b50505050565b6000612b678383612b19565b60608301905092915050565b6000602082019050919050565b612b8981612aea565b612b938184612af5565b9250612b9e82612b00565b8060005b83811015612bcf578151612bb68782612b5b565b9650612bc183612b73565b925050600181019050612ba2565b505050505050565b600061018082019050612bed6000830187611fba565b612bfa6020830186612559565b612c0760408301856120e4565b612c146060830184612b80565b95945050505050565b6000612c2882611fb0565b9150612c3383611fb0565b925082821015612c4657612c456129ca565b5b828203905092915050565b6000612c5c82611fb0565b9150612c6783611fb0565b9250827fffffffffffffffffffffffffffffffffffffffffffffffffffffffffffffffff03821115612c9c57612c9b6129ca565b5b828201905092915050565b7f5265656e7472616e637947756172643a207265656e7472616e742063616c6c00600082015250565b6000612cdd601f83612737565b9150612ce882612ca7565b602082019050919050565b60006020820190508181036000830152612d0c81612cd0565b9050919050565b7f496e73756666696369656e742062616c616e6365000000000000000000000000600082015250565b6000612d49601483612737565b9150612d5482612d13565b602082019050919050565b60006020820190508181036000830152612d7881612d3c565b9050919050565b6000604082019050612d946000830185612559565b612da16020830184611fba565b9392505050565b612db18161205e565b8114612dbc57600080fd5b50565b600081519050612dce81612da8565b92915050565b600060208284031215612dea57612de9611f1b565b5b6000612df884828501612dbf565b91505092915050565b7f5769746864726177616c204661696c7572650000000000000000000000000000600082015250565b6000612e37601283612737565b9150612e4282612e01565b602082019050919050565b60006020820190508181036000830152612e6681612e2a565b9050919050565b7f4f776e61626c653a206e6577206f776e657220697320746865207a65726f206160008201527f6464726573730000000000000000000000000000000000000000000000000000602082015250565b6000612ec9602683612737565b9150612ed482612e6d565b604082019050919050565b60006020820190508181036000830152612ef881612ebc565b9050919050565b6000612f0a82611f25565b9050919050565b612f1a81612eff565b8114612f2557600080fd5b50565b600081519050612f3781612f11565b92915050565b600080600060608486031215612f5657612f55611f1b565b5b6000612f6486828701612f28565b9350506020612f7586828701612f28565b9250506040612f8686828701612f28565b9150509250925092565b6000612f9b82611fb0565b9150612fa683611fb0565b925082612fb657612fb5612a53565b5b82820690509291505056fea264697066735822122000a2a95023300ddb61079d796685343275e87123fafccdee322f077ef0dea4af64736f6c634300080d0033",
  "immutableReferences": {
    "1039": [
      {
        "length": 32,
        "start": 1687
      },
      {
        "length": 32,
        "start": 2775
      },
      {
        "length": 32,
        "start": 4820
      },
      {
        "length": 32,
        "start": 5419
      }
    ]
  },
  "source": "// SPDX-License-Identifier: MIT\npragma solidity ^0.8.0;\n\nimport \"@openzeppelin/contracts/security/ReentrancyGuard.sol\";\nimport \"@openzeppelin/contracts/access/Ownable.sol\";\nimport \"./ERC223/IERC223.sol\";\nimport \"./ERC223/IERC223Recipient.sol\";\nimport \"./TokenTax.sol\";\nimport \"./utils/Address.sol\";\nimport \"./LockBalance.sol\";\n\ncontract FavorTube is IERC223Recipient, TokenTax, Ownable, LockBalance, ReentrancyGuard {\n\n    struct PayInfo {\n        address account;\n        uint rate;\n        uint amount;\n    }\n\n    event $subInfo(uint value, address sender, uint32 expire, PayInfo[3] subInfo);\n    event $subscribe(address channel, address licensee, uint32 expire);\n    event $setUserConfig(address channel, uint256 price, uint mode);\n\n    struct UserConfig {\n        uint256 price;\n        uint mode;\n    }\n\n    mapping(address => UserConfig) _userConfig;\n    mapping(address => bool) _isSetConfig;\n\n    UserConfig public _defaultUserConfig;\n\n    uint32 public subscribeBlock;\n\n    address public immutable _token;\n\n    constructor(uint8[5] memory taxRate, uint256 price, uint32 subscribeBlock_, address ERC223Token, uint interval) TokenTax(taxRate) LockBalance(interval) {\n        require(Address.isContract(ERC223Token));\n\n        _token = ERC223Token;\n\n        subscribeBlock = subscribeBlock_;\n\n        _defaultUserConfig = UserConfig(price, 0);\n    }\n\n    function setPeriodData(uint value) external override onlyOwner {\n        _setPeriodData(value);\n    }\n\n    function exchange() external override nonReentrant {\n        uint amount = exchangeableAmount();\n\n        require(amount != 0, \"Insufficient balance\");\n\n        _exchange(_msgSender(), amount);\n\n        require(IERC223(_token).transfer(_msgSender(), amount), \"Withdrawal Failure\");\n    }\n\n    function userConfig() external view returns (UserConfig memory) {\n        return userConfig(_msgSender());\n    }\n\n    function tokenReceived(address _sender, uint _value, bytes memory _data) external override {\n\n        require(_msgSender() == _token, 'Incorrect contract address');\n\n        address channel;\n        address subscriber;\n        address sharer;\n\n        (channel, subscriber, sharer) = decodeCallbackData(_data);\n\n        require(channel != address(0) && subscriber != address(0) && subscriber != sharer,\"Address Error\");\n\n        UserConfig memory config = userConfig(channel);\n\n        if (_value < config.price)\n            revert(\"paid price is too low\");\n\n\n        bool isZeroAddress = sharer == address(0);\n\n        uint8[3] memory computedTaxRate = getComputedTaxRate(isZeroAddress, taxRateMap[config.mode]);\n\n        uint[3] memory computedAmount = [\n        (computedTaxRate[0] * _value) / 100,\n        (computedTaxRate[1] * _value) / 100,\n        (computedTaxRate[2] * _value) / 100\n        ];\n\n        _lock(channel, computedAmount[0]);\n        _lock(subscriber, computedAmount[1]);\n        if (!isZeroAddress) _lock(sharer, computedAmount[2]);\n\n        uint32 expire = computeExpire(subscribeBlock);\n\n        emit $subscribe(channel, subscriber, expire);\n\n        emit $subInfo(\n            _value,\n            _sender,\n            expire,\n            [PayInfo(channel, computedAmount[0], computedTaxRate[0]),\n            PayInfo(subscriber, computedAmount[1], computedTaxRate[1]),\n            PayInfo(sharer, computedAmount[2], computedTaxRate[2])]);\n    }\n\n    function getComputedTaxRate(bool isZeroAddress, uint8[5] memory taxRate) pure internal returns (uint8[3] memory){\n        return [\n        isZeroAddress ? taxRate[0] : taxRate[2],\n        isZeroAddress ? taxRate[1] : taxRate[3],\n        taxRate[4]\n        ];\n    }\n\n    function setSubscribeBlock(uint32 subscribeBlock_) external onlyOwner {\n        subscribeBlock = subscribeBlock_;\n    }\n\n    function setDefaultUserConfig(uint256 price, uint mode) external onlyOwner {\n        _defaultUserConfig = UserConfig(price, mode);\n    }\n\n    function setUserConfig(uint256 price, uint mode) external {\n        require(taxRateMap[mode].length != 0 && price >= 100, \"mode does not exist\");\n        _userConfig[_msgSender()] = UserConfig(price, mode);\n        _isSetConfig[_msgSender()] = true;\n\n        emit $setUserConfig(_msgSender(), price, mode);\n    }\n\n    function userConfig(address account) internal view returns (UserConfig memory) {\n        return _isSetConfig[account] ? _userConfig[account] : _defaultUserConfig;\n    }\n\n    function decodeCallbackData(bytes memory data) internal pure returns (address, address, address) {\n        return abi.decode(data, (address, address, address));\n    }\n\n    function computeExpire(uint32 value) internal view returns (uint32) {\n        uint result = uint(value) + block.number;\n\n        if (result >= uint(type(uint32).max)) {\n            return type(uint32).max;\n        }\n\n        return uint32(result);\n    }\n\n    function setTaxRate(uint mode, uint8[5] memory taxRate_) external override onlyOwner returns (bool success) {\n        return _setTaxRate(mode, taxRate_);\n    }\n\n    function withdrawTax(address account, uint value) external override onlyOwner returns (bool success) {\n        return transferToken(_token, account, value);\n    }\n\n    function transferToken(address token, address account, uint value) public onlyOwner returns (bool success){\n        return IERC223(token).transfer(account, value);\n    }\n\n    function transferChain(address account) payable external onlyOwner {\n        payable(account).transfer(msg.value);\n    }\n}\n",
  "sourcePath": "/home/lzy/Project/contracts/favor-contracts/contracts/FavorTube.sol",
  "compiler": {
    "name": "solc",
    "version": "0.8.13+commit.abaa5c0e.Emscripten.clang"
  },
  "schemaVersion": "3.4.3",
  "updatedAt": "2022-10-21T07:29:38.552Z",
  "networkType": "ethereum",
  "devdoc": {
    "kind": "dev",
    "methods": {
      "owner()": {
        "details": "Returns the address of the current owner."
      },
      "renounceOwnership()": {
        "details": "Leaves the contract without owner. It will not be possible to call `onlyOwner` functions anymore. Can only be called by the current owner. NOTE: Renouncing ownership will leave the contract without an owner, thereby removing any functionality that is only available to the owner."
      },
      "transferOwnership(address)": {
        "details": "Transfers ownership of the contract to a new account (`newOwner`). Can only be called by the current owner."
      }
    },
    "version": 1
  },
  "userdoc": {
    "kind": "user",
    "methods": {},
    "version": 1
  }
}