{
  "contractName": "FavorTube",
  "abi": [
    {
      "inputs": [
        {
          "components": [
            {
              "internalType": "uint256",
              "name": "price",
              "type": "uint256"
            },
            {
              "internalType": "uint8",
              "name": "modeType",
              "type": "uint8"
            }
          ],
          "internalType": "struct UsersConfig.UserConfig",
          "name": "userConfig",
          "type": "tuple"
        },
        {
          "components": [
            {
              "internalType": "uint8[5]",
              "name": "taxRate",
              "type": "uint8[5]"
            },
            {
              "internalType": "uint256",
              "name": "minPrice",
              "type": "uint256"
            },
            {
              "internalType": "uint256",
              "name": "maxPrice",
              "type": "uint256"
            }
          ],
          "internalType": "struct UsersConfig.Mode",
          "name": "mode",
          "type": "tuple"
        },
        {
          "internalType": "uint32",
          "name": "subscribeBlock_",
          "type": "uint32"
        },
        {
          "internalType": "address",
          "name": "ERC223Token",
          "type": "address"
        },
        {
          "internalType": "uint256",
          "name": "interval",
          "type": "uint256"
        },
        {
          "internalType": "address",
          "name": "router",
          "type": "address"
        }
      ],
      "stateMutability": "nonpayable",
      "type": "constructor"
    },
    {
      "anonymous": false,
      "inputs": [
        {
          "indexed": false,
          "internalType": "address",
          "name": "addr",
          "type": "address"
        },
        {
          "indexed": false,
          "internalType": "uint256",
          "name": "amount",
          "type": "uint256"
        }
      ],
      "name": "$exchange",
      "type": "event"
    },
    {
      "anonymous": false,
      "inputs": [
        {
          "indexed": false,
          "internalType": "address",
          "name": "channel",
          "type": "address"
        },
        {
          "indexed": false,
          "internalType": "uint256",
          "name": "price",
          "type": "uint256"
        },
        {
          "indexed": false,
          "internalType": "uint256",
          "name": "mode",
          "type": "uint256"
        }
      ],
      "name": "$setUserConfig",
      "type": "event"
    },
    {
      "anonymous": false,
      "inputs": [
        {
          "indexed": false,
          "internalType": "uint256",
          "name": "value",
          "type": "uint256"
        },
        {
          "indexed": false,
          "internalType": "address",
          "name": "sender",
          "type": "address"
        },
        {
          "indexed": false,
          "internalType": "uint32",
          "name": "expire",
          "type": "uint32"
        },
        {
          "components": [
            {
              "internalType": "address",
              "name": "account",
              "type": "address"
            },
            {
              "internalType": "uint256",
              "name": "amount",
              "type": "uint256"
            },
            {
              "internalType": "uint256",
              "name": "rate",
              "type": "uint256"
            }
          ],
          "indexed": false,
          "internalType": "struct FavorTube.PayInfo[3]",
          "name": "subInfo",
          "type": "tuple[3]"
        }
      ],
      "name": "$subInfo",
      "type": "event"
    },
    {
      "anonymous": false,
      "inputs": [
        {
          "indexed": true,
          "internalType": "address",
          "name": "previousOwner",
          "type": "address"
        },
        {
          "indexed": true,
          "internalType": "address",
          "name": "newOwner",
          "type": "address"
        }
      ],
      "name": "OwnershipTransferred",
      "type": "event"
    },
    {
      "inputs": [],
      "name": "_token",
      "outputs": [
        {
          "internalType": "address",
          "name": "",
          "type": "address"
        }
      ],
      "stateMutability": "view",
      "type": "function",
      "constant": true
    },
    {
      "inputs": [],
      "name": "defaultUserConfig",
      "outputs": [
        {
          "internalType": "uint256",
          "name": "price",
          "type": "uint256"
        },
        {
          "internalType": "uint8",
          "name": "modeType",
          "type": "uint8"
        }
      ],
      "stateMutability": "view",
      "type": "function",
      "constant": true
    },
    {
      "inputs": [],
      "name": "exchangeableAmount",
      "outputs": [
        {
          "internalType": "uint256",
          "name": "",
          "type": "uint256"
        }
      ],
      "stateMutability": "view",
      "type": "function",
      "constant": true
    },
    {
      "inputs": [],
      "name": "getCurrentRound",
      "outputs": [
        {
          "internalType": "uint256",
          "name": "",
          "type": "uint256"
        }
      ],
      "stateMutability": "view",
      "type": "function",
      "constant": true
    },
    {
      "inputs": [
        {
          "internalType": "uint8",
          "name": "modeType",
          "type": "uint8"
        }
      ],
      "name": "getMode",
      "outputs": [
        {
          "components": [
            {
              "internalType": "uint8[5]",
              "name": "taxRate",
              "type": "uint8[5]"
            },
            {
              "internalType": "uint256",
              "name": "minPrice",
              "type": "uint256"
            },
            {
              "internalType": "uint256",
              "name": "maxPrice",
              "type": "uint256"
            }
          ],
          "internalType": "struct UsersConfig.Mode",
          "name": "",
          "type": "tuple"
        }
      ],
      "stateMutability": "view",
      "type": "function",
      "constant": true
    },
    {
      "inputs": [],
      "name": "getModesKey",
      "outputs": [
        {
          "internalType": "uint8[]",
          "name": "",
          "type": "uint8[]"
        }
      ],
      "stateMutability": "view",
      "type": "function",
      "constant": true
    },
    {
      "inputs": [
        {
          "internalType": "bytes",
          "name": "path",
          "type": "bytes"
        }
      ],
      "name": "getTokenIn",
      "outputs": [
        {
          "internalType": "uint256",
          "name": "",
          "type": "uint256"
        }
      ],
      "stateMutability": "view",
      "type": "function",
      "constant": true
    },
    {
      "inputs": [
        {
          "internalType": "address",
          "name": "addr",
          "type": "address"
        }
      ],
      "name": "getUserConfig",
      "outputs": [
        {
          "components": [
            {
              "internalType": "uint256",
              "name": "price",
              "type": "uint256"
            },
            {
              "internalType": "uint8",
              "name": "modeType",
              "type": "uint8"
            }
          ],
          "internalType": "struct UsersConfig.UserConfig",
          "name": "",
          "type": "tuple"
        }
      ],
      "stateMutability": "view",
      "type": "function",
      "constant": true
    },
    {
      "inputs": [
        {
          "internalType": "address",
          "name": "",
          "type": "address"
        }
      ],
      "name": "isSetConfig",
      "outputs": [
        {
          "internalType": "bool",
          "name": "",
          "type": "bool"
        }
      ],
      "stateMutability": "view",
      "type": "function",
      "constant": true
    },
    {
      "inputs": [
        {
          "internalType": "address",
          "name": "",
          "type": "address"
        }
      ],
      "name": "lockTotal",
      "outputs": [
        {
          "internalType": "uint256",
          "name": "",
          "type": "uint256"
        }
      ],
      "stateMutability": "view",
      "type": "function",
      "constant": true
    },
    {
      "inputs": [
        {
          "internalType": "uint8",
          "name": "",
          "type": "uint8"
        }
      ],
      "name": "modeSet",
      "outputs": [
        {
          "internalType": "bool",
          "name": "",
          "type": "bool"
        }
      ],
      "stateMutability": "view",
      "type": "function",
      "constant": true
    },
    {
      "inputs": [],
      "name": "owner",
      "outputs": [
        {
          "internalType": "address",
          "name": "",
          "type": "address"
        }
      ],
      "stateMutability": "view",
      "type": "function",
      "constant": true
    },
    {
      "inputs": [],
      "name": "periodData",
      "outputs": [
        {
          "internalType": "uint256",
          "name": "startBlockNumber",
          "type": "uint256"
        },
        {
          "internalType": "uint256",
          "name": "periodTime",
          "type": "uint256"
        },
        {
          "internalType": "uint256",
          "name": "periodNumber",
          "type": "uint256"
        }
      ],
      "stateMutability": "view",
      "type": "function",
      "constant": true
    },
    {
      "inputs": [],
      "name": "renounceOwnership",
      "outputs": [],
      "stateMutability": "nonpayable",
      "type": "function"
    },
    {
      "inputs": [],
      "name": "subscribeBlock",
      "outputs": [
        {
          "internalType": "uint32",
          "name": "",
          "type": "uint32"
        }
      ],
      "stateMutability": "view",
      "type": "function",
      "constant": true
    },
    {
      "inputs": [
        {
          "internalType": "address",
          "name": "newOwner",
          "type": "address"
        }
      ],
      "name": "transferOwnership",
      "outputs": [],
      "stateMutability": "nonpayable",
      "type": "function"
    },
    {
      "inputs": [],
      "name": "uniswapRouter",
      "outputs": [
        {
          "internalType": "contract IUniswapRouter",
          "name": "",
          "type": "address"
        }
      ],
      "stateMutability": "view",
      "type": "function",
      "constant": true
    },
    {
      "inputs": [
        {
          "internalType": "address",
          "name": "",
          "type": "address"
        }
      ],
      "name": "usersConfig",
      "outputs": [
        {
          "internalType": "uint256",
          "name": "price",
          "type": "uint256"
        },
        {
          "internalType": "uint8",
          "name": "modeType",
          "type": "uint8"
        }
      ],
      "stateMutability": "view",
      "type": "function",
      "constant": true
    },
    {
      "stateMutability": "payable",
      "type": "receive",
      "payable": true
    },
    {
      "inputs": [
        {
          "internalType": "uint256",
          "name": "value",
          "type": "uint256"
        }
      ],
      "name": "setPeriodData",
      "outputs": [],
      "stateMutability": "nonpayable",
      "type": "function"
    },
    {
      "inputs": [],
      "name": "exchange",
      "outputs": [],
      "stateMutability": "nonpayable",
      "type": "function"
    },
    {
      "inputs": [
        {
          "internalType": "uint8",
          "name": "modeType",
          "type": "uint8"
        },
        {
          "components": [
            {
              "internalType": "uint8[5]",
              "name": "taxRate",
              "type": "uint8[5]"
            },
            {
              "internalType": "uint256",
              "name": "minPrice",
              "type": "uint256"
            },
            {
              "internalType": "uint256",
              "name": "maxPrice",
              "type": "uint256"
            }
          ],
          "internalType": "struct UsersConfig.Mode",
          "name": "mode",
          "type": "tuple"
        }
      ],
      "name": "setMode",
      "outputs": [],
      "stateMutability": "nonpayable",
      "type": "function"
    },
    {
      "inputs": [
        {
          "internalType": "uint8",
          "name": "modeType",
          "type": "uint8"
        },
        {
          "internalType": "uint256",
          "name": "index",
          "type": "uint256"
        }
      ],
      "name": "removeMode",
      "outputs": [],
      "stateMutability": "nonpayable",
      "type": "function"
    },
    {
      "inputs": [
        {
          "components": [
            {
              "internalType": "uint256",
              "name": "price",
              "type": "uint256"
            },
            {
              "internalType": "uint8",
              "name": "modeType",
              "type": "uint8"
            }
          ],
          "internalType": "struct UsersConfig.UserConfig",
          "name": "userConfig",
          "type": "tuple"
        }
      ],
      "name": "setDefaultUserConfig",
      "outputs": [],
      "stateMutability": "nonpayable",
      "type": "function"
    },
    {
      "inputs": [
        {
          "components": [
            {
              "internalType": "uint256",
              "name": "price",
              "type": "uint256"
            },
            {
              "internalType": "uint8",
              "name": "modeType",
              "type": "uint8"
            }
          ],
          "internalType": "struct UsersConfig.UserConfig",
          "name": "userConfig",
          "type": "tuple"
        }
      ],
      "name": "setUserConfig",
      "outputs": [],
      "stateMutability": "nonpayable",
      "type": "function"
    },
    {
      "inputs": [
        {
          "internalType": "address",
          "name": "_sender",
          "type": "address"
        },
        {
          "internalType": "uint256",
          "name": "_value",
          "type": "uint256"
        },
        {
          "internalType": "bytes",
          "name": "_data",
          "type": "bytes"
        }
      ],
      "name": "tokenReceived",
      "outputs": [],
      "stateMutability": "nonpayable",
      "type": "function"
    },
    {
      "inputs": [
        {
          "internalType": "uint32",
          "name": "subscribeBlock_",
          "type": "uint32"
        }
      ],
      "name": "setSubscribeBlock",
      "outputs": [],
      "stateMutability": "nonpayable",
      "type": "function"
    },
    {
      "inputs": [
        {
          "internalType": "address",
          "name": "account",
          "type": "address"
        },
        {
          "internalType": "uint256",
          "name": "value",
          "type": "uint256"
        }
      ],
      "name": "withdrawTax",
      "outputs": [
        {
          "internalType": "bool",
          "name": "success",
          "type": "bool"
        }
      ],
      "stateMutability": "nonpayable",
      "type": "function"
    },
    {
      "inputs": [
        {
          "internalType": "address",
          "name": "token",
          "type": "address"
        },
        {
          "internalType": "address",
          "name": "account",
          "type": "address"
        },
        {
          "internalType": "uint256",
          "name": "value",
          "type": "uint256"
        }
      ],
      "name": "transferToken",
      "outputs": [
        {
          "internalType": "bool",
          "name": "success",
          "type": "bool"
        }
      ],
      "stateMutability": "nonpayable",
      "type": "function"
    },
    {
      "inputs": [
        {
          "internalType": "bytes",
          "name": "path",
          "type": "bytes"
        },
        {
          "internalType": "uint256",
          "name": "amountInMaximum",
          "type": "uint256"
        },
        {
          "internalType": "uint256",
          "name": "amountOut",
          "type": "uint256"
        },
        {
          "internalType": "bytes",
          "name": "data",
          "type": "bytes"
        }
      ],
      "name": "swapToken",
      "outputs": [],
      "stateMutability": "payable",
      "type": "function",
      "payable": true
    }
  ],
  "bytecode": "0x60a06040523480156200001157600080fd5b506040516200515e3803806200515e833981810160405281019062000037919062000642565b80828787620000518260200151826200022360201b60201c565b62000062826200031660201b60201c565b5050600062000076620003b960201b60201c565b905080600760006101000a81548173ffffffffffffffffffffffffffffffffffffffff021916908373ffffffffffffffffffffffffffffffffffffffff1602179055508073ffffffffffffffffffffffffffffffffffffffff16600073ffffffffffffffffffffffffffffffffffffffff167f8be0079c531659141344cd1fd0a4f28419497f9722a3daafe3b4186f6b6457e060405160405180910390a3506040518060600160405280438152602001828152602001600181525060086000820151816000015560208201518160010155604082015181600201559050505080600d60006101000a81548173ffffffffffffffffffffffffffffffffffffffff021916908373ffffffffffffffffffffffffffffffffffffffff160217905550506001600e81905550620001b583620003c160201b620018e31760201c565b620001bf57600080fd5b8273ffffffffffffffffffffffffffffffffffffffff1660808173ffffffffffffffffffffffffffffffffffffffff1660601b8152505083600f60006101000a81548163ffffffff021916908363ffffffff16021790555050505050505062000874565b600560008360ff1660ff16815260200190815260200160002060009054906101000a900460ff16620002955760068290806001815401808255809150506001900390600052602060002090602091828204019190069091909190916101000a81548160ff021916908360ff1602179055505b80600460008460ff1660ff168152602001908152602001600020600082015181600001906005620002c8929190620003d4565b5060208201518160010155604082015181600201559050506001600560008460ff1660ff16815260200190815260200160002060006101000a81548160ff0219169083151502179055505050565b8060200151600560008260ff1660ff16815260200190815260200160002060009054906101000a900460ff1662000384576040517f08c379a00000000000000000000000000000000000000000000000000000000081526004016200037b906200071f565b60405180910390fd5b8160026000820151816000015560208201518160010160006101000a81548160ff021916908360ff1602179055509050505050565b600033905090565b600080823b905060008111915050919050565b826005601f01602090048101928215620004625791602002820160005b838211156200043157835183826101000a81548160ff021916908360ff1602179055509260200192600101602081600001049283019260010302620003f1565b8015620004605782816101000a81549060ff021916905560010160208160000104928301926001030262000431565b505b50905062000471919062000475565b5090565b5b808211156200049057600081600090555060010162000476565b5090565b6000620004ab620004a58462000775565b62000741565b90508082856020860282011115620004c257600080fd5b60005b85811015620004f65781620004db88826200062b565b845260208401935060208301925050600181019050620004c5565b5050509392505050565b60008151905062000511816200080c565b92915050565b600082601f8301126200052957600080fd5b60056200053884828562000494565b91505092915050565b600060e082840312156200055457600080fd5b62000560606062000741565b90506000620005728482850162000517565b60008301525060a06200058884828501620005fd565b60208301525060c06200059e84828501620005fd565b60408301525092915050565b600060408284031215620005bd57600080fd5b620005c9604062000741565b90506000620005db84828501620005fd565b6000830152506020620005f1848285016200062b565b60208301525092915050565b6000815190506200060e8162000826565b92915050565b600081519050620006258162000840565b92915050565b6000815190506200063c816200085a565b92915050565b6000806000806000806101a087890312156200065d57600080fd5b60006200066d89828a01620005aa565b96505060406200068089828a0162000541565b9550506101206200069489828a0162000614565b945050610140620006a889828a0162000500565b935050610160620006bc89828a01620005fd565b925050610180620006d089828a0162000500565b9150509295509295509295565b6000620006ec6018836200079e565b91507f4d6f6465207479706520646f6573206e6f7420657869737400000000000000006000830152602082019050919050565b600060208201905081810360008301526200073a81620006dd565b9050919050565b6000604051905081810181811067ffffffffffffffff821117156200076b576200076a6200080a565b5b8060405250919050565b600067ffffffffffffffff8211156200079357620007926200080a565b5b602082029050919050565b600082825260208201905092915050565b6000620007bc82620007c3565b9050919050565b600073ffffffffffffffffffffffffffffffffffffffff82169050919050565b6000819050919050565b600063ffffffff82169050919050565b600060ff82169050919050565bfe5b6200081781620007af565b81146200082357600080fd5b50565b6200083181620007e3565b81146200083d57600080fd5b50565b6200084b81620007ed565b81146200085757600080fd5b50565b6200086581620007fd565b81146200087157600080fd5b50565b60805160601c6148bd620008a160003980610aa65280610d0252806111bc52806114b252506148bd6000f3fe6080604052600436106101c65760003560e01c8063a206dbdf116100f7578063c4f8c59111610095578063ecd0c0c311610064578063ecd0c0c314610656578063f16f250114610681578063f2fde38b146106aa578063f5537ede146106d3576101cd565b8063c4f8c591146105ac578063d2f7265a146105d7578063e0b5db2f146105ee578063ea1ad16114610619576101cd565b8063afd78029116100d1578063afd7802914610504578063b47639a81461052d578063bc692b7c1461055a578063be14d91214610583576101cd565b8063a206dbdf14610470578063a2738fb4146104ad578063a32bf597146104d9576101cd565b80636375503211610164578063757d13e61161013e578063757d13e6146103c35780638943ec02146104005780638da5cb5b146104295780639f1b989514610454576101cd565b80636375503214610344578063715018a614610381578063735de9f714610398576101cd565b80632a23c641116101a05780632a23c6411461026157806332363a571461029e578063447dbbd0146102dc57806345dde0cb14610307576101cd565b806309d1378a146101d2578063150a5d0b146101fb57806316626ab914610224576101cd565b366101cd57005b600080fd5b3480156101de57600080fd5b506101f960048036038101906101f49190613c6c565b610710565b005b34801561020757600080fd5b50610222600480360381019061021d9190613ca9565b6107cd565b005b34801561023057600080fd5b5061024b60048036038101906102469190613938565b61088a565b6040516102589190614461565b60405180910390f35b34801561026d57600080fd5b50610288600480360381019061028391906139ff565b6109f0565b60405161029591906142ee565b60405180910390f35b3480156102aa57600080fd5b506102c560048036038101906102c09190613938565b610ad4565b6040516102d3929190614514565b60405180910390f35b3480156102e857600080fd5b506102f1610b05565b6040516102fe919061453d565b60405180910390f35b34801561031357600080fd5b5061032e60048036038101906103299190613acb565b610b1b565b60405161033b919061447c565b60405180910390f35b34801561035057600080fd5b5061036b60048036038101906103669190613c43565b610b32565b60405161037891906142ee565b60405180910390f35b34801561038d57600080fd5b50610396610b52565b005b3480156103a457600080fd5b506103ad610cc2565b6040516103ba9190614309565b60405180910390f35b3480156103cf57600080fd5b506103ea60048036038101906103e59190613938565b610ce8565b6040516103f7919061447c565b60405180910390f35b34801561040c57600080fd5b5061042760048036038101906104229190613a3b565b610d00565b005b34801561043557600080fd5b5061043e610da5565b60405161044b9190614228565b60405180910390f35b61046e60048036038101906104699190613b0c565b610dcf565b005b34801561047c57600080fd5b5061049760048036038101906104929190613938565b610e61565b6040516104a491906142ee565b60405180910390f35b3480156104b957600080fd5b506104c2610e81565b6040516104d0929190614514565b60405180910390f35b3480156104e557600080fd5b506104ee610ea0565b6040516104fb919061447c565b60405180910390f35b34801561051057600080fd5b5061052b60048036038101906105269190613bc8565b610f05565b005b34801561053957600080fd5b50610542610fc0565b604051610551939291906144dd565b60405180910390f35b34801561056657600080fd5b50610581600480360381019061057c9190613b9f565b610fd8565b005b34801561058f57600080fd5b506105aa60048036038101906105a59190613b9f565b611093565b005b3480156105b857600080fd5b506105c16110a7565b6040516105ce91906142cc565b60405180910390f35b3480156105e357600080fd5b506105ec611125565b005b3480156105fa57600080fd5b506106036112b8565b604051610610919061447c565b60405180910390f35b34801561062557600080fd5b50610640600480360381019061063b9190613c43565b6113fe565b60405161064d9190614446565b60405180910390f35b34801561066257600080fd5b5061066b6114b0565b6040516106789190614228565b60405180910390f35b34801561068d57600080fd5b506106a860048036038101906106a39190613c1a565b6114d4565b005b3480156106b657600080fd5b506106d160048036038101906106cc9190613938565b6115a7565b005b3480156106df57600080fd5b506106fa60048036038101906106f591906139b0565b61179c565b60405161070791906142ee565b60405180910390f35b6107186118f6565b73ffffffffffffffffffffffffffffffffffffffff16610736610da5565b73ffffffffffffffffffffffffffffffffffffffff16146107bf576040517f08c379a00000000000000000000000000000000000000000000000000000000081526004018080602001828103825260208152602001807f4f776e61626c653a2063616c6c6572206973206e6f7420746865206f776e657281525060200191505060405180910390fd5b6107c982826118fe565b5050565b6107d56118f6565b73ffffffffffffffffffffffffffffffffffffffff166107f3610da5565b73ffffffffffffffffffffffffffffffffffffffff161461087c576040517f08c379a00000000000000000000000000000000000000000000000000000000081526004018080602001828103825260208152602001807f4f776e61626c653a2063616c6c6572206973206e6f7420746865206f776e657281525060200191505060405180910390fd5b61088682826119ee565b5050565b6108926135c1565b600160008373ffffffffffffffffffffffffffffffffffffffff1673ffffffffffffffffffffffffffffffffffffffff16815260200190815260200160002060009054906101000a900460ff1661091e576002604051806040016040529081600082015481526020016001820160009054906101000a900460ff1660ff1660ff168152505090506109eb565b60008060008473ffffffffffffffffffffffffffffffffffffffff1673ffffffffffffffffffffffffffffffffffffffff168152602001908152602001600020604051806040016040529081600082015481526020016001820160009054906101000a900460ff1660ff1660ff1681525050905060056000826020015160ff1660ff16815260200190815260200160002060009054906101000a900460ff166109e657600260010160009054906101000a900460ff16816020019060ff16908160ff16815250505b809150505b919050565b60006109fa6118f6565b73ffffffffffffffffffffffffffffffffffffffff16610a18610da5565b73ffffffffffffffffffffffffffffffffffffffff1614610aa1576040517f08c379a00000000000000000000000000000000000000000000000000000000081526004018080602001828103825260208152602001807f4f776e61626c653a2063616c6c6572206973206e6f7420746865206f776e657281525060200191505060405180910390fd5b610acc7f0000000000000000000000000000000000000000000000000000000000000000848461179c565b905092915050565b60006020528060005260406000206000915090508060000154908060010160009054906101000a900460ff16905082565b600f60009054906101000a900463ffffffff1681565b600080610b2783611bd4565b905080915050919050565b60056020528060005260406000206000915054906101000a900460ff1681565b610b5a6118f6565b73ffffffffffffffffffffffffffffffffffffffff16610b78610da5565b73ffffffffffffffffffffffffffffffffffffffff1614610c01576040517f08c379a00000000000000000000000000000000000000000000000000000000081526004018080602001828103825260208152602001807f4f776e61626c653a2063616c6c6572206973206e6f7420746865206f776e657281525060200191505060405180910390fd5b600073ffffffffffffffffffffffffffffffffffffffff16600760009054906101000a900473ffffffffffffffffffffffffffffffffffffffff1673ffffffffffffffffffffffffffffffffffffffff167f8be0079c531659141344cd1fd0a4f28419497f9722a3daafe3b4186f6b6457e060405160405180910390a36000600760006101000a81548173ffffffffffffffffffffffffffffffffffffffff021916908373ffffffffffffffffffffffffffffffffffffffff160217905550565b600d60009054906101000a900473ffffffffffffffffffffffffffffffffffffffff1681565b600c6020528060005260406000206000915090505481565b7f000000000000000000000000000000000000000000000000000000000000000073ffffffffffffffffffffffffffffffffffffffff16610d3f6118f6565b73ffffffffffffffffffffffffffffffffffffffff1614610d95576040517f08c379a0000000000000000000000000000000000000000000000000000000008152600401610d8c906143e4565b60405180910390fd5b610da0838383611bef565b505050565b6000600760009054906101000a900473ffffffffffffffffffffffffffffffffffffffff16905090565b6000600f42019050600030905060006040518060a001604052808881526020018373ffffffffffffffffffffffffffffffffffffffff16815260200184815260200186815260200187815250905060003414610e3357610e2e81611fe7565b610e3d565b610e3c81612136565b5b610e4657600080fd5b610e58610e516118f6565b8686611bef565b50505050505050565b60016020528060005260406000206000915054906101000a900460ff1681565b60028060000154908060010160009054906101000a900460ff16905082565b600080600860000154431015610ec0576001600860020154039050610efe565b600860000154431415610eda576008600201549050610efd565b600860020154600860010154600160086000015443030381610ef857fe5b040190505b5b8091505090565b610f0d6118f6565b73ffffffffffffffffffffffffffffffffffffffff16610f2b610da5565b73ffffffffffffffffffffffffffffffffffffffff1614610fb4576040517f08c379a00000000000000000000000000000000000000000000000000000000081526004018080602001828103825260208152602001807f4f776e61626c653a2063616c6c6572206973206e6f7420746865206f776e657281525060200191505060405180910390fd5b610fbd8161227d565b50565b60088060000154908060010154908060020154905083565b610fe06118f6565b73ffffffffffffffffffffffffffffffffffffffff16610ffe610da5565b73ffffffffffffffffffffffffffffffffffffffff1614611087576040517f08c379a00000000000000000000000000000000000000000000000000000000081526004018080602001828103825260208152602001807f4f776e61626c653a2063616c6c6572206973206e6f7420746865206f776e657281525060200191505060405180910390fd5b61109081612321565b50565b6110a461109e6118f6565b826123c1565b50565b6060600680548060200260200160405190810160405280929190818152602001828054801561111b57602002820191906000526020600020906000905b82829054906101000a900460ff1660ff16815260200190600101906020826000010492830192600103820291508084116110e45790505b5050505050905090565b6002600e54141561119e576040517f08c379a000000000000000000000000000000000000000000000000000000000815260040180806020018281038252601f8152602001807f5265656e7472616e637947756172643a207265656e7472616e742063616c6c0081525060200191505060405180910390fd5b6002600e8190555060006111b86111b36118f6565b612643565b90507f000000000000000000000000000000000000000000000000000000000000000073ffffffffffffffffffffffffffffffffffffffff1663a9059cbb6111fe6118f6565b836040518363ffffffff1660e01b815260040161121c929190614243565b602060405180830381600087803b15801561123657600080fd5b505af115801561124a573d6000803e3d6000fd5b505050506040513d601f19601f8201168201806040525081019061126e9190613aa2565b6112ad576040517f08c379a00000000000000000000000000000000000000000000000000000000081526004016112a490614384565b60405180910390fd5b506001600e81905550565b6000806112c3610ea0565b90506000600c60003373ffffffffffffffffffffffffffffffffffffffff1673ffffffffffffffffffffffffffffffffffffffff1681526020019081526020016000205490506000600b60003373ffffffffffffffffffffffffffffffffffffffff1673ffffffffffffffffffffffffffffffffffffffff1681526020019081526020016000206040518060400160405290816000820160405180604001604052908160008201548152602001600182015481525050815260200160028201604051806040016040529081600082015481526020016001820154815250508152505090508060200151600001518314156113d35780600001516020015181602001516020015101820391506113f5565b6001816020015160000151018314156113f457806020015160200151820391505b5b81935050505090565b6114066135de565b600460008360ff1660ff1681526020019081526020016000206040518060600160405290816000820160058060200260405190810160405280929190826005801561148c576020028201916000905b82829054906101000a900460ff1660ff16815260200190600101906020826000010492830192600103820291508084116114555790505b50505050508152602001600182015481526020016002820154815250509050919050565b7f000000000000000000000000000000000000000000000000000000000000000081565b6114dc6118f6565b73ffffffffffffffffffffffffffffffffffffffff166114fa610da5565b73ffffffffffffffffffffffffffffffffffffffff1614611583576040517f08c379a00000000000000000000000000000000000000000000000000000000081526004018080602001828103825260208152602001807f4f776e61626c653a2063616c6c6572206973206e6f7420746865206f776e657281525060200191505060405180910390fd5b80600f60006101000a81548163ffffffff021916908363ffffffff16021790555050565b6115af6118f6565b73ffffffffffffffffffffffffffffffffffffffff166115cd610da5565b73ffffffffffffffffffffffffffffffffffffffff1614611656576040517f08c379a00000000000000000000000000000000000000000000000000000000081526004018080602001828103825260208152602001807f4f776e61626c653a2063616c6c6572206973206e6f7420746865206f776e657281525060200191505060405180910390fd5b600073ffffffffffffffffffffffffffffffffffffffff168173ffffffffffffffffffffffffffffffffffffffff1614156116dc576040517f08c379a00000000000000000000000000000000000000000000000000000000081526004018080602001828103825260268152602001806148626026913960400191505060405180910390fd5b8073ffffffffffffffffffffffffffffffffffffffff16600760009054906101000a900473ffffffffffffffffffffffffffffffffffffffff1673ffffffffffffffffffffffffffffffffffffffff167f8be0079c531659141344cd1fd0a4f28419497f9722a3daafe3b4186f6b6457e060405160405180910390a380600760006101000a81548173ffffffffffffffffffffffffffffffffffffffff021916908373ffffffffffffffffffffffffffffffffffffffff16021790555050565b60006117a66118f6565b73ffffffffffffffffffffffffffffffffffffffff166117c4610da5565b73ffffffffffffffffffffffffffffffffffffffff161461184d576040517f08c379a00000000000000000000000000000000000000000000000000000000081526004018080602001828103825260208152602001807f4f776e61626c653a2063616c6c6572206973206e6f7420746865206f776e657281525060200191505060405180910390fd5b8373ffffffffffffffffffffffffffffffffffffffff1663a9059cbb84846040518363ffffffff1660e01b815260040161188892919061426c565b602060405180830381600087803b1580156118a257600080fd5b505af11580156118b6573d6000803e3d6000fd5b505050506040513d601f19601f820116820180604052508101906118da9190613aa2565b90509392505050565b600080823b905060008111915050919050565b600033905090565b600560008360ff1660ff16815260200190815260200160002060009054906101000a900460ff1661196f5760068290806001815401808255809150506001900390600052602060002090602091828204019190069091909190916101000a81548160ff021916908360ff1602179055505b80600460008460ff1660ff1681526020019081526020016000206000820151816000019060056119a0929190613605565b5060208201518160010155604082015181600201559050506001600560008460ff1660ff16815260200190815260200160002060006101000a81548160ff0219169083151502179055505050565b81600560008260ff1660ff16815260200190815260200160002060009054906101000a900460ff16611a55576040517f08c379a0000000000000000000000000000000000000000000000000000000008152600401611a4c90614364565b60405180910390fd5b8260ff1660068381548110611a6657fe5b90600052602060002090602091828204019190069054906101000a900460ff1660ff1614611ac9576040517f08c379a0000000000000000000000000000000000000000000000000000000008152600401611ac0906143a4565b60405180910390fd5b600460008460ff1660ff16815260200190815260200160002060008082016000611af3919061369f565b600182016000905560028201600090555050600560008460ff1660ff16815260200190815260200160002060006101000a81549060ff0219169055600660016006805490500381548110611b4357fe5b90600052602060002090602091828204019190069054906101000a900460ff1660068381548110611b7057fe5b90600052602060002090602091828204019190066101000a81548160ff021916908360ff1602179055506006805480611ba557fe5b60019003818190600052602060002090602091828204019190066101000a81549060ff02191690559055505050565b60006003601401601483510381611be757fe5b049050919050565b6000806000611bfd84612723565b809350819450829550505050600073ffffffffffffffffffffffffffffffffffffffff168373ffffffffffffffffffffffffffffffffffffffff1614158015611c735750600073ffffffffffffffffffffffffffffffffffffffff168273ffffffffffffffffffffffffffffffffffffffff1614155b8015611cab57508073ffffffffffffffffffffffffffffffffffffffff168273ffffffffffffffffffffffffffffffffffffffff1614155b611cea576040517f08c379a0000000000000000000000000000000000000000000000000000000008152600401611ce190614324565b60405180910390fd5b6000611cf58461088a565b90508060000151861015611d3e576040517f08c379a0000000000000000000000000000000000000000000000000000000008152600401611d35906143c4565b60405180910390fd5b60008073ffffffffffffffffffffffffffffffffffffffff168373ffffffffffffffffffffffffffffffffffffffff161490506000611d8d82611d8485602001516113fe565b60000151612749565b90506000604051806060016040528060648b85600060038110611dac57fe5b602002015160ff160281611dbc57fe5b04815260200160648b85600160038110611dd257fe5b602002015160ff160281611de257fe5b04815260200160648b85600260038110611df857fe5b602002015160ff160281611e0857fe5b048152509050611e298782600060038110611e1f57fe5b60200201516127f3565b611e448682600160038110611e3a57fe5b60200201516127f3565b82611e6557611e648582600260038110611e5a57fe5b60200201516127f3565b5b6000611e82600f60009054906101000a900463ffffffff1661294f565b90507f8eceedb6c7c87d09ab27d61b473d356d84d270c2cd64a977f531b47cb01fc03d8a8c83604051806060016040528060405180606001604052808f73ffffffffffffffffffffffffffffffffffffffff16815260200189600060038110611ee757fe5b602002015181526020018a600060038110611efe57fe5b602002015160ff16815250815260200160405180606001604052808e73ffffffffffffffffffffffffffffffffffffffff16815260200189600160038110611f4257fe5b602002015181526020018a600160038110611f5957fe5b602002015160ff16815250815260200160405180606001604052808d73ffffffffffffffffffffffffffffffffffffffff16815260200189600260038110611f9d57fe5b602002015181526020018a600260038110611fb457fe5b602002015160ff16815250815250604051611fd29493929190614497565b60405180910390a15050505050505050505050565b600080600d60009054906101000a900473ffffffffffffffffffffffffffffffffffffffff1673ffffffffffffffffffffffffffffffffffffffff1663f28c049834856040518363ffffffff1660e01b81526004016120469190614424565b6020604051808303818588803b15801561205f57600080fd5b505af1158015612073573d6000803e3d6000fd5b50505050506040513d601f19601f820116820180604052508101906120989190613bf1565b9050600d60009054906101000a900473ffffffffffffffffffffffffffffffffffffffff1673ffffffffffffffffffffffffffffffffffffffff166312210e8a6040518163ffffffff1660e01b8152600401600060405180830381600087803b15801561210457600080fd5b505af1158015612118573d6000803e3d6000fd5b5050505061212c3382856080015103612981565b6001915050919050565b600080826000015190505b61214a81612afd565b1561215f5761215881612b18565b9050612141565b600061216a82612b41565b5091505061217e8133308760800151612b92565b6121af81600d60009054906101000a900473ffffffffffffffffffffffffffffffffffffffff168660800151612db2565b6000600d60009054906101000a900473ffffffffffffffffffffffffffffffffffffffff1673ffffffffffffffffffffffffffffffffffffffff1663f28c0498866040518263ffffffff1660e01b815260040161220c9190614424565b602060405180830381600087803b15801561222657600080fd5b505af115801561223a573d6000803e3d6000fd5b505050506040513d601f19601f8201168201806040525081019061225e9190613bf1565b9050612271823383886080015103612fb3565b60019350505050919050565b600860000154431015612299578060086001018190555061231e565b60006008600101546008600001544303816122b057fe5b06600860010154430103905060006008600101546008600001548303816122d357fe5b04905060405180606001604052808381526020018481526020016008600201548301815250600860008201518160000155602082015181600101556040820151816002015590505050505b50565b8060200151600560008260ff1660ff16815260200190815260200160002060009054906101000a900460ff1661238c576040517f08c379a000000000000000000000000000000000000000000000000000000000815260040161238390614364565b60405180910390fd5b8160026000820151816000015560208201518160010160006101000a81548160ff021916908360ff1602179055509050505050565b8060200151600560008260ff1660ff16815260200190815260200160002060009054906101000a900460ff1661242c576040517f08c379a000000000000000000000000000000000000000000000000000000000815260040161242390614364565b60405180910390fd5b600060046000846020015160ff1660ff168152602001908152602001600020604051806060016040529081600082016005806020026040519081016040528092919082600580156124b8576020028201916000905b82829054906101000a900460ff1660ff16815260200190600101906020826000010492830192600103820291508084116124815790505b5050505050815260200160018201548152602001600282015481525050905080604001518360000151111580156124f757508060200151836000015110155b612536576040517f08c379a000000000000000000000000000000000000000000000000000000000815260040161252d90614404565b60405180910390fd5b826000808673ffffffffffffffffffffffffffffffffffffffff1673ffffffffffffffffffffffffffffffffffffffff1681526020019081526020016000206000820151816000015560208201518160010160006101000a81548160ff021916908360ff16021790555090505060018060008673ffffffffffffffffffffffffffffffffffffffff1673ffffffffffffffffffffffffffffffffffffffff16815260200190815260200160002060006101000a81548160ff0219169083151502179055507f4619373028e67160770f20af9b5f8a296d2454407a13d608c905089399ec643b848460000151856020015160405161263593929190614295565b60405180910390a150505050565b60008061264e6112b8565b90506000811415612694576040517f08c379a000000000000000000000000000000000000000000000000000000000815260040161268b90614344565b60405180910390fd5b80600c60008573ffffffffffffffffffffffffffffffffffffffff1673ffffffffffffffffffffffffffffffffffffffff168152602001908152602001600020600082825403925050819055507f0aa36af98793b49f134f1c56f26ee1a235db0a9c879f8d310b016c0117e8d420838260405161271292919061426c565b60405180910390a180915050919050565b60008060008380602001905181019061273c9190613961565b9250925092509193909250565b6127516136a6565b604051806060016040528084612778578360026005811061276e57fe5b602002015161278b565b8360006005811061278557fe5b60200201515b60ff1660ff168152602001846127b257836003600581106127a857fe5b60200201516127c5565b836001600581106127bf57fe5b60200201515b60ff1660ff168152602001836004600581106127dd57fe5b602002015160ff1660ff16815250905092915050565b600081111561294b576000612806610ea0565b90506000600b60008573ffffffffffffffffffffffffffffffffffffffff1673ffffffffffffffffffffffffffffffffffffffff16815260200190815260200160002090508181600201600001541415612874578281600201600101600082825401925050819055506128fb565b600182038160020160000154146128a357604051806040016040528060018403815260200160008152506128c7565b80600201604051806040016040529081600082015481526020016001820154815250505b8160000160008201518160000155602082015181600101559050508181600201600001819055508281600201600101819055505b82600c60008673ffffffffffffffffffffffffffffffffffffffff1673ffffffffffffffffffffffffffffffffffffffff1681526020019081526020016000206000828254019250508190555050505b5050565b600080438363ffffffff1601905063ffffffff801681106129775763ffffffff91505061297c565b809150505b919050565b60008273ffffffffffffffffffffffffffffffffffffffff1682600067ffffffffffffffff811180156129b357600080fd5b506040519080825280601f01601f1916602001820160405280156129e65781602001600182028036833780820191505090505b506040518082805190602001908083835b60208310612a1a57805182526020820191506020810190506020830392506129f7565b6001836020036101000a03801982511681845116808217855250505050505090500191505060006040518083038185875af1925050503d8060008114612a7c576040519150601f19603f3d011682016040523d82523d6000602084013e612a81565b606091505b5050905080612af8576040517f08c379a00000000000000000000000000000000000000000000000000000000081526004018080602001828103825260038152602001807f535445000000000000000000000000000000000000000000000000000000000081525060200191505060405180910390fd5b505050565b60006003601401601460036014010101825110159050919050565b6060612b3a60036014016003601401845103846131b49092919063ffffffff16565b9050919050565b6000806000612b5a60008561339e90919063ffffffff16565b9250612b706014856134b790919063ffffffff16565b9050612b8960036014018561339e90919063ffffffff16565b91509193909250565b6000808573ffffffffffffffffffffffffffffffffffffffff166323b872dd60e01b868686604051602401808473ffffffffffffffffffffffffffffffffffffffff1681526020018373ffffffffffffffffffffffffffffffffffffffff1681526020018281526020019350505050604051602081830303815290604052907bffffffffffffffffffffffffffffffffffffffffffffffffffffffff19166020820180517bffffffffffffffffffffffffffffffffffffffffffffffffffffffff83818316178352505050506040518082805190602001908083835b60208310612c915780518252602082019150602081019050602083039250612c6e565b6001836020036101000a0380198251168184511680821785525050505050509050019150506000604051808303816000865af19150503d8060008114612cf3576040519150601f19603f3d011682016040523d82523d6000602084013e612cf8565b606091505b5091509150818015612d385750600081511480612d375750808060200190516020811015612d2557600080fd5b81019080805190602001909291905050505b5b612daa576040517f08c379a00000000000000000000000000000000000000000000000000000000081526004018080602001828103825260038152602001807f535446000000000000000000000000000000000000000000000000000000000081525060200191505060405180910390fd5b505050505050565b6000808473ffffffffffffffffffffffffffffffffffffffff1663095ea7b360e01b8585604051602401808373ffffffffffffffffffffffffffffffffffffffff16815260200182815260200192505050604051602081830303815290604052907bffffffffffffffffffffffffffffffffffffffffffffffffffffffff19166020820180517bffffffffffffffffffffffffffffffffffffffffffffffffffffffff83818316178352505050506040518082805190602001908083835b60208310612e935780518252602082019150602081019050602083039250612e70565b6001836020036101000a0380198251168184511680821785525050505050509050019150506000604051808303816000865af19150503d8060008114612ef5576040519150601f19603f3d011682016040523d82523d6000602084013e612efa565b606091505b5091509150818015612f3a5750600081511480612f395750808060200190516020811015612f2757600080fd5b81019080805190602001909291905050505b5b612fac576040517f08c379a00000000000000000000000000000000000000000000000000000000081526004018080602001828103825260028152602001807f534100000000000000000000000000000000000000000000000000000000000081525060200191505060405180910390fd5b5050505050565b6000808473ffffffffffffffffffffffffffffffffffffffff1663a9059cbb60e01b8585604051602401808373ffffffffffffffffffffffffffffffffffffffff16815260200182815260200192505050604051602081830303815290604052907bffffffffffffffffffffffffffffffffffffffffffffffffffffffff19166020820180517bffffffffffffffffffffffffffffffffffffffffffffffffffffffff83818316178352505050506040518082805190602001908083835b602083106130945780518252602082019150602081019050602083039250613071565b6001836020036101000a0380198251168184511680821785525050505050509050019150506000604051808303816000865af19150503d80600081146130f6576040519150601f19603f3d011682016040523d82523d6000602084013e6130fb565b606091505b509150915081801561313b575060008151148061313a575080806020019051602081101561312857600080fd5b81019080805190602001909291905050505b5b6131ad576040517f08c379a00000000000000000000000000000000000000000000000000000000081526004018080602001828103825260028152602001807f535400000000000000000000000000000000000000000000000000000000000081525060200191505060405180910390fd5b5050505050565b606081601f8301101561322f576040517f08c379a000000000000000000000000000000000000000000000000000000000815260040180806020018281038252600e8152602001807f736c6963655f6f766572666c6f7700000000000000000000000000000000000081525060200191505060405180910390fd5b8282840110156132a7576040517f08c379a000000000000000000000000000000000000000000000000000000000815260040180806020018281038252600e8152602001807f736c6963655f6f766572666c6f7700000000000000000000000000000000000081525060200191505060405180910390fd5b81830184511015613320576040517f08c379a00000000000000000000000000000000000000000000000000000000081526004018080602001828103825260118152602001807f736c6963655f6f75744f66426f756e647300000000000000000000000000000081525060200191505060405180910390fd5b60608215600081146133415760405191506000825260208201604052613392565b6040519150601f8416801560200281840101858101878315602002848b0101015b8183101561337f5780518352602083019250602081019050613362565b50868552601f19601f8301166040525050505b50809150509392505050565b600081601483011015613419576040517f08c379a00000000000000000000000000000000000000000000000000000000081526004018080602001828103825260128152602001807f746f416464726573735f6f766572666c6f77000000000000000000000000000081525060200191505060405180910390fd5b6014820183511015613493576040517f08c379a00000000000000000000000000000000000000000000000000000000081526004018080602001828103825260158152602001807f746f416464726573735f6f75744f66426f756e6473000000000000000000000081525060200191505060405180910390fd5b60006c01000000000000000000000000836020860101510490508091505092915050565b600081600383011015613532576040517f08c379a00000000000000000000000000000000000000000000000000000000081526004018080602001828103825260118152602001807f746f55696e7432345f6f766572666c6f7700000000000000000000000000000081525060200191505060405180910390fd5b60038201835110156135ac576040517f08c379a00000000000000000000000000000000000000000000000000000000081526004018080602001828103825260148152602001807f746f55696e7432345f6f75744f66426f756e647300000000000000000000000081525060200191505060405180910390fd5b60008260038501015190508091505092915050565b604051806040016040528060008152602001600060ff1681525090565b60405180606001604052806135f16136c8565b815260200160008152602001600081525090565b826005601f0160209004810192821561368e5791602002820160005b8382111561365f57835183826101000a81548160ff021916908360ff1602179055509260200192600101602081600001049283019260010302613621565b801561368c5782816101000a81549060ff021916905560010160208160000104928301926001030261365f565b505b50905061369b91906136ea565b5090565b5060009055565b6040518060600160405280600390602082028036833780820191505090505090565b6040518060a00160405280600590602082028036833780820191505090505090565b5b808211156137035760008160009055506001016136eb565b5090565b600061371a61371584614589565b614558565b9050808285602086028201111561373057600080fd5b60005b8581101561376057816137468882613923565b845260208401935060208301925050600181019050613733565b5050509392505050565b600061377d613778846145af565b614558565b90508281526020810184848401111561379557600080fd5b6137a0848285614782565b509392505050565b6000813590506137b7816147d7565b92915050565b6000815190506137cc816147ee565b92915050565b600082601f8301126137e357600080fd5b60056137f0848285613707565b91505092915050565b60008151905061380881614805565b92915050565b600082601f83011261381f57600080fd5b813561382f84826020860161376a565b91505092915050565b600060e0828403121561384a57600080fd5b6138546060614558565b90506000613864848285016137d2565b60008301525060a0613878848285016138e4565b60208301525060c061388c848285016138e4565b60408301525092915050565b6000604082840312156138aa57600080fd5b6138b46040614558565b905060006138c4848285016138e4565b60008301525060206138d884828501613923565b60208301525092915050565b6000813590506138f38161481c565b92915050565b6000815190506139088161481c565b92915050565b60008135905061391d81614833565b92915050565b6000813590506139328161484a565b92915050565b60006020828403121561394a57600080fd5b6000613958848285016137a8565b91505092915050565b60008060006060848603121561397657600080fd5b6000613984868287016137bd565b9350506020613995868287016137bd565b92505060406139a6868287016137bd565b9150509250925092565b6000806000606084860312156139c557600080fd5b60006139d3868287016137a8565b93505060206139e4868287016137a8565b92505060406139f5868287016138e4565b9150509250925092565b60008060408385031215613a1257600080fd5b6000613a20858286016137a8565b9250506020613a31858286016138e4565b9150509250929050565b600080600060608486031215613a5057600080fd5b6000613a5e868287016137a8565b9350506020613a6f868287016138e4565b925050604084013567ffffffffffffffff811115613a8c57600080fd5b613a988682870161380e565b9150509250925092565b600060208284031215613ab457600080fd5b6000613ac2848285016137f9565b91505092915050565b600060208284031215613add57600080fd5b600082013567ffffffffffffffff811115613af757600080fd5b613b038482850161380e565b91505092915050565b60008060008060808587031215613b2257600080fd5b600085013567ffffffffffffffff811115613b3c57600080fd5b613b488782880161380e565b9450506020613b59878288016138e4565b9350506040613b6a878288016138e4565b925050606085013567ffffffffffffffff811115613b8757600080fd5b613b938782880161380e565b91505092959194509250565b600060408284031215613bb157600080fd5b6000613bbf84828501613898565b91505092915050565b600060208284031215613bda57600080fd5b6000613be8848285016138e4565b91505092915050565b600060208284031215613c0357600080fd5b6000613c11848285016138f9565b91505092915050565b600060208284031215613c2c57600080fd5b6000613c3a8482850161390e565b91505092915050565b600060208284031215613c5557600080fd5b6000613c6384828501613923565b91505092915050565b6000806101008385031215613c8057600080fd5b6000613c8e85828601613923565b9250506020613c9f85828601613838565b9150509250929050565b60008060408385031215613cbc57600080fd5b6000613cca85828601613923565b9250506020613cdb858286016138e4565b9150509250929050565b6000613cf1838361415d565b60608301905092915050565b6000613d09838361420a565b60208301905092915050565b613d1e81614716565b82525050565b613d2d8161469f565b82525050565b613d3c8161469f565b82525050565b613d4b81614603565b613d558184614656565b9250613d60826145df565b8060005b83811015613d91578151613d788782613ce5565b9650613d838361462f565b925050600181019050613d64565b505050505050565b613da28161460e565b613dac8184614661565b9250613db7826145e9565b8060005b83811015613de8578151613dcf8782613cfd565b9650613dda8361463c565b925050600181019050613dbb565b505050505050565b6000613dfb82614619565b613e05818561466c565b9350613e10836145f3565b8060005b83811015613e41578151613e288882613cfd565b9750613e3383614649565b925050600181019050613e14565b5085935050505092915050565b613e57816146c3565b82525050565b6000613e6882614624565b613e72818561467d565b9350613e82818560208601614791565b613e8b816147c6565b840191505092915050565b613e9f81614728565b82525050565b6000613eb2600d8361468e565b91507f41646472657373204572726f72000000000000000000000000000000000000006000830152602082019050919050565b6000613ef260148361468e565b91507f496e73756666696369656e742062616c616e63650000000000000000000000006000830152602082019050919050565b6000613f3260188361468e565b91507f4d6f6465207479706520646f6573206e6f7420657869737400000000000000006000830152602082019050919050565b6000613f7260128361468e565b91507f5769746864726177616c204661696c75726500000000000000000000000000006000830152602082019050919050565b6000613fb2600b8361468e565b91507f496e646578204572726f720000000000000000000000000000000000000000006000830152602082019050919050565b6000613ff260158361468e565b91507f5061696420707269636520697320746f6f206c6f7700000000000000000000006000830152602082019050919050565b6000614032601a8361468e565b91507f496e636f727265637420636f6e747261637420616464726573730000000000006000830152602082019050919050565b600061407260178361468e565b91507f496e636f72726563742070726963652073657474696e670000000000000000006000830152602082019050919050565b600060a08301600083015184820360008601526140c28282613e5d565b91505060208301516140d76020860182613d24565b5060408301516140ea60408601826141ce565b5060608301516140fd60608601826141ce565b50608083015161411060808601826141ce565b508091505092915050565b60e0820160008201516141316000850182613d99565b50602082015161414460a08501826141ce565b50604082015161415760c08501826141ce565b50505050565b6060820160008201516141736000850182613d24565b50602082015161418660208501826141ce565b50604082015161419960408501826141ce565b50505050565b6040820160008201516141b560008501826141ce565b5060208201516141c8602085018261420a565b50505050565b6141d7816146ef565b82525050565b6141e6816146ef565b82525050565b6141f5816146f9565b82525050565b61420481614770565b82525050565b61421381614709565b82525050565b61422281614709565b82525050565b600060208201905061423d6000830184613d33565b92915050565b60006040820190506142586000830185613d15565b61426560208301846141dd565b9392505050565b60006040820190506142816000830185613d33565b61428e60208301846141dd565b9392505050565b60006060820190506142aa6000830186613d33565b6142b760208301856141dd565b6142c460408301846141fb565b949350505050565b600060208201905081810360008301526142e68184613df0565b905092915050565b60006020820190506143036000830184613e4e565b92915050565b600060208201905061431e6000830184613e96565b92915050565b6000602082019050818103600083015261433d81613ea5565b9050919050565b6000602082019050818103600083015261435d81613ee5565b9050919050565b6000602082019050818103600083015261437d81613f25565b9050919050565b6000602082019050818103600083015261439d81613f65565b9050919050565b600060208201905081810360008301526143bd81613fa5565b9050919050565b600060208201905081810360008301526143dd81613fe5565b9050919050565b600060208201905081810360008301526143fd81614025565b9050919050565b6000602082019050818103600083015261441d81614065565b9050919050565b6000602082019050818103600083015261443e81846140a5565b905092915050565b600060e08201905061445b600083018461411b565b92915050565b6000604082019050614476600083018461419f565b92915050565b600060208201905061449160008301846141dd565b92915050565b6000610180820190506144ad60008301876141dd565b6144ba6020830186613d33565b6144c760408301856141ec565b6144d46060830184613d42565b95945050505050565b60006060820190506144f260008301866141dd565b6144ff60208301856141dd565b61450c60408301846141dd565b949350505050565b600060408201905061452960008301856141dd565b6145366020830184614219565b9392505050565b600060208201905061455260008301846141ec565b92915050565b6000604051905081810181811067ffffffffffffffff8211171561457f5761457e6147c4565b5b8060405250919050565b600067ffffffffffffffff8211156145a4576145a36147c4565b5b602082029050919050565b600067ffffffffffffffff8211156145ca576145c96147c4565b5b601f19601f8301169050602081019050919050565b6000819050919050565b6000819050919050565b6000819050602082019050919050565b600060039050919050565b600060059050919050565b600081519050919050565b600081519050919050565b6000602082019050919050565b6000602082019050919050565b6000602082019050919050565b600081905092915050565b600081905092915050565b600082825260208201905092915050565b600082825260208201905092915050565b600082825260208201905092915050565b60006146aa826146cf565b9050919050565b60006146bc826146cf565b9050919050565b60008115159050919050565b600073ffffffffffffffffffffffffffffffffffffffff82169050919050565b6000819050919050565b600063ffffffff82169050919050565b600060ff82169050919050565b60006147218261474c565b9050919050565b60006147338261473a565b9050919050565b6000614745826146cf565b9050919050565b60006147578261475e565b9050919050565b6000614769826146cf565b9050919050565b600061477b82614709565b9050919050565b82818337600083830152505050565b60005b838110156147af578082015181840152602081019050614794565b838111156147be576000848401525b50505050565bfe5b6000601f19601f8301169050919050565b6147e08161469f565b81146147eb57600080fd5b50565b6147f7816146b1565b811461480257600080fd5b50565b61480e816146c3565b811461481957600080fd5b50565b614825816146ef565b811461483057600080fd5b50565b61483c816146f9565b811461484757600080fd5b50565b61485381614709565b811461485e57600080fd5b5056fe4f776e61626c653a206e6577206f776e657220697320746865207a65726f2061646472657373a26469706673582212202937088d18e0697fca3289f9bc5861b2828fb777314022084f1a58c7da7d72d064736f6c63430007060033",
  "immutableReferences": {
    "1856": [
      {
        "length": 32,
        "start": 2726
      },
      {
        "length": 32,
        "start": 3330
      },
      {
        "length": 32,
        "start": 4540
      },
      {
        "length": 32,
        "start": 5298
      }
    ]
  },
  "source": "// SPDX-License-Identifier: GPL-2.0-or-later\npragma solidity =0.7.6;\npragma abicoder v2;\n\nimport \"@openzeppelin/contracts/utils/ReentrancyGuard.sol\";\nimport \"@openzeppelin/contracts/access/Ownable.sol\";\nimport \"./ERC223/IERC223.sol\";\nimport \"./ERC223/IERC223Recipient.sol\";\nimport \"./UsersConfig.sol\";\nimport \"./utils/Address.sol\";\nimport \"./LockBalance.sol\";\nimport \"./Uniswap.sol\";\n\ncontract FavorTube is IERC223Recipient, UsersConfig, Ownable, LockBalance, Uniswap, ReentrancyGuard {\n\n    struct PayInfo {\n        address account;\n        uint amount;\n        uint rate;\n    }\n\n    event $subInfo(uint value, address sender, uint32 expire, PayInfo[3] subInfo);\n\n    uint32 public subscribeBlock;\n\n    address public immutable _token;\n\n    constructor(\n        UserConfig memory userConfig,\n        Mode memory mode,\n        uint32 subscribeBlock_,\n        address ERC223Token,\n        uint interval,\n        address router\n    ) UsersConfig(userConfig, mode) LockBalance(interval) Uniswap(router) {\n        require(Address.isContract(ERC223Token));\n        _token = ERC223Token;\n        subscribeBlock = subscribeBlock_;\n    }\n\n    // LockBalance\n    function setPeriodData(uint value) external override onlyOwner {\n        _setPeriodData(value);\n    }\n\n    function exchange() external override nonReentrant {\n\n        uint amount = _exchange(_msgSender());\n\n        require(IERC223(_token).transfer(_msgSender(), amount), \"Withdrawal Failure\");\n    }\n\n    // UsersConfig\n    function setMode(uint8 modeType, Mode memory mode) external override onlyOwner {\n        _setMode(modeType, mode);\n    }\n\n    function removeMode(uint8 modeType, uint index) external override onlyOwner {\n        _removeMode(modeType, index);\n    }\n\n    function setDefaultUserConfig(UserConfig memory userConfig) external override onlyOwner {\n        _setDefaultUserConfig(userConfig);\n    }\n\n    function setUserConfig(UserConfig memory userConfig) external override {\n        _setUserConfig(_msgSender(), userConfig);\n    }\n\n    // FavorTube\n    function tokenReceived(address _sender, uint _value, bytes memory _data) external override {\n        require(_msgSender() == _token, 'Incorrect contract address');\n        _tokenReceived(_sender, _value, _data);\n    }\n\n    function _tokenReceived(address _sender, uint _value, bytes memory _data) internal {\n\n        address channel;\n        address subscriber;\n        address sharer;\n\n        (channel, subscriber, sharer) = decodeCallbackData(_data);\n\n        require(channel != address(0) && subscriber != address(0) && subscriber != sharer, \"Address Error\");\n\n        UserConfig memory config = getUserConfig(channel);\n\n        require(_value >= config.price, \"Paid price is too low\");\n\n        bool isZeroAddress = sharer == address(0);\n\n        uint8[3] memory computedTaxRate = getComputedTaxRate(isZeroAddress, getMode(config.modeType).taxRate);\n\n        uint[3] memory computedAmount = [\n        (computedTaxRate[0] * _value) / 100,\n        (computedTaxRate[1] * _value) / 100,\n        (computedTaxRate[2] * _value) / 100\n        ];\n\n        _lock(channel, computedAmount[0]);\n        _lock(subscriber, computedAmount[1]);\n        if (!isZeroAddress) _lock(sharer, computedAmount[2]);\n\n        uint32 expire = computeExpire(subscribeBlock);\n\n        //        emit $subscribe(channel, subscriber, expire);\n\n        emit $subInfo(\n            _value,\n            _sender,\n            expire,\n            [PayInfo(channel, computedAmount[0], computedTaxRate[0]),\n            PayInfo(subscriber, computedAmount[1], computedTaxRate[1]),\n            PayInfo(sharer, computedAmount[2], computedTaxRate[2])]);\n    }\n\n    function getComputedTaxRate(bool isZeroAddress, uint8[5] memory taxRate) pure internal returns (uint8[3] memory){\n        return [\n        isZeroAddress ? taxRate[0] : taxRate[2],\n        isZeroAddress ? taxRate[1] : taxRate[3],\n        taxRate[4]\n        ];\n    }\n\n    function decodeCallbackData(bytes memory data) internal pure returns (address, address, address) {\n        return abi.decode(data, (address, address, address));\n    }\n\n    function computeExpire(uint32 value) internal view returns (uint32) {\n        uint result = uint(value) + block.number;\n\n        if (result >= uint(type(uint32).max)) {\n            return type(uint32).max;\n        }\n\n        return uint32(result);\n    }\n\n    function setSubscribeBlock(uint32 subscribeBlock_) external onlyOwner {\n        subscribeBlock = subscribeBlock_;\n    }\n\n    function withdrawTax(address account, uint value) external onlyOwner returns (bool success) {\n        return transferToken(_token, account, value);\n    }\n\n    function transferToken(address token, address account, uint value) public onlyOwner returns (bool success){\n        return IERC223(token).transfer(account, value);\n    }\n\n    function swapToken(bytes memory path, uint256 amountInMaximum, uint256 amountOut, bytes memory data) external payable {\n        uint256 deadline = block.timestamp + 15;\n        address recipient = address(this);\n\n        ISwapRouter.ExactOutputParams memory params = ISwapRouter.ExactOutputParams(\n            path,\n            recipient,\n            deadline,\n            amountOut,\n            amountInMaximum\n        );\n        require(msg.value == 0 ? exactTransferToken(params) : ethTransferToken(params));\n        _tokenReceived(_msgSender(), amountOut, data);\n    }\n}\n",
  "sourcePath": "/Users/mac1123/Desktop/contracts/favor-contracts/contracts/FavorTube.sol",
  "compiler": {
    "name": "solc",
    "version": "0.7.6+commit.7338295f.Emscripten.clang"
  },
  "schemaVersion": "3.4.11",
  "updatedAt": "2022-12-19T07:43:32.579Z",
  "networkType": "ethereum",
  "devdoc": {
    "kind": "dev",
    "methods": {
      "owner()": {
        "details": "Returns the address of the current owner."
      },
      "renounceOwnership()": {
        "details": "Leaves the contract without owner. It will not be possible to call `onlyOwner` functions anymore. Can only be called by the current owner. NOTE: Renouncing ownership will leave the contract without an owner, thereby removing any functionality that is only available to the owner."
      },
      "transferOwnership(address)": {
        "details": "Transfers ownership of the contract to a new account (`newOwner`). Can only be called by the current owner."
      }
    },
    "version": 1
  },
  "userdoc": {
    "kind": "user",
    "methods": {},
    "version": 1
  }
}