{
  "contractName": "FavorTube",
  "abi": [
    {
      "inputs": [
        {
          "internalType": "uint8",
          "name": "taxRate",
          "type": "uint8"
        },
        {
          "internalType": "uint256",
          "name": "price",
          "type": "uint256"
        },
        {
          "internalType": "address",
          "name": "ERC223Token",
          "type": "address"
        },
        {
          "internalType": "uint256",
          "name": "interval",
          "type": "uint256"
        }
      ],
      "stateMutability": "nonpayable",
      "type": "constructor"
    },
    {
      "anonymous": false,
      "inputs": [
        {
          "indexed": false,
          "internalType": "address",
          "name": "addr",
          "type": "address"
        },
        {
          "indexed": false,
          "internalType": "uint256",
          "name": "amount",
          "type": "uint256"
        }
      ],
      "name": "$exchange",
      "type": "event"
    },
    {
      "anonymous": false,
      "inputs": [
        {
          "indexed": false,
          "internalType": "address",
          "name": "owner",
          "type": "address"
        },
        {
          "indexed": false,
          "internalType": "address",
          "name": "licensee",
          "type": "address"
        },
        {
          "indexed": false,
          "internalType": "uint32",
          "name": "expire",
          "type": "uint32"
        }
      ],
      "name": "$subscribe",
      "type": "event"
    },
    {
      "anonymous": false,
      "inputs": [
        {
          "indexed": true,
          "internalType": "address",
          "name": "previousOwner",
          "type": "address"
        },
        {
          "indexed": true,
          "internalType": "address",
          "name": "newOwner",
          "type": "address"
        }
      ],
      "name": "OwnershipTransferred",
      "type": "event"
    },
    {
      "inputs": [],
      "name": "exchangeableAmount",
      "outputs": [
        {
          "internalType": "uint256",
          "name": "",
          "type": "uint256"
        }
      ],
      "stateMutability": "view",
      "type": "function",
      "constant": true
    },
    {
      "inputs": [],
      "name": "owner",
      "outputs": [
        {
          "internalType": "address",
          "name": "",
          "type": "address"
        }
      ],
      "stateMutability": "view",
      "type": "function",
      "constant": true
    },
    {
      "inputs": [],
      "name": "periodData",
      "outputs": [
        {
          "internalType": "uint256",
          "name": "startBlockNumber",
          "type": "uint256"
        },
        {
          "internalType": "uint256",
          "name": "periodTime",
          "type": "uint256"
        },
        {
          "internalType": "uint256",
          "name": "periodNumber",
          "type": "uint256"
        }
      ],
      "stateMutability": "view",
      "type": "function",
      "constant": true
    },
    {
      "inputs": [],
      "name": "renounceOwnership",
      "outputs": [],
      "stateMutability": "nonpayable",
      "type": "function"
    },
    {
      "inputs": [],
      "name": "taxRate",
      "outputs": [
        {
          "internalType": "uint8",
          "name": "rate",
          "type": "uint8"
        }
      ],
      "stateMutability": "view",
      "type": "function",
      "constant": true
    },
    {
      "inputs": [],
      "name": "totalTaxes",
      "outputs": [
        {
          "internalType": "uint256",
          "name": "total",
          "type": "uint256"
        }
      ],
      "stateMutability": "view",
      "type": "function",
      "constant": true
    },
    {
      "inputs": [
        {
          "internalType": "address",
          "name": "newOwner",
          "type": "address"
        }
      ],
      "name": "transferOwnership",
      "outputs": [],
      "stateMutability": "nonpayable",
      "type": "function"
    },
    {
      "inputs": [
        {
          "internalType": "uint256",
          "name": "value",
          "type": "uint256"
        }
      ],
      "name": "setPeriodData",
      "outputs": [],
      "stateMutability": "nonpayable",
      "type": "function"
    },
    {
      "inputs": [],
      "name": "exchange",
      "outputs": [],
      "stateMutability": "nonpayable",
      "type": "function"
    },
    {
      "inputs": [
        {
          "internalType": "address",
          "name": "_from",
          "type": "address"
        },
        {
          "internalType": "uint256",
          "name": "_value",
          "type": "uint256"
        },
        {
          "internalType": "bytes",
          "name": "_data",
          "type": "bytes"
        }
      ],
      "name": "tokenReceived",
      "outputs": [],
      "stateMutability": "nonpayable",
      "type": "function"
    },
    {
      "inputs": [
        {
          "internalType": "uint8",
          "name": "newRate",
          "type": "uint8"
        }
      ],
      "name": "setTaxRate",
      "outputs": [
        {
          "internalType": "bool",
          "name": "success",
          "type": "bool"
        }
      ],
      "stateMutability": "nonpayable",
      "type": "function"
    },
    {
      "inputs": [
        {
          "internalType": "address",
          "name": "account",
          "type": "address"
        },
        {
          "internalType": "uint256",
          "name": "value",
          "type": "uint256"
        }
      ],
      "name": "withdrawTax",
      "outputs": [
        {
          "internalType": "bool",
          "name": "success",
          "type": "bool"
        }
      ],
      "stateMutability": "nonpayable",
      "type": "function"
    },
    {
      "inputs": [
        {
          "internalType": "uint256",
          "name": "price",
          "type": "uint256"
        }
      ],
      "name": "setDefaultPrice",
      "outputs": [],
      "stateMutability": "nonpayable",
      "type": "function"
    },
    {
      "inputs": [
        {
          "internalType": "uint256",
          "name": "price",
          "type": "uint256"
        }
      ],
      "name": "setUserPrice",
      "outputs": [],
      "stateMutability": "nonpayable",
      "type": "function"
    },
    {
      "inputs": [],
      "name": "defaultPrice",
      "outputs": [
        {
          "internalType": "uint256",
          "name": "price",
          "type": "uint256"
        }
      ],
      "stateMutability": "view",
      "type": "function",
      "constant": true
    }
  ],
  "bytecode": "0x60806040523480156200001157600080fd5b506040516200226538038062002265833981810160405281019062000037919062000343565b808460008160ff1611801562000050575060648160ff16105b62000092576040517f08c379a0000000000000000000000000000000000000000000000000000000008152600401620000899062000416565b60405180910390fd5b806000806101000a81548160ff021916908360ff16021790555050620000cd620000c16200017f60201b60201c565b6200018760201b60201c565b6040518060600160405280438152602001828152602001600181525060036000820151816000015560208201518160010155604082015181600201559050505062000123826200024d60201b62000bef1760201c565b6200012d57600080fd5b81600860006101000a81548173ffffffffffffffffffffffffffffffffffffffff021916908373ffffffffffffffffffffffffffffffffffffffff160217905550826009819055505050505062000438565b600033905090565b6000600260009054906101000a900473ffffffffffffffffffffffffffffffffffffffff16905081600260006101000a81548173ffffffffffffffffffffffffffffffffffffffff021916908373ffffffffffffffffffffffffffffffffffffffff1602179055508173ffffffffffffffffffffffffffffffffffffffff168173ffffffffffffffffffffffffffffffffffffffff167f8be0079c531659141344cd1fd0a4f28419497f9722a3daafe3b4186f6b6457e060405160405180910390a35050565b600080823b905060008111915050919050565b600080fd5b600060ff82169050919050565b6200027d8162000265565b81146200028957600080fd5b50565b6000815190506200029d8162000272565b92915050565b6000819050919050565b620002b881620002a3565b8114620002c457600080fd5b50565b600081519050620002d881620002ad565b92915050565b600073ffffffffffffffffffffffffffffffffffffffff82169050919050565b60006200030b82620002de565b9050919050565b6200031d81620002fe565b81146200032957600080fd5b50565b6000815190506200033d8162000312565b92915050565b6000806000806080858703121562000360576200035f62000260565b5b600062000370878288016200028c565b94505060206200038387828801620002c7565b935050604062000396878288016200032c565b9250506060620003a987828801620002c7565b91505092959194509250565b600082825260208201905092915050565b7f696e76616c696420746178207261746500000000000000000000000000000000600082015250565b6000620003fe601083620003b5565b91506200040b82620003c6565b602082019050919050565b600060208201905081810360008301526200043181620003ef565b9050919050565b611e1d80620004486000396000f3fe608060405234801561001057600080fd5b50600436106100f55760003560e01c80638943ec0211610097578063d2f7265a11610066578063d2f7265a1461024e578063e0b5db2f14610258578063e69e04b314610276578063f2fde38b14610294576100f5565b80638943ec02146101d85780638da5cb5b146101f4578063afd7802914610212578063b47639a81461022e576100f5565b80636d3c7ec5116100d35780636d3c7ec514610178578063715018a614610194578063771a3a1d1461019e578063774ec644146101bc576100f5565b80631e3eca64146100fa5780632a23c641146101185780636c791e0414610148575b600080fd5b6101026102b0565b60405161010f919061128c565b60405180910390f35b610132600480360381019061012d9190611345565b6102ba565b60405161013f91906113a0565b60405180910390f35b610162600480360381019061015d91906113f4565b610408565b60405161016f91906113a0565b60405180910390f35b610192600480360381019061018d9190611421565b610496565b005b61019c61051c565b005b6101a66105a4565b6040516101b3919061145d565b60405180910390f35b6101d660048036038101906101d19190611421565b6105ba565b005b6101f260048036038101906101ed91906115be565b610608565b005b6101fc610766565b604051610209919061163c565b60405180910390f35b61022c60048036038101906102279190611421565b610790565b005b610236610818565b60405161024593929190611657565b60405180910390f35b610256610830565b005b610260610979565b60405161026d919061128c565b60405180910390f35b61027e610ae1565b60405161028b919061128c565b60405180910390f35b6102ae60048036038101906102a9919061168e565b610af8565b005b6000600154905090565b60006102c4610c02565b73ffffffffffffffffffffffffffffffffffffffff166102e2610766565b73ffffffffffffffffffffffffffffffffffffffff1614610338576040517f08c379a000000000000000000000000000000000000000000000000000000000815260040161032f90611718565b60405180910390fd5b81600154101561034757600080fd5b81600160008282546103599190611767565b92505081905550600860009054906101000a900473ffffffffffffffffffffffffffffffffffffffff1673ffffffffffffffffffffffffffffffffffffffff1663a9059cbb84846040518363ffffffff1660e01b81526004016103bd92919061179b565b6020604051808303816000875af11580156103dc573d6000803e3d6000fd5b505050506040513d601f19601f8201168201806040525081019061040091906117f0565b905092915050565b6000610412610c02565b73ffffffffffffffffffffffffffffffffffffffff16610430610766565b73ffffffffffffffffffffffffffffffffffffffff1614610486576040517f08c379a000000000000000000000000000000000000000000000000000000000815260040161047d90611718565b60405180910390fd5b61048f82610c0a565b9050919050565b61049e610c02565b73ffffffffffffffffffffffffffffffffffffffff166104bc610766565b73ffffffffffffffffffffffffffffffffffffffff1614610512576040517f08c379a000000000000000000000000000000000000000000000000000000000815260040161050990611718565b60405180910390fd5b8060098190555050565b610524610c02565b73ffffffffffffffffffffffffffffffffffffffff16610542610766565b73ffffffffffffffffffffffffffffffffffffffff1614610598576040517f08c379a000000000000000000000000000000000000000000000000000000000815260040161058f90611718565b60405180910390fd5b6105a26000610cba565b565b60008060009054906101000a900460ff16905090565b80600a60006105c7610c02565b73ffffffffffffffffffffffffffffffffffffffff1673ffffffffffffffffffffffffffffffffffffffff1681526020019081526020016000208190555050565b600860009054906101000a900473ffffffffffffffffffffffffffffffffffffffff1673ffffffffffffffffffffffffffffffffffffffff16610649610c02565b73ffffffffffffffffffffffffffffffffffffffff161461069f576040517f08c379a000000000000000000000000000000000000000000000000000000000815260040161069690611869565b60405180910390fd5b6000806106ab83610d80565b80925081935050506106bc82610da0565b8410156106fe576040517f08c379a00000000000000000000000000000000000000000000000000000000081526004016106f5906118d5565b60405180910390fd5b600061070985610dfc565b90506107158382610ec7565b600061072083610ed5565b90507fc3b157ee7a0c96db039cb96afc467f0e52e15dff6f4ee4e954397872c93b02bd84888360405161075593929190611914565b60405180910390a150505050505050565b6000600260009054906101000a900473ffffffffffffffffffffffffffffffffffffffff16905090565b610798610c02565b73ffffffffffffffffffffffffffffffffffffffff166107b6610766565b73ffffffffffffffffffffffffffffffffffffffff161461080c576040517f08c379a000000000000000000000000000000000000000000000000000000000815260040161080390611718565b60405180910390fd5b61081581610f10565b50565b60038060000154908060010154908060020154905083565b600061083a610979565b90506000810361087f576040517f08c379a000000000000000000000000000000000000000000000000000000000815260040161087690611997565b60405180910390fd5b600860009054906101000a900473ffffffffffffffffffffffffffffffffffffffff1673ffffffffffffffffffffffffffffffffffffffff1663a9059cbb6108c5610c02565b836040518363ffffffff1660e01b81526004016108e392919061179b565b6020604051808303816000875af1158015610902573d6000803e3d6000fd5b505050506040513d601f19601f8201168201806040525081019061092691906117f0565b610965576040517f08c379a000000000000000000000000000000000000000000000000000000000815260040161095c90611a03565b60405180910390fd5b610976610970610c02565b82610fe5565b50565b600080610984611078565b90506000600760003373ffffffffffffffffffffffffffffffffffffffff1673ffffffffffffffffffffffffffffffffffffffff1681526020019081526020016000205490506000600660003373ffffffffffffffffffffffffffffffffffffffff1673ffffffffffffffffffffffffffffffffffffffff1681526020019081526020016000206040518060400160405290816000820160405180604001604052908160008201548152602001600182015481525050815260200160028201604051806040016040529081600082015481526020016001820154815250508152505090508060200151600001518303610aa557806000015160200151816020015160200151610a939190611a23565b82610a9e9190611767565b9150610ad8565b6001816020015160000151610aba9190611a23565b8303610ad75780602001516020015182610ad49190611767565b91505b5b81935050505090565b6000610af3610aee610c02565b610da0565b905090565b610b00610c02565b73ffffffffffffffffffffffffffffffffffffffff16610b1e610766565b73ffffffffffffffffffffffffffffffffffffffff1614610b74576040517f08c379a0000000000000000000000000000000000000000000000000000000008152600401610b6b90611718565b60405180910390fd5b600073ffffffffffffffffffffffffffffffffffffffff168173ffffffffffffffffffffffffffffffffffffffff1603610be3576040517f08c379a0000000000000000000000000000000000000000000000000000000008152600401610bda90611aeb565b60405180910390fd5b610bec81610cba565b50565b600080823b905060008111915050919050565b600033905090565b6000808260ff1611610c51576040517f08c379a0000000000000000000000000000000000000000000000000000000008152600401610c4890611b57565b60405180910390fd5b60648260ff1610610c97576040517f08c379a0000000000000000000000000000000000000000000000000000000008152600401610c8e90611bc3565b60405180910390fd5b816000806101000a81548160ff021916908360ff16021790555060019050919050565b6000600260009054906101000a900473ffffffffffffffffffffffffffffffffffffffff16905081600260006101000a81548173ffffffffffffffffffffffffffffffffffffffff021916908373ffffffffffffffffffffffffffffffffffffffff1602179055508173ffffffffffffffffffffffffffffffffffffffff168173ffffffffffffffffffffffffffffffffffffffff167f8be0079c531659141344cd1fd0a4f28419497f9722a3daafe3b4186f6b6457e060405160405180910390a35050565b60008082806020019051810190610d979190611c4d565b91509150915091565b6000600a60008373ffffffffffffffffffffffffffffffffffffffff1673ffffffffffffffffffffffffffffffffffffffff16815260200190815260200160002054905060008103610df6576009549050610df7565b5b919050565b60008060648360008054906101000a900460ff1660ff16610e1d9190611c8d565b610e279190611d16565b90506000606460008054906101000a900460ff166064610e479190611d47565b60ff1685610e559190611c8d565b610e5f9190611d16565b905060008111610ea4576040517f08c379a0000000000000000000000000000000000000000000000000000000008152600401610e9b90611dc7565b60405180910390fd5b8160016000828254610eb69190611a23565b925050819055508092505050919050565b610ed18282611102565b5050565b600080438363ffffffff16610eea9190611a23565b905063ffffffff80168110610f065763ffffffff915050610f0b565b809150505b919050565b6003600001544311610f2b5780600360010181905550610fe2565b6000600360010154600160036001015460036000015443610f4c9190611767565b610f569190611a23565b610f609190611767565b610f6a9190611d16565b9050600060036001015482610f7f9190611c8d565b600360000154610f8f9190611a23565b9050604051806060016040528082815260200184815260200160036002015484610fb99190611a23565b815250600360008201518160000155602082015181600101556040820151816002015590505050505b50565b80600760008473ffffffffffffffffffffffffffffffffffffffff1673ffffffffffffffffffffffffffffffffffffffff16815260200190815260200160002060008282546110349190611767565b925050819055507f0aa36af98793b49f134f1c56f26ee1a235db0a9c879f8d310b016c0117e8d420828260405161106c92919061179b565b60405180910390a15050565b6000806003600001544310156110a157600160036002015461109a9190611767565b90506110fb565b60036000015443036110ba5760036002015490506110fa565b6003600201546003600101546001600360000154436110d99190611767565b6110e39190611767565b6110ed9190611d16565b6110f79190611a23565b90505b5b8091505090565b600061110c611078565b90506000600660008573ffffffffffffffffffffffffffffffffffffffff1673ffffffffffffffffffffffffffffffffffffffff16815260200190815260200160002090508181600201600001540361118257828160020160010160008282546111769190611a23565b92505081905550611217565b81600182600201600001546111979190611a23565b036111c057806002018160000160008201548160000155600182015481600101559050506111fe565b60405180604001604052806001846111d89190611767565b815260200160008152508160000160008201518160000155602082015181600101559050505b8181600201600001819055508281600201600101819055505b82600760008673ffffffffffffffffffffffffffffffffffffffff1673ffffffffffffffffffffffffffffffffffffffff16815260200190815260200160002060008282546112669190611a23565b9250508190555050505050565b6000819050919050565b61128681611273565b82525050565b60006020820190506112a1600083018461127d565b92915050565b6000604051905090565b600080fd5b600080fd5b600073ffffffffffffffffffffffffffffffffffffffff82169050919050565b60006112e6826112bb565b9050919050565b6112f6816112db565b811461130157600080fd5b50565b600081359050611313816112ed565b92915050565b61132281611273565b811461132d57600080fd5b50565b60008135905061133f81611319565b92915050565b6000806040838503121561135c5761135b6112b1565b5b600061136a85828601611304565b925050602061137b85828601611330565b9150509250929050565b60008115159050919050565b61139a81611385565b82525050565b60006020820190506113b56000830184611391565b92915050565b600060ff82169050919050565b6113d1816113bb565b81146113dc57600080fd5b50565b6000813590506113ee816113c8565b92915050565b60006020828403121561140a576114096112b1565b5b6000611418848285016113df565b91505092915050565b600060208284031215611437576114366112b1565b5b600061144584828501611330565b91505092915050565b611457816113bb565b82525050565b6000602082019050611472600083018461144e565b92915050565b600080fd5b600080fd5b6000601f19601f8301169050919050565b7f4e487b7100000000000000000000000000000000000000000000000000000000600052604160045260246000fd5b6114cb82611482565b810181811067ffffffffffffffff821117156114ea576114e9611493565b5b80604052505050565b60006114fd6112a7565b905061150982826114c2565b919050565b600067ffffffffffffffff82111561152957611528611493565b5b61153282611482565b9050602081019050919050565b82818337600083830152505050565b600061156161155c8461150e565b6114f3565b90508281526020810184848401111561157d5761157c61147d565b5b61158884828561153f565b509392505050565b600082601f8301126115a5576115a4611478565b5b81356115b584826020860161154e565b91505092915050565b6000806000606084860312156115d7576115d66112b1565b5b60006115e586828701611304565b93505060206115f686828701611330565b925050604084013567ffffffffffffffff811115611617576116166112b6565b5b61162386828701611590565b9150509250925092565b611636816112db565b82525050565b6000602082019050611651600083018461162d565b92915050565b600060608201905061166c600083018661127d565b611679602083018561127d565b611686604083018461127d565b949350505050565b6000602082840312156116a4576116a36112b1565b5b60006116b284828501611304565b91505092915050565b600082825260208201905092915050565b7f4f776e61626c653a2063616c6c6572206973206e6f7420746865206f776e6572600082015250565b60006117026020836116bb565b915061170d826116cc565b602082019050919050565b60006020820190508181036000830152611731816116f5565b9050919050565b7f4e487b7100000000000000000000000000000000000000000000000000000000600052601160045260246000fd5b600061177282611273565b915061177d83611273565b9250828210156117905761178f611738565b5b828203905092915050565b60006040820190506117b0600083018561162d565b6117bd602083018461127d565b9392505050565b6117cd81611385565b81146117d857600080fd5b50565b6000815190506117ea816117c4565b92915050565b600060208284031215611806576118056112b1565b5b6000611814848285016117db565b91505092915050565b7f496e636f727265637420636f6e74726163742061646472657373000000000000600082015250565b6000611853601a836116bb565b915061185e8261181d565b602082019050919050565b6000602082019050818103600083015261188281611846565b9050919050565b7f7061696420707269636520697320746f6f206c6f770000000000000000000000600082015250565b60006118bf6015836116bb565b91506118ca82611889565b602082019050919050565b600060208201905081810360008301526118ee816118b2565b9050919050565b600063ffffffff82169050919050565b61190e816118f5565b82525050565b6000606082019050611929600083018661162d565b611936602083018561162d565b6119436040830184611905565b949350505050565b7f496e73756666696369656e742062616c616e6365000000000000000000000000600082015250565b60006119816014836116bb565b915061198c8261194b565b602082019050919050565b600060208201905081810360008301526119b081611974565b9050919050565b7f5769746864726177616c204661696c7572650000000000000000000000000000600082015250565b60006119ed6012836116bb565b91506119f8826119b7565b602082019050919050565b60006020820190508181036000830152611a1c816119e0565b9050919050565b6000611a2e82611273565b9150611a3983611273565b9250827fffffffffffffffffffffffffffffffffffffffffffffffffffffffffffffffff03821115611a6e57611a6d611738565b5b828201905092915050565b7f4f776e61626c653a206e6577206f776e657220697320746865207a65726f206160008201527f6464726573730000000000000000000000000000000000000000000000000000602082015250565b6000611ad56026836116bb565b9150611ae082611a79565b604082019050919050565b60006020820190508181036000830152611b0481611ac8565b9050919050565b7f7461782072617465206d757374206c6172676572207468616e207a65726f0000600082015250565b6000611b41601e836116bb565b9150611b4c82611b0b565b602082019050919050565b60006020820190508181036000830152611b7081611b34565b9050919050565b7f7461782072617465206d757374206c657373207468616e203130300000000000600082015250565b6000611bad601b836116bb565b9150611bb882611b77565b602082019050919050565b60006020820190508181036000830152611bdc81611ba0565b9050919050565b6000611bee826112bb565b9050919050565b611bfe81611be3565b8114611c0957600080fd5b50565b600081519050611c1b81611bf5565b92915050565b611c2a816118f5565b8114611c3557600080fd5b50565b600081519050611c4781611c21565b92915050565b60008060408385031215611c6457611c636112b1565b5b6000611c7285828601611c0c565b9250506020611c8385828601611c38565b9150509250929050565b6000611c9882611273565b9150611ca383611273565b9250817fffffffffffffffffffffffffffffffffffffffffffffffffffffffffffffffff0483118215151615611cdc57611cdb611738565b5b828202905092915050565b7f4e487b7100000000000000000000000000000000000000000000000000000000600052601260045260246000fd5b6000611d2182611273565b9150611d2c83611273565b925082611d3c57611d3b611ce7565b5b828204905092915050565b6000611d52826113bb565b9150611d5d836113bb565b925082821015611d7057611d6f611738565b5b828203905092915050565b7f76616c7565206c657373207468656e207a65726f206166746572207461786564600082015250565b6000611db16020836116bb565b9150611dbc82611d7b565b602082019050919050565b60006020820190508181036000830152611de081611da4565b905091905056fea2646970667358221220d8f147e8489460800ce03c6c54971d0a73de5a17b0ed51a07c22dd761bd9657b64736f6c634300080d0033",
  "immutableReferences": {},
  "source": "// SPDX-License-Identifier: MIT\npragma solidity ^0.8.0;\n\nimport \"@openzeppelin/contracts/access/Ownable.sol\";\nimport \"./ERC223/IERC223.sol\";\nimport \"./ERC223/IERC223Recipient.sol\";\nimport \"./TokenTax.sol\";\nimport \"./utils/Address.sol\";\nimport \"./LockBalance.sol\";\n\ncontract FavorTube is IERC223Recipient, TokenTax, Ownable, LockBalance {\n\n    event $subscribe(address owner, address licensee, uint32 expire);\n\n    address private _token;\n\n    uint256 private _defaultPrice;\n\n    mapping(address => uint256) private _defaultUserPrice;\n\n    constructor(uint8 taxRate, uint256 price, address ERC223Token, uint interval) TokenTax(taxRate) LockBalance(interval) {\n        require(Address.isContract(ERC223Token));\n        _token = ERC223Token;\n\n        _defaultPrice = price;\n    }\n\n    //    -------------------------\n    function lock(address addr, uint amount) internal override {\n        _lock(addr, amount);\n    }\n\n    function setPeriodData(uint value) external override onlyOwner {\n        _setPeriodData(value);\n    }\n\n    function exchange() external override {\n        uint amount = super.exchangeableAmount();\n        require(amount != 0, \"Insufficient balance\");\n        require(IERC223(_token).transfer(_msgSender(), amount), \"Withdrawal Failure\");\n        _exchange(_msgSender(), amount);\n    }\n\n    //    -------------------------\n\n    function defaultPrice() public view returns (uint256 price) {\n        return defaultPrice(_msgSender());\n    }\n\n    function tokenReceived(address _from, uint _value, bytes memory _data) public override {\n\n        require(_msgSender() == _token, 'Incorrect contract address');\n\n        address owner;\n        uint32 interval;\n\n        (owner, interval) = decodeCallbackData(_data);\n\n        if (_value < defaultPrice(owner))\n            revert(\"paid price is too low\");\n\n        uint remainValue = payTax(_value);\n\n        lock(owner, remainValue);\n\n        uint32 expire = computeExpire(interval);\n\n        emit $subscribe(owner, _from, expire);\n    }\n\n    function setTaxRate(uint8 newRate) public override onlyOwner returns (bool success) {\n        return super.setTaxRate(newRate);\n    }\n\n    function withdrawTax(address account, uint value) public override onlyOwner returns (bool success) {\n        require(_totalTaxes >= value);\n\n        _totalTaxes -= value;\n\n        return IERC223(_token).transfer(account, value);\n    }\n\n    function setDefaultPrice(uint256 price) public onlyOwner {\n        _defaultPrice = price;\n    }\n\n    function setUserPrice(uint256 price) public {\n        _defaultUserPrice[_msgSender()] = price;\n    }\n\n    function decodeCallbackData(bytes memory data) internal pure returns (\n        address _owner,\n        uint32 _blocks\n    ) {\n        return abi.decode(data, (address, uint32));\n    }\n\n    function defaultPrice(address account) internal view returns (uint256 price) {\n        price = _defaultUserPrice[account];\n\n        if (price == 0)\n            return _defaultPrice;\n\n        return price;\n    }\n\n    function computeExpire(uint32 value) internal view returns (uint32) {\n        uint result = uint(value) + block.number;\n\n        if (result >= uint(type(uint32).max)) {\n            return type(uint32).max;\n        }\n\n        return uint32(result);\n    }\n\n    function payTax(uint value) internal override returns (uint taxed) {\n        uint taxes = (_taxRate * value) / 100;\n        uint remain = (value * (100 - _taxRate)) / 100;\n\n        require(remain > 0, \"value less then zero after taxed\");\n\n        _totalTaxes += taxes;\n\n        return remain;\n    }\n}\n",
  "sourcePath": "/home/lzy/Project/contracts/favor-contracts/contracts/FavorTube.sol",
  "compiler": {
    "name": "solc",
    "version": "0.8.13+commit.abaa5c0e.Emscripten.clang"
  },
  "schemaVersion": "3.4.3",
  "updatedAt": "2022-06-17T06:02:41.526Z",
  "networkType": "ethereum",
  "devdoc": {
    "kind": "dev",
    "methods": {
      "owner()": {
        "details": "Returns the address of the current owner."
      },
      "renounceOwnership()": {
        "details": "Leaves the contract without owner. It will not be possible to call `onlyOwner` functions anymore. Can only be called by the current owner. NOTE: Renouncing ownership will leave the contract without an owner, thereby removing any functionality that is only available to the owner."
      },
      "tokenReceived(address,uint256,bytes)": {
        "details": "Standard ERC223 function that will handle incoming token transfers.",
        "params": {
          "_data": "Transaction metadata.",
          "_from": "Token sender address.",
          "_value": "Amount of tokens."
        }
      },
      "transferOwnership(address)": {
        "details": "Transfers ownership of the contract to a new account (`newOwner`). Can only be called by the current owner."
      }
    },
    "version": 1
  },
  "userdoc": {
    "kind": "user",
    "methods": {},
    "version": 1
  }
}