{
  "contractName": "FavorToken",
  "abi": [
    {
      "inputs": [
        {
          "internalType": "uint256",
          "name": "amount",
          "type": "uint256"
        }
      ],
      "stateMutability": "nonpayable",
      "type": "constructor"
    },
    {
      "anonymous": false,
      "inputs": [
        {
          "indexed": true,
          "internalType": "address",
          "name": "owner",
          "type": "address"
        },
        {
          "indexed": true,
          "internalType": "address",
          "name": "spender",
          "type": "address"
        },
        {
          "indexed": false,
          "internalType": "uint256",
          "name": "value",
          "type": "uint256"
        }
      ],
      "name": "Approval",
      "type": "event"
    },
    {
      "anonymous": false,
      "inputs": [
        {
          "indexed": true,
          "internalType": "address",
          "name": "previousOwner",
          "type": "address"
        },
        {
          "indexed": true,
          "internalType": "address",
          "name": "newOwner",
          "type": "address"
        }
      ],
      "name": "OwnershipTransferred",
      "type": "event"
    },
    {
      "anonymous": false,
      "inputs": [
        {
          "indexed": true,
          "internalType": "address",
          "name": "from",
          "type": "address"
        },
        {
          "indexed": true,
          "internalType": "address",
          "name": "to",
          "type": "address"
        },
        {
          "indexed": false,
          "internalType": "uint256",
          "name": "value",
          "type": "uint256"
        }
      ],
      "name": "Transfer",
      "type": "event"
    },
    {
      "inputs": [
        {
          "internalType": "address",
          "name": "owner",
          "type": "address"
        },
        {
          "internalType": "address",
          "name": "spender",
          "type": "address"
        }
      ],
      "name": "allowance",
      "outputs": [
        {
          "internalType": "uint256",
          "name": "",
          "type": "uint256"
        }
      ],
      "stateMutability": "view",
      "type": "function",
      "constant": true
    },
    {
      "inputs": [
        {
          "internalType": "address",
          "name": "spender",
          "type": "address"
        },
        {
          "internalType": "uint256",
          "name": "amount",
          "type": "uint256"
        }
      ],
      "name": "approve",
      "outputs": [
        {
          "internalType": "bool",
          "name": "",
          "type": "bool"
        }
      ],
      "stateMutability": "nonpayable",
      "type": "function"
    },
    {
      "inputs": [
        {
          "internalType": "address",
          "name": "spender",
          "type": "address"
        },
        {
          "internalType": "uint256",
          "name": "subtractedValue",
          "type": "uint256"
        }
      ],
      "name": "decreaseAllowance",
      "outputs": [
        {
          "internalType": "bool",
          "name": "",
          "type": "bool"
        }
      ],
      "stateMutability": "nonpayable",
      "type": "function"
    },
    {
      "inputs": [],
      "name": "defaultAmount",
      "outputs": [
        {
          "internalType": "uint256",
          "name": "",
          "type": "uint256"
        }
      ],
      "stateMutability": "view",
      "type": "function",
      "constant": true
    },
    {
      "inputs": [
        {
          "internalType": "address",
          "name": "spender",
          "type": "address"
        },
        {
          "internalType": "uint256",
          "name": "addedValue",
          "type": "uint256"
        }
      ],
      "name": "increaseAllowance",
      "outputs": [
        {
          "internalType": "bool",
          "name": "",
          "type": "bool"
        }
      ],
      "stateMutability": "nonpayable",
      "type": "function"
    },
    {
      "inputs": [],
      "name": "name",
      "outputs": [
        {
          "internalType": "string",
          "name": "",
          "type": "string"
        }
      ],
      "stateMutability": "view",
      "type": "function",
      "constant": true
    },
    {
      "inputs": [],
      "name": "owner",
      "outputs": [
        {
          "internalType": "address",
          "name": "",
          "type": "address"
        }
      ],
      "stateMutability": "view",
      "type": "function",
      "constant": true
    },
    {
      "inputs": [],
      "name": "renounceOwnership",
      "outputs": [],
      "stateMutability": "nonpayable",
      "type": "function"
    },
    {
      "inputs": [],
      "name": "symbol",
      "outputs": [
        {
          "internalType": "string",
          "name": "",
          "type": "string"
        }
      ],
      "stateMutability": "view",
      "type": "function",
      "constant": true
    },
    {
      "inputs": [],
      "name": "totalSupply",
      "outputs": [
        {
          "internalType": "uint256",
          "name": "",
          "type": "uint256"
        }
      ],
      "stateMutability": "view",
      "type": "function",
      "constant": true
    },
    {
      "inputs": [
        {
          "internalType": "address",
          "name": "from",
          "type": "address"
        },
        {
          "internalType": "address",
          "name": "to",
          "type": "address"
        },
        {
          "internalType": "uint256",
          "name": "amount",
          "type": "uint256"
        }
      ],
      "name": "transferFrom",
      "outputs": [
        {
          "internalType": "bool",
          "name": "",
          "type": "bool"
        }
      ],
      "stateMutability": "nonpayable",
      "type": "function"
    },
    {
      "inputs": [
        {
          "internalType": "address",
          "name": "newOwner",
          "type": "address"
        }
      ],
      "name": "transferOwnership",
      "outputs": [],
      "stateMutability": "nonpayable",
      "type": "function"
    },
    {
      "inputs": [
        {
          "internalType": "uint256",
          "name": "amount",
          "type": "uint256"
        }
      ],
      "name": "setDefaultAmount",
      "outputs": [],
      "stateMutability": "nonpayable",
      "type": "function"
    },
    {
      "inputs": [],
      "name": "decimals",
      "outputs": [
        {
          "internalType": "uint8",
          "name": "",
          "type": "uint8"
        }
      ],
      "stateMutability": "pure",
      "type": "function",
      "constant": true
    },
    {
      "inputs": [
        {
          "internalType": "address",
          "name": "account",
          "type": "address"
        }
      ],
      "name": "balanceOf",
      "outputs": [
        {
          "internalType": "uint256",
          "name": "",
          "type": "uint256"
        }
      ],
      "stateMutability": "view",
      "type": "function",
      "constant": true
    },
    {
      "inputs": [
        {
          "internalType": "address",
          "name": "to",
          "type": "address"
        },
        {
          "internalType": "uint256",
          "name": "amount",
          "type": "uint256"
        }
      ],
      "name": "transfer",
      "outputs": [
        {
          "internalType": "bool",
          "name": "",
          "type": "bool"
        }
      ],
      "stateMutability": "nonpayable",
      "type": "function"
    },
    {
      "inputs": [
        {
          "internalType": "address",
          "name": "to",
          "type": "address"
        },
        {
          "internalType": "uint256",
          "name": "amount",
          "type": "uint256"
        },
        {
          "internalType": "bytes",
          "name": "data",
          "type": "bytes"
        }
      ],
      "name": "transfer",
      "outputs": [
        {
          "internalType": "bool",
          "name": "",
          "type": "bool"
        }
      ],
      "stateMutability": "nonpayable",
      "type": "function"
    }
  ],
  "bytecode": "0x60806040523480156200001157600080fd5b506040516200231d3803806200231d833981810160405281019062000037919062000394565b6040518060400160405280600b81526020017f4661766f7220546f6b656e0000000000000000000000000000000000000000008152506040518060400160405280600581526020017f465455424500000000000000000000000000000000000000000000000000000081525081818160039080519060200190620000bd929190620002a4565b508060049080519060200190620000d6929190620002a4565b5050505050620000fb620000ef6200011360201b60201c565b6200011b60201b60201c565b6200010c81620001e160201b60201c565b50620004ad565b600033905090565b6000600560009054906101000a900473ffffffffffffffffffffffffffffffffffffffff16905081600560006101000a81548173ffffffffffffffffffffffffffffffffffffffff021916908373ffffffffffffffffffffffffffffffffffffffff1602179055508173ffffffffffffffffffffffffffffffffffffffff168173ffffffffffffffffffffffffffffffffffffffff167f8be0079c531659141344cd1fd0a4f28419497f9722a3daafe3b4186f6b6457e060405160405180910390a35050565b620001f16200011360201b60201c565b73ffffffffffffffffffffffffffffffffffffffff16620002176200027a60201b60201c565b73ffffffffffffffffffffffffffffffffffffffff161462000270576040517f08c379a0000000000000000000000000000000000000000000000000000000008152600401620002679062000427565b60405180910390fd5b8060068190555050565b6000600560009054906101000a900473ffffffffffffffffffffffffffffffffffffffff16905090565b828054620002b29062000478565b90600052602060002090601f016020900481019282620002d6576000855562000322565b82601f10620002f157805160ff191683800117855562000322565b8280016001018555821562000322579182015b828111156200032157825182559160200191906001019062000304565b5b50905062000331919062000335565b5090565b5b808211156200035057600081600090555060010162000336565b5090565b600080fd5b6000819050919050565b6200036e8162000359565b81146200037a57600080fd5b50565b6000815190506200038e8162000363565b92915050565b600060208284031215620003ad57620003ac62000354565b5b6000620003bd848285016200037d565b91505092915050565b600082825260208201905092915050565b7f4f776e61626c653a2063616c6c6572206973206e6f7420746865206f776e6572600082015250565b60006200040f602083620003c6565b91506200041c82620003d7565b602082019050919050565b60006020820190508181036000830152620004428162000400565b9050919050565b7f4e487b7100000000000000000000000000000000000000000000000000000000600052602260045260246000fd5b600060028204905060018216806200049157607f821691505b602082108103620004a757620004a662000449565b5b50919050565b611e6080620004bd6000396000f3fe608060405234801561001057600080fd5b506004361061010b5760003560e01c80637a4102b8116100a2578063a9059cbb11610071578063a9059cbb146102bc578063be45fd62146102ec578063dd62ed3e1461031c578063f2fde38b1461034c578063fc27ea83146103685761010b565b80637a4102b8146102345780638da5cb5b1461025057806395d89b411461026e578063a457c2d71461028c5761010b565b8063313ce567116100de578063313ce567146101ac57806339509351146101ca57806370a08231146101fa578063715018a61461022a5761010b565b806306fdde0314610110578063095ea7b31461012e57806318160ddd1461015e57806323b872dd1461017c575b600080fd5b610118610386565b6040516101259190611384565b60405180910390f35b61014860048036038101906101439190611444565b610418565b604051610155919061149f565b60405180910390f35b61016661043b565b60405161017391906114c9565b60405180910390f35b610196600480360381019061019191906114e4565b610445565b6040516101a3919061149f565b60405180910390f35b6101b4610474565b6040516101c19190611553565b60405180910390f35b6101e460048036038101906101df9190611444565b61047d565b6040516101f1919061149f565b60405180910390f35b610214600480360381019061020f919061156e565b6104b4565b60405161022191906114c9565b60405180910390f35b6102326104c8565b005b61024e6004803603810190610249919061159b565b610550565b005b6102586105d6565b60405161026591906115d7565b60405180910390f35b610276610600565b6040516102839190611384565b60405180910390f35b6102a660048036038101906102a19190611444565b610692565b6040516102b3919061149f565b60405180910390f35b6102d660048036038101906102d19190611444565b610709565b6040516102e3919061149f565b60405180910390f35b61030660048036038101906103019190611657565b61072c565b604051610313919061149f565b60405180910390f35b610336600480360381019061033191906116cb565b61082c565b60405161034391906114c9565b60405180910390f35b6103666004803603810190610361919061156e565b6108b3565b005b6103706109aa565b60405161037d91906114c9565b60405180910390f35b6060600380546103959061173a565b80601f01602080910402602001604051908101604052809291908181526020018280546103c19061173a565b801561040e5780601f106103e35761010080835404028352916020019161040e565b820191906000526020600020905b8154815290600101906020018083116103f157829003601f168201915b5050505050905090565b6000806104236109b0565b90506104308185856109b8565b600191505092915050565b6000600254905090565b6000806104506109b0565b905061045d858285610b81565b610468858585610c0d565b60019150509392505050565b60006002905090565b6000806104886109b0565b90506104a981858561049a858961082c565b6104a4919061179a565b6109b8565b600191505092915050565b60006104c1826001610e8c565b9050919050565b6104d06109b0565b73ffffffffffffffffffffffffffffffffffffffff166104ee6105d6565b73ffffffffffffffffffffffffffffffffffffffff1614610544576040517f08c379a000000000000000000000000000000000000000000000000000000000815260040161053b9061183c565b60405180910390fd5b61054e6000610ec7565b565b6105586109b0565b73ffffffffffffffffffffffffffffffffffffffff166105766105d6565b73ffffffffffffffffffffffffffffffffffffffff16146105cc576040517f08c379a00000000000000000000000000000000000000000000000000000000081526004016105c39061183c565b60405180910390fd5b8060068190555050565b6000600560009054906101000a900473ffffffffffffffffffffffffffffffffffffffff16905090565b60606004805461060f9061173a565b80601f016020809104026020016040519081016040528092919081815260200182805461063b9061173a565b80156106885780601f1061065d57610100808354040283529160200191610688565b820191906000526020600020905b81548152906001019060200180831161066b57829003601f168201915b5050505050905090565b60008061069d6109b0565b905060006106ab828661082c565b9050838110156106f0576040517f08c379a00000000000000000000000000000000000000000000000000000000081526004016106e7906118ce565b60405180910390fd5b6106fd82868684036109b8565b60019250505092915050565b6000806107146109b0565b9050610721818585610c0d565b600191505092915050565b6000806107376109b0565b9050600061078885858080601f016020809104026020016040519081016040528093929190818152602001838380828437600081840152601f19601f82011690508083019250505050505050610f8d565b905061079381610faa565b61079e828888610c0d565b6107a787611008565b1561081e578673ffffffffffffffffffffffffffffffffffffffff16638943ec02838888886040518563ffffffff1660e01b81526004016107eb949392919061193b565b600060405180830381600087803b15801561080557600080fd5b505af1158015610819573d6000803e3d6000fd5b505050505b600192505050949350505050565b6000600160008473ffffffffffffffffffffffffffffffffffffffff1673ffffffffffffffffffffffffffffffffffffffff16815260200190815260200160002060008373ffffffffffffffffffffffffffffffffffffffff1673ffffffffffffffffffffffffffffffffffffffff16815260200190815260200160002054905092915050565b6108bb6109b0565b73ffffffffffffffffffffffffffffffffffffffff166108d96105d6565b73ffffffffffffffffffffffffffffffffffffffff161461092f576040517f08c379a00000000000000000000000000000000000000000000000000000000081526004016109269061183c565b60405180910390fd5b600073ffffffffffffffffffffffffffffffffffffffff168173ffffffffffffffffffffffffffffffffffffffff160361099e576040517f08c379a0000000000000000000000000000000000000000000000000000000008152600401610995906119ed565b60405180910390fd5b6109a781610ec7565b50565b60065481565b600033905090565b600073ffffffffffffffffffffffffffffffffffffffff168373ffffffffffffffffffffffffffffffffffffffff1603610a27576040517f08c379a0000000000000000000000000000000000000000000000000000000008152600401610a1e90611a7f565b60405180910390fd5b600073ffffffffffffffffffffffffffffffffffffffff168273ffffffffffffffffffffffffffffffffffffffff1603610a96576040517f08c379a0000000000000000000000000000000000000000000000000000000008152600401610a8d90611b11565b60405180910390fd5b80600160008573ffffffffffffffffffffffffffffffffffffffff1673ffffffffffffffffffffffffffffffffffffffff16815260200190815260200160002060008473ffffffffffffffffffffffffffffffffffffffff1673ffffffffffffffffffffffffffffffffffffffff168152602001908152602001600020819055508173ffffffffffffffffffffffffffffffffffffffff168373ffffffffffffffffffffffffffffffffffffffff167f8c5be1e5ebec7d5bd14f71427d1e84f3dd0314c0f7b2291e5b200ac8c7c3b92583604051610b7491906114c9565b60405180910390a3505050565b6000610b8d848461082c565b90507fffffffffffffffffffffffffffffffffffffffffffffffffffffffffffffffff8114610c075781811015610bf9576040517f08c379a0000000000000000000000000000000000000000000000000000000008152600401610bf090611b7d565b60405180910390fd5b610c0684848484036109b8565b5b50505050565b600073ffffffffffffffffffffffffffffffffffffffff168373ffffffffffffffffffffffffffffffffffffffff1603610c7c576040517f08c379a0000000000000000000000000000000000000000000000000000000008152600401610c7390611c0f565b60405180910390fd5b600073ffffffffffffffffffffffffffffffffffffffff168273ffffffffffffffffffffffffffffffffffffffff1603610ceb576040517f08c379a0000000000000000000000000000000000000000000000000000000008152600401610ce290611ca1565b60405180910390fd5b610cf683838361101b565b60008060008573ffffffffffffffffffffffffffffffffffffffff1673ffffffffffffffffffffffffffffffffffffffff16815260200190815260200160002054905081811015610d7c576040517f08c379a0000000000000000000000000000000000000000000000000000000008152600401610d7390611d33565b60405180910390fd5b8181036000808673ffffffffffffffffffffffffffffffffffffffff1673ffffffffffffffffffffffffffffffffffffffff16815260200190815260200160002081905550816000808573ffffffffffffffffffffffffffffffffffffffff1673ffffffffffffffffffffffffffffffffffffffff1681526020019081526020016000206000828254610e0f919061179a565b925050819055508273ffffffffffffffffffffffffffffffffffffffff168473ffffffffffffffffffffffffffffffffffffffff167fddf252ad1be2c89b69c2b068fc378daa952ba7f163c4a11628f55a4df523b3ef84604051610e7391906114c9565b60405180910390a3610e868484846110b0565b50505050565b600081610ea357610e9c83611144565b9050610ec1565b610eac83611144565b905060008103610ec0576006549050610ec1565b5b92915050565b6000600560009054906101000a900473ffffffffffffffffffffffffffffffffffffffff16905081600560006101000a81548173ffffffffffffffffffffffffffffffffffffffff021916908373ffffffffffffffffffffffffffffffffffffffff1602179055508173ffffffffffffffffffffffffffffffffffffffff168173ffffffffffffffffffffffffffffffffffffffff167f8be0079c531659141344cd1fd0a4f28419497f9722a3daafe3b4186f6b6457e060405160405180910390a35050565b600081806020019051810190610fa39190611d91565b9050919050565b600073ffffffffffffffffffffffffffffffffffffffff168173ffffffffffffffffffffffffffffffffffffffff160315611005576000610fec826000610e8c565b905060008103611003576110028260065461118c565b5b505b50565b600080823b905060008111915050919050565b600073ffffffffffffffffffffffffffffffffffffffff168373ffffffffffffffffffffffffffffffffffffffff1603156110ab57600073ffffffffffffffffffffffffffffffffffffffff168273ffffffffffffffffffffffffffffffffffffffff1603156110ab576000611092846000610e8c565b9050600081036110a9576110a88460065461118c565b5b505b505050565b600073ffffffffffffffffffffffffffffffffffffffff168373ffffffffffffffffffffffffffffffffffffffff16031561113f57600073ffffffffffffffffffffffffffffffffffffffff168273ffffffffffffffffffffffffffffffffffffffff16031561113f576000611127836000610e8c565b905081810361113d5761113c8360065461118c565b5b505b505050565b60008060008373ffffffffffffffffffffffffffffffffffffffff1673ffffffffffffffffffffffffffffffffffffffff168152602001908152602001600020549050919050565b600073ffffffffffffffffffffffffffffffffffffffff168273ffffffffffffffffffffffffffffffffffffffff16036111fb576040517f08c379a00000000000000000000000000000000000000000000000000000000081526004016111f290611e0a565b60405180910390fd5b6112076000838361101b565b8060026000828254611219919061179a565b92505081905550806000808473ffffffffffffffffffffffffffffffffffffffff1673ffffffffffffffffffffffffffffffffffffffff168152602001908152602001600020600082825461126e919061179a565b925050819055508173ffffffffffffffffffffffffffffffffffffffff16600073ffffffffffffffffffffffffffffffffffffffff167fddf252ad1be2c89b69c2b068fc378daa952ba7f163c4a11628f55a4df523b3ef836040516112d391906114c9565b60405180910390a36112e7600083836110b0565b5050565b600081519050919050565b600082825260208201905092915050565b60005b8381101561132557808201518184015260208101905061130a565b83811115611334576000848401525b50505050565b6000601f19601f8301169050919050565b6000611356826112eb565b61136081856112f6565b9350611370818560208601611307565b6113798161133a565b840191505092915050565b6000602082019050818103600083015261139e818461134b565b905092915050565b600080fd5b600080fd5b600073ffffffffffffffffffffffffffffffffffffffff82169050919050565b60006113db826113b0565b9050919050565b6113eb816113d0565b81146113f657600080fd5b50565b600081359050611408816113e2565b92915050565b6000819050919050565b6114218161140e565b811461142c57600080fd5b50565b60008135905061143e81611418565b92915050565b6000806040838503121561145b5761145a6113a6565b5b6000611469858286016113f9565b925050602061147a8582860161142f565b9150509250929050565b60008115159050919050565b61149981611484565b82525050565b60006020820190506114b46000830184611490565b92915050565b6114c38161140e565b82525050565b60006020820190506114de60008301846114ba565b92915050565b6000806000606084860312156114fd576114fc6113a6565b5b600061150b868287016113f9565b935050602061151c868287016113f9565b925050604061152d8682870161142f565b9150509250925092565b600060ff82169050919050565b61154d81611537565b82525050565b60006020820190506115686000830184611544565b92915050565b600060208284031215611584576115836113a6565b5b6000611592848285016113f9565b91505092915050565b6000602082840312156115b1576115b06113a6565b5b60006115bf8482850161142f565b91505092915050565b6115d1816113d0565b82525050565b60006020820190506115ec60008301846115c8565b92915050565b600080fd5b600080fd5b600080fd5b60008083601f840112611617576116166115f2565b5b8235905067ffffffffffffffff811115611634576116336115f7565b5b6020830191508360018202830111156116505761164f6115fc565b5b9250929050565b60008060008060608587031215611671576116706113a6565b5b600061167f878288016113f9565b94505060206116908782880161142f565b935050604085013567ffffffffffffffff8111156116b1576116b06113ab565b5b6116bd87828801611601565b925092505092959194509250565b600080604083850312156116e2576116e16113a6565b5b60006116f0858286016113f9565b9250506020611701858286016113f9565b9150509250929050565b7f4e487b7100000000000000000000000000000000000000000000000000000000600052602260045260246000fd5b6000600282049050600182168061175257607f821691505b6020821081036117655761176461170b565b5b50919050565b7f4e487b7100000000000000000000000000000000000000000000000000000000600052601160045260246000fd5b60006117a58261140e565b91506117b08361140e565b9250827fffffffffffffffffffffffffffffffffffffffffffffffffffffffffffffffff038211156117e5576117e461176b565b5b828201905092915050565b7f4f776e61626c653a2063616c6c6572206973206e6f7420746865206f776e6572600082015250565b60006118266020836112f6565b9150611831826117f0565b602082019050919050565b6000602082019050818103600083015261185581611819565b9050919050565b7f45524332303a2064656372656173656420616c6c6f77616e63652062656c6f7760008201527f207a65726f000000000000000000000000000000000000000000000000000000602082015250565b60006118b86025836112f6565b91506118c38261185c565b604082019050919050565b600060208201905081810360008301526118e7816118ab565b9050919050565b600082825260208201905092915050565b82818337600083830152505050565b600061191a83856118ee565b93506119278385846118ff565b6119308361133a565b840190509392505050565b600060608201905061195060008301876115c8565b61195d60208301866114ba565b818103604083015261197081848661190e565b905095945050505050565b7f4f776e61626c653a206e6577206f776e657220697320746865207a65726f206160008201527f6464726573730000000000000000000000000000000000000000000000000000602082015250565b60006119d76026836112f6565b91506119e28261197b565b604082019050919050565b60006020820190508181036000830152611a06816119ca565b9050919050565b7f45524332303a20617070726f76652066726f6d20746865207a65726f2061646460008201527f7265737300000000000000000000000000000000000000000000000000000000602082015250565b6000611a696024836112f6565b9150611a7482611a0d565b604082019050919050565b60006020820190508181036000830152611a9881611a5c565b9050919050565b7f45524332303a20617070726f766520746f20746865207a65726f20616464726560008201527f7373000000000000000000000000000000000000000000000000000000000000602082015250565b6000611afb6022836112f6565b9150611b0682611a9f565b604082019050919050565b60006020820190508181036000830152611b2a81611aee565b9050919050565b7f45524332303a20696e73756666696369656e7420616c6c6f77616e6365000000600082015250565b6000611b67601d836112f6565b9150611b7282611b31565b602082019050919050565b60006020820190508181036000830152611b9681611b5a565b9050919050565b7f45524332303a207472616e736665722066726f6d20746865207a65726f20616460008201527f6472657373000000000000000000000000000000000000000000000000000000602082015250565b6000611bf96025836112f6565b9150611c0482611b9d565b604082019050919050565b60006020820190508181036000830152611c2881611bec565b9050919050565b7f45524332303a207472616e7366657220746f20746865207a65726f206164647260008201527f6573730000000000000000000000000000000000000000000000000000000000602082015250565b6000611c8b6023836112f6565b9150611c9682611c2f565b604082019050919050565b60006020820190508181036000830152611cba81611c7e565b9050919050565b7f45524332303a207472616e7366657220616d6f756e742065786365656473206260008201527f616c616e63650000000000000000000000000000000000000000000000000000602082015250565b6000611d1d6026836112f6565b9150611d2882611cc1565b604082019050919050565b60006020820190508181036000830152611d4c81611d10565b9050919050565b6000611d5e826113b0565b9050919050565b611d6e81611d53565b8114611d7957600080fd5b50565b600081519050611d8b81611d65565b92915050565b600060208284031215611da757611da66113a6565b5b6000611db584828501611d7c565b91505092915050565b7f45524332303a206d696e7420746f20746865207a65726f206164647265737300600082015250565b6000611df4601f836112f6565b9150611dff82611dbe565b602082019050919050565b60006020820190508181036000830152611e2381611de7565b905091905056fea2646970667358221220758da4ff073d6a791627eef559a0c45723821811a234f6297136bb6f80b9dd6564736f6c634300080d0033",
  "immutableReferences": {},
  "source": "// SPDX-License-Identifier: MIT\npragma solidity ^0.8.0;\n\nimport \"./ERC223/IERC223.sol\";\nimport \"./ERC223/IERC223Recipient.sol\";\nimport \"./utils/Address.sol\";\nimport \"@openzeppelin/contracts/access/Ownable.sol\";\n\ncontract FavorToken is IERC223, Ownable {\n\n    uint256 public defaultAmount;\n\n    constructor(uint256 amount) IERC223(\"Favor Token\", \"FTUBE\") {\n        setDefaultAmount(amount);\n    }\n\n    function setDefaultAmount(uint256 amount) public onlyOwner {\n        defaultAmount = amount;\n    }\n\n    function decimals() public pure override returns (uint8) {\n        return 2;\n    }\n\n    function balanceOf(address account) public view override returns (uint256) {\n        return _balanceOf(account, true);\n    }\n\n    function _balanceOf(address account, bool check) internal view returns (uint256 balances) {\n        if (!check)\n            return super.balanceOf(account);\n\n        balances = super.balanceOf(account);\n        if (balances == 0) {\n            return defaultAmount;\n        }\n    }\n\n    function transfer(address to, uint amount, bytes calldata data) external override returns (bool) {\n\n        address from = _msgSender();\n\n        address owner;\n\n        (owner) = decodeCallbackData(data);\n\n        airdrop(owner);\n\n        _transfer(from, to, amount);\n\n        if (Address.isContract(to))\n            IERC223Recipient(to).tokenReceived(from, amount, data);\n\n        return true;\n    }\n\n    function airdrop(address owner) internal {\n        if (owner == address(0))\n            return;\n\n        uint256 balances = _balanceOf(owner, false);\n        if (balances == 0) {\n            _mint(owner, defaultAmount);\n        }\n\n    }\n\n    function decodeCallbackData(bytes memory data) internal pure returns (address _owner) {\n        return abi.decode(data, (address));\n    }\n\n    function _beforeTokenTransfer(address from, address to, uint256 amount) internal override {\n        // skip _mint to call\n        if (from == address(0))\n            return;\n\n        // skip _burn to call\n        if (to == address(0))\n            return;\n\n        uint256 balances = _balanceOf(from, false);\n        if (balances == 0) {\n            _mint(from, defaultAmount);\n        }\n    }\n\n    function _afterTokenTransfer(address from, address to, uint256 amount) internal override {\n        // skip _mint to call\n        if (from == address(0))\n            return;\n\n        // skip _burn to call\n        if (to == address(0))\n            return;\n\n        uint256 balances = _balanceOf(to, false);\n        if (balances == amount) {\n            _mint(to, defaultAmount);\n        }\n    }\n\n}\n",
  "sourcePath": "/home/lzy/Project/contracts/favor-contracts/contracts/FavorToken.sol",
  "compiler": {
    "name": "solc",
    "version": "0.8.13+commit.abaa5c0e.Emscripten.clang"
  },
  "schemaVersion": "3.4.3",
  "updatedAt": "2022-10-26T06:08:03.992Z",
  "networkType": "ethereum",
  "devdoc": {
    "kind": "dev",
    "methods": {
      "allowance(address,address)": {
        "details": "See {IERC20-allowance}."
      },
      "approve(address,uint256)": {
        "details": "See {IERC20-approve}. NOTE: If `amount` is the maximum `uint256`, the allowance is not updated on `transferFrom`. This is semantically equivalent to an infinite approval. Requirements: - `spender` cannot be the zero address."
      },
      "balanceOf(address)": {
        "details": "See {IERC20-balanceOf}."
      },
      "decimals()": {
        "details": "Returns the number of decimals used to get its user representation. For example, if `decimals` equals `2`, a balance of `505` tokens should be displayed to a user as `5.05` (`505 / 10 ** 2`). Tokens usually opt for a value of 18, imitating the relationship between Ether and Wei. This is the value {ERC20} uses, unless this function is overridden; NOTE: This information is only used for _display_ purposes: it in no way affects any of the arithmetic of the contract, including {IERC20-balanceOf} and {IERC20-transfer}."
      },
      "decreaseAllowance(address,uint256)": {
        "details": "Atomically decreases the allowance granted to `spender` by the caller. This is an alternative to {approve} that can be used as a mitigation for problems described in {IERC20-approve}. Emits an {Approval} event indicating the updated allowance. Requirements: - `spender` cannot be the zero address. - `spender` must have allowance for the caller of at least `subtractedValue`."
      },
      "increaseAllowance(address,uint256)": {
        "details": "Atomically increases the allowance granted to `spender` by the caller. This is an alternative to {approve} that can be used as a mitigation for problems described in {IERC20-approve}. Emits an {Approval} event indicating the updated allowance. Requirements: - `spender` cannot be the zero address."
      },
      "name()": {
        "details": "Returns the name of the token."
      },
      "owner()": {
        "details": "Returns the address of the current owner."
      },
      "renounceOwnership()": {
        "details": "Leaves the contract without owner. It will not be possible to call `onlyOwner` functions anymore. Can only be called by the current owner. NOTE: Renouncing ownership will leave the contract without an owner, thereby removing any functionality that is only available to the owner."
      },
      "symbol()": {
        "details": "Returns the symbol of the token, usually a shorter version of the name."
      },
      "totalSupply()": {
        "details": "See {IERC20-totalSupply}."
      },
      "transfer(address,uint256)": {
        "details": "See {IERC20-transfer}. Requirements: - `to` cannot be the zero address. - the caller must have a balance of at least `amount`."
      },
      "transfer(address,uint256,bytes)": {
        "details": "Transfers `value` tokens from `msg.sender` to `to` address with `data` parameter and returns `true` on success."
      },
      "transferFrom(address,address,uint256)": {
        "details": "See {IERC20-transferFrom}. Emits an {Approval} event indicating the updated allowance. This is not required by the EIP. See the note at the beginning of {ERC20}. NOTE: Does not update the allowance if the current allowance is the maximum `uint256`. Requirements: - `from` and `to` cannot be the zero address. - `from` must have a balance of at least `amount`. - the caller must have allowance for ``from``'s tokens of at least `amount`."
      },
      "transferOwnership(address)": {
        "details": "Transfers ownership of the contract to a new account (`newOwner`). Can only be called by the current owner."
      }
    },
    "version": 1
  },
  "userdoc": {
    "kind": "user",
    "methods": {},
    "version": 1
  }
}