{
  "contractName": "FavorTube",
  "abi": [
    {
      "inputs": [
        {
          "internalType": "uint8",
          "name": "taxRate",
          "type": "uint8"
        },
        {
          "internalType": "uint256",
          "name": "price",
          "type": "uint256"
        },
        {
          "internalType": "uint32",
          "name": "subscribeBlock_",
          "type": "uint32"
        },
        {
          "internalType": "address",
          "name": "ERC223Token",
          "type": "address"
        },
        {
          "internalType": "uint256",
          "name": "interval",
          "type": "uint256"
        }
      ],
      "stateMutability": "nonpayable",
      "type": "constructor"
    },
    {
      "anonymous": false,
      "inputs": [
        {
          "indexed": false,
          "internalType": "address",
          "name": "addr",
          "type": "address"
        },
        {
          "indexed": false,
          "internalType": "uint256",
          "name": "amount",
          "type": "uint256"
        }
      ],
      "name": "$exchange",
      "type": "event"
    },
    {
      "anonymous": false,
      "inputs": [
        {
          "indexed": false,
          "internalType": "uint256",
          "name": "price",
          "type": "uint256"
        },
        {
          "indexed": false,
          "internalType": "uint256",
          "name": "mode",
          "type": "uint256"
        }
      ],
      "name": "$setUserConfig",
      "type": "event"
    },
    {
      "anonymous": false,
      "inputs": [
        {
          "indexed": false,
          "internalType": "address",
          "name": "owner",
          "type": "address"
        },
        {
          "indexed": false,
          "internalType": "address",
          "name": "licensee",
          "type": "address"
        },
        {
          "indexed": false,
          "internalType": "uint32",
          "name": "expire",
          "type": "uint32"
        }
      ],
      "name": "$subscribe",
      "type": "event"
    },
    {
      "anonymous": false,
      "inputs": [
        {
          "indexed": true,
          "internalType": "address",
          "name": "previousOwner",
          "type": "address"
        },
        {
          "indexed": true,
          "internalType": "address",
          "name": "newOwner",
          "type": "address"
        }
      ],
      "name": "OwnershipTransferred",
      "type": "event"
    },
    {
      "inputs": [],
      "name": "_defaultUserConfig",
      "outputs": [
        {
          "internalType": "uint256",
          "name": "price",
          "type": "uint256"
        },
        {
          "internalType": "uint256",
          "name": "mode",
          "type": "uint256"
        }
      ],
      "stateMutability": "view",
      "type": "function"
    },
    {
      "inputs": [],
      "name": "_taxRate",
      "outputs": [
        {
          "internalType": "uint8",
          "name": "",
          "type": "uint8"
        }
      ],
      "stateMutability": "view",
      "type": "function"
    },
    {
      "inputs": [],
      "name": "_token",
      "outputs": [
        {
          "internalType": "address",
          "name": "",
          "type": "address"
        }
      ],
      "stateMutability": "view",
      "type": "function"
    },
    {
      "inputs": [],
      "name": "_totalTaxes",
      "outputs": [
        {
          "internalType": "uint256",
          "name": "",
          "type": "uint256"
        }
      ],
      "stateMutability": "view",
      "type": "function"
    },
    {
      "inputs": [],
      "name": "exchangeableAmount",
      "outputs": [
        {
          "internalType": "uint256",
          "name": "",
          "type": "uint256"
        }
      ],
      "stateMutability": "view",
      "type": "function"
    },
    {
      "inputs": [],
      "name": "getCurrentRound",
      "outputs": [
        {
          "internalType": "uint256",
          "name": "",
          "type": "uint256"
        }
      ],
      "stateMutability": "view",
      "type": "function"
    },
    {
      "inputs": [],
      "name": "owner",
      "outputs": [
        {
          "internalType": "address",
          "name": "",
          "type": "address"
        }
      ],
      "stateMutability": "view",
      "type": "function"
    },
    {
      "inputs": [],
      "name": "periodData",
      "outputs": [
        {
          "internalType": "uint256",
          "name": "startBlockNumber",
          "type": "uint256"
        },
        {
          "internalType": "uint256",
          "name": "periodTime",
          "type": "uint256"
        },
        {
          "internalType": "uint256",
          "name": "periodNumber",
          "type": "uint256"
        }
      ],
      "stateMutability": "view",
      "type": "function"
    },
    {
      "inputs": [],
      "name": "renounceOwnership",
      "outputs": [],
      "stateMutability": "nonpayable",
      "type": "function"
    },
    {
      "inputs": [],
      "name": "subscribeBlock",
      "outputs": [
        {
          "internalType": "uint32",
          "name": "",
          "type": "uint32"
        }
      ],
      "stateMutability": "view",
      "type": "function"
    },
    {
      "inputs": [
        {
          "internalType": "address",
          "name": "newOwner",
          "type": "address"
        }
      ],
      "name": "transferOwnership",
      "outputs": [],
      "stateMutability": "nonpayable",
      "type": "function"
    },
    {
      "inputs": [
        {
          "internalType": "uint256",
          "name": "value",
          "type": "uint256"
        }
      ],
      "name": "setPeriodData",
      "outputs": [],
      "stateMutability": "nonpayable",
      "type": "function"
    },
    {
      "inputs": [],
      "name": "exchange",
      "outputs": [],
      "stateMutability": "nonpayable",
      "type": "function"
    },
    {
      "inputs": [
        {
          "internalType": "address",
          "name": "_from",
          "type": "address"
        },
        {
          "internalType": "uint256",
          "name": "_value",
          "type": "uint256"
        },
        {
          "internalType": "bytes",
          "name": "_data",
          "type": "bytes"
        }
      ],
      "name": "tokenReceived",
      "outputs": [],
      "stateMutability": "nonpayable",
      "type": "function"
    },
    {
      "inputs": [
        {
          "internalType": "uint32",
          "name": "subscribeBlock_",
          "type": "uint32"
        }
      ],
      "name": "setSubscribeBlock",
      "outputs": [],
      "stateMutability": "nonpayable",
      "type": "function"
    },
    {
      "inputs": [
        {
          "internalType": "uint256",
          "name": "price",
          "type": "uint256"
        },
        {
          "internalType": "uint256",
          "name": "mode",
          "type": "uint256"
        }
      ],
      "name": "setDefaultUserConfig",
      "outputs": [],
      "stateMutability": "nonpayable",
      "type": "function"
    },
    {
      "inputs": [
        {
          "internalType": "uint256",
          "name": "price",
          "type": "uint256"
        },
        {
          "internalType": "uint256",
          "name": "mode",
          "type": "uint256"
        }
      ],
      "name": "setUserConfig",
      "outputs": [],
      "stateMutability": "nonpayable",
      "type": "function"
    },
    {
      "inputs": [],
      "name": "userConfig",
      "outputs": [
        {
          "components": [
            {
              "internalType": "uint256",
              "name": "price",
              "type": "uint256"
            },
            {
              "internalType": "uint256",
              "name": "mode",
              "type": "uint256"
            }
          ],
          "internalType": "struct FavorTube.UserConfig",
          "name": "",
          "type": "tuple"
        }
      ],
      "stateMutability": "view",
      "type": "function"
    },
    {
      "inputs": [
        {
          "internalType": "uint8",
          "name": "newRate",
          "type": "uint8"
        }
      ],
      "name": "setTaxRate",
      "outputs": [
        {
          "internalType": "bool",
          "name": "success",
          "type": "bool"
        }
      ],
      "stateMutability": "nonpayable",
      "type": "function"
    },
    {
      "inputs": [
        {
          "internalType": "address",
          "name": "account",
          "type": "address"
        },
        {
          "internalType": "uint256",
          "name": "value",
          "type": "uint256"
        }
      ],
      "name": "withdrawTax",
      "outputs": [
        {
          "internalType": "bool",
          "name": "success",
          "type": "bool"
        }
      ],
      "stateMutability": "nonpayable",
      "type": "function"
    }
  ],
  "bytecode": "0x60a06040523480156200001157600080fd5b5060405162002790380380620027908339818101604052810190620000379190620003c9565b808560008160ff1611801562000050575060648160ff16105b62000092576040517f08c379a00000000000000000000000000000000000000000000000000000000081526004016200008990620004b2565b60405180910390fd5b806000806101000a81548160ff021916908360ff16021790555050620000cd620000c1620001c460201b60201c565b620001cc60201b60201c565b6040518060600160405280438152602001828152602001600181525060036000820151816000015560208201518160010155604082015181600201559050505060016008819055506200012b826200029260201b62000f8f1760201c565b6200013557600080fd5b8173ffffffffffffffffffffffffffffffffffffffff1660808173ffffffffffffffffffffffffffffffffffffffff168152505082600d60006101000a81548163ffffffff021916908363ffffffff16021790555060405180604001604052808581526020016000815250600b60008201518160000155602082015181600101559050505050505050620004d4565b600033905090565b6000600260009054906101000a900473ffffffffffffffffffffffffffffffffffffffff16905081600260006101000a81548173ffffffffffffffffffffffffffffffffffffffff021916908373ffffffffffffffffffffffffffffffffffffffff1602179055508173ffffffffffffffffffffffffffffffffffffffff168173ffffffffffffffffffffffffffffffffffffffff167f8be0079c531659141344cd1fd0a4f28419497f9722a3daafe3b4186f6b6457e060405160405180910390a35050565b600080823b905060008111915050919050565b600080fd5b600060ff82169050919050565b620002c281620002aa565b8114620002ce57600080fd5b50565b600081519050620002e281620002b7565b92915050565b6000819050919050565b620002fd81620002e8565b81146200030957600080fd5b50565b6000815190506200031d81620002f2565b92915050565b600063ffffffff82169050919050565b6200033e8162000323565b81146200034a57600080fd5b50565b6000815190506200035e8162000333565b92915050565b600073ffffffffffffffffffffffffffffffffffffffff82169050919050565b6000620003918262000364565b9050919050565b620003a38162000384565b8114620003af57600080fd5b50565b600081519050620003c38162000398565b92915050565b600080600080600060a08688031215620003e857620003e7620002a5565b5b6000620003f888828901620002d1565b95505060206200040b888289016200030c565b94505060406200041e888289016200034d565b93505060606200043188828901620003b2565b925050608062000444888289016200030c565b9150509295509295909350565b600082825260208201905092915050565b7f696e76616c696420746178207261746500000000000000000000000000000000600082015250565b60006200049a60108362000451565b9150620004a78262000462565b602082019050919050565b60006020820190508181036000830152620004cd816200048b565b9050919050565b60805161228b6200050560003960008181610436015281816107f201528181610b7f0152610dd6015261228b6000f3fe608060405234801561001057600080fd5b506004361061012c5760003560e01c80638da5cb5b116100ad578063d2f7265a11610071578063d2f7265a146102fe578063e0b5db2f14610308578063ecd0c0c314610326578063f16f250114610344578063f2fde38b146103605761012c565b80638da5cb5b14610268578063a32bf59714610286578063afd78029146102a4578063b47639a8146102c0578063c9e3c0a3146102e05761012c565b80636c791e04116100f45780636c791e04146101d85780636e2c3ad214610208578063715018a61461022457806378d076851461022e5780638943ec021461024c5761012c565b806307854e7e146101315780632a23c641146101505780634084e0b314610180578063421c2bb91461019e578063447dbbd0146101ba575b600080fd5b61013961037c565b6040516101479291906115d2565b60405180910390f35b61016a60048036038101906101659190611699565b61038e565b60405161017791906116f4565b60405180910390f35b6101886104da565b604051610195919061172b565b60405180910390f35b6101b860048036038101906101b39190611746565b6104eb565b005b6101c26105f9565b6040516101cf91906117a5565b60405180910390f35b6101f260048036038101906101ed91906117ec565b61060f565b6040516101ff91906116f4565b60405180910390f35b610222600480360381019061021d9190611746565b61069d565b005b61022c61074b565b005b6102366107d3565b6040516102439190611857565b60405180910390f35b610266600480360381019061026191906119b8565b6107f0565b005b610270610976565b60405161027d9190611a36565b60405180910390f35b61028e6109a0565b60405161029b9190611a51565b60405180910390f35b6102be60048036038101906102b99190611a6c565b610a2a565b005b6102c8610ab2565b6040516102d793929190611a99565b60405180910390f35b6102e8610aca565b6040516102f59190611a51565b60405180910390f35b610306610ad0565b005b610310610c6c565b60405161031d9190611a51565b60405180910390f35b61032e610dd4565b60405161033b9190611a36565b60405180910390f35b61035e60048036038101906103599190611afc565b610df8565b005b61037a60048036038101906103759190611b29565b610e98565b005b600b8060000154908060010154905082565b6000610398610fa2565b73ffffffffffffffffffffffffffffffffffffffff166103b6610976565b73ffffffffffffffffffffffffffffffffffffffff161461040c576040517f08c379a000000000000000000000000000000000000000000000000000000000815260040161040390611bb3565b60405180910390fd5b81600154101561041b57600080fd5b816001600082825461042d9190611c02565b925050819055507f000000000000000000000000000000000000000000000000000000000000000073ffffffffffffffffffffffffffffffffffffffff1663a9059cbb84846040518363ffffffff1660e01b815260040161048f929190611c36565b6020604051808303816000875af11580156104ae573d6000803e3d6000fd5b505050506040513d601f19601f820116820180604052508101906104d29190611c8b565b905092915050565b60008054906101000a900460ff1681565b6040518060400160405280838152602001828152506009600061050c610fa2565b73ffffffffffffffffffffffffffffffffffffffff1673ffffffffffffffffffffffffffffffffffffffff16815260200190815260200160002060008201518160000155602082015181600101559050506001600a600061056b610fa2565b73ffffffffffffffffffffffffffffffffffffffff1673ffffffffffffffffffffffffffffffffffffffff16815260200190815260200160002060006101000a81548160ff0219169083151502179055507f827ee0dcd979ad6f55b8ea43fcf7d678f5adf40f13eed30900012dd78a92bc1582826040516105ed9291906115d2565b60405180910390a15050565b600d60009054906101000a900463ffffffff1681565b6000610619610fa2565b73ffffffffffffffffffffffffffffffffffffffff16610637610976565b73ffffffffffffffffffffffffffffffffffffffff161461068d576040517f08c379a000000000000000000000000000000000000000000000000000000000815260040161068490611bb3565b60405180910390fd5b61069682610faa565b9050919050565b6106a5610fa2565b73ffffffffffffffffffffffffffffffffffffffff166106c3610976565b73ffffffffffffffffffffffffffffffffffffffff1614610719576040517f08c379a000000000000000000000000000000000000000000000000000000000815260040161071090611bb3565b60405180910390fd5b604051806040016040528083815260200182815250600b60008201518160000155602082015181600101559050505050565b610753610fa2565b73ffffffffffffffffffffffffffffffffffffffff16610771610976565b73ffffffffffffffffffffffffffffffffffffffff16146107c7576040517f08c379a00000000000000000000000000000000000000000000000000000000081526004016107be90611bb3565b60405180910390fd5b6107d1600061105a565b565b6107db61159f565b6107eb6107e6610fa2565b611120565b905090565b7f000000000000000000000000000000000000000000000000000000000000000073ffffffffffffffffffffffffffffffffffffffff1661082f610fa2565b73ffffffffffffffffffffffffffffffffffffffff1614610885576040517f08c379a000000000000000000000000000000000000000000000000000000000815260040161087c90611d04565b60405180910390fd5b6000610890826111e6565b9050600061089d82611120565b905080600001518410156108e6576040517f08c379a00000000000000000000000000000000000000000000000000000000081526004016108dd90611d70565b60405180910390fd5b60006108f185611203565b905060008390506001836020015103610908578690505b610912818361128b565b600061092f600d60009054906101000a900463ffffffff166113fc565b90507fc3b157ee7a0c96db039cb96afc467f0e52e15dff6f4ee4e954397872c93b02bd85898360405161096493929190611d90565b60405180910390a15050505050505050565b6000600260009054906101000a900473ffffffffffffffffffffffffffffffffffffffff16905090565b6000806003600001544310156109c95760016003600201546109c29190611c02565b9050610a23565b60036000015443036109e2576003600201549050610a22565b600360020154600360010154600160036000015443610a019190611c02565b610a0b9190611c02565b610a159190611df6565b610a1f9190611e27565b90505b5b8091505090565b610a32610fa2565b73ffffffffffffffffffffffffffffffffffffffff16610a50610976565b73ffffffffffffffffffffffffffffffffffffffff1614610aa6576040517f08c379a0000000000000000000000000000000000000000000000000000000008152600401610a9d90611bb3565b60405180910390fd5b610aaf81611437565b50565b60038060000154908060010154908060020154905083565b60015481565b600260085403610b15576040517f08c379a0000000000000000000000000000000000000000000000000000000008152600401610b0c90611ec9565b60405180910390fd5b60026008819055506000610b27610c6c565b905060008103610b6c576040517f08c379a0000000000000000000000000000000000000000000000000000000008152600401610b6390611f35565b60405180910390fd5b610b7d610b77610fa2565b8261150c565b7f000000000000000000000000000000000000000000000000000000000000000073ffffffffffffffffffffffffffffffffffffffff1663a9059cbb610bc1610fa2565b836040518363ffffffff1660e01b8152600401610bdf929190611c36565b6020604051808303816000875af1158015610bfe573d6000803e3d6000fd5b505050506040513d601f19601f82011682018060405250810190610c229190611c8b565b610c61576040517f08c379a0000000000000000000000000000000000000000000000000000000008152600401610c5890611fa1565b60405180910390fd5b506001600881905550565b600080610c776109a0565b90506000600760003373ffffffffffffffffffffffffffffffffffffffff1673ffffffffffffffffffffffffffffffffffffffff1681526020019081526020016000205490506000600660003373ffffffffffffffffffffffffffffffffffffffff1673ffffffffffffffffffffffffffffffffffffffff1681526020019081526020016000206040518060400160405290816000820160405180604001604052908160008201548152602001600182015481525050815260200160028201604051806040016040529081600082015481526020016001820154815250508152505090508060200151600001518303610d9857806000015160200151816020015160200151610d869190611e27565b82610d919190611c02565b9150610dcb565b6001816020015160000151610dad9190611e27565b8303610dca5780602001516020015182610dc79190611c02565b91505b5b81935050505090565b7f000000000000000000000000000000000000000000000000000000000000000081565b610e00610fa2565b73ffffffffffffffffffffffffffffffffffffffff16610e1e610976565b73ffffffffffffffffffffffffffffffffffffffff1614610e74576040517f08c379a0000000000000000000000000000000000000000000000000000000008152600401610e6b90611bb3565b60405180910390fd5b80600d60006101000a81548163ffffffff021916908363ffffffff16021790555050565b610ea0610fa2565b73ffffffffffffffffffffffffffffffffffffffff16610ebe610976565b73ffffffffffffffffffffffffffffffffffffffff1614610f14576040517f08c379a0000000000000000000000000000000000000000000000000000000008152600401610f0b90611bb3565b60405180910390fd5b600073ffffffffffffffffffffffffffffffffffffffff168173ffffffffffffffffffffffffffffffffffffffff1603610f83576040517f08c379a0000000000000000000000000000000000000000000000000000000008152600401610f7a90612033565b60405180910390fd5b610f8c8161105a565b50565b600080823b905060008111915050919050565b600033905090565b6000808260ff1611610ff1576040517f08c379a0000000000000000000000000000000000000000000000000000000008152600401610fe89061209f565b60405180910390fd5b60648260ff1610611037576040517f08c379a000000000000000000000000000000000000000000000000000000000815260040161102e9061210b565b60405180910390fd5b816000806101000a81548160ff021916908360ff16021790555060019050919050565b6000600260009054906101000a900473ffffffffffffffffffffffffffffffffffffffff16905081600260006101000a81548173ffffffffffffffffffffffffffffffffffffffff021916908373ffffffffffffffffffffffffffffffffffffffff1602179055508173ffffffffffffffffffffffffffffffffffffffff168173ffffffffffffffffffffffffffffffffffffffff167f8be0079c531659141344cd1fd0a4f28419497f9722a3daafe3b4186f6b6457e060405160405180910390a35050565b61112861159f565b600a60008373ffffffffffffffffffffffffffffffffffffffff1673ffffffffffffffffffffffffffffffffffffffff16815260200190815260200160002060009054906101000a900460ff1661118057600b6111c0565b600960008373ffffffffffffffffffffffffffffffffffffffff1673ffffffffffffffffffffffffffffffffffffffff1681526020019081526020016000205b604051806040016040529081600082015481526020016001820154815250509050919050565b6000818060200190518101906111fc9190612169565b9050919050565b60008060648360008054906101000a900460ff1660ff166112249190612196565b61122e9190611df6565b90506000606460008054906101000a900460ff16606461124e91906121f0565b60ff168561125c9190612196565b6112669190611df6565b9050816001600082825461127a9190611e27565b925050819055508092505050919050565b60006112956109a0565b90506000600660008573ffffffffffffffffffffffffffffffffffffffff1673ffffffffffffffffffffffffffffffffffffffff16815260200190815260200160002090508181600201600001540361130b57828160020160010160008282546112ff9190611e27565b925050819055506113a0565b81600182600201600001546113209190611e27565b036113495780600201816000016000820154816000015560018201548160010155905050611387565b60405180604001604052806001846113619190611c02565b815260200160008152508160000160008201518160000155602082015181600101559050505b8181600201600001819055508281600201600101819055505b82600760008673ffffffffffffffffffffffffffffffffffffffff1673ffffffffffffffffffffffffffffffffffffffff16815260200190815260200160002060008282546113ef9190611e27565b9250508190555050505050565b600080438363ffffffff166114119190611e27565b905063ffffffff8016811061142d5763ffffffff915050611432565b809150505b919050565b6003600001544310156114535780600360010181905550611509565b60006003600101546003600001544361146c9190611c02565b6114769190612224565b600360010154436114879190611e27565b6114919190611c02565b90506000600360010154600360000154836114ac9190611c02565b6114b69190611df6565b90506040518060600160405280838152602001848152602001600360020154836114e09190611e27565b815250600360008201518160000155602082015181600101556040820151816002015590505050505b50565b80600760008473ffffffffffffffffffffffffffffffffffffffff1673ffffffffffffffffffffffffffffffffffffffff168152602001908152602001600020600082825461155b9190611c02565b925050819055507f0aa36af98793b49f134f1c56f26ee1a235db0a9c879f8d310b016c0117e8d4208282604051611593929190611c36565b60405180910390a15050565b604051806040016040528060008152602001600081525090565b6000819050919050565b6115cc816115b9565b82525050565b60006040820190506115e760008301856115c3565b6115f460208301846115c3565b9392505050565b6000604051905090565b600080fd5b600080fd5b600073ffffffffffffffffffffffffffffffffffffffff82169050919050565b600061163a8261160f565b9050919050565b61164a8161162f565b811461165557600080fd5b50565b60008135905061166781611641565b92915050565b611676816115b9565b811461168157600080fd5b50565b6000813590506116938161166d565b92915050565b600080604083850312156116b0576116af611605565b5b60006116be85828601611658565b92505060206116cf85828601611684565b9150509250929050565b60008115159050919050565b6116ee816116d9565b82525050565b600060208201905061170960008301846116e5565b92915050565b600060ff82169050919050565b6117258161170f565b82525050565b6000602082019050611740600083018461171c565b92915050565b6000806040838503121561175d5761175c611605565b5b600061176b85828601611684565b925050602061177c85828601611684565b9150509250929050565b600063ffffffff82169050919050565b61179f81611786565b82525050565b60006020820190506117ba6000830184611796565b92915050565b6117c98161170f565b81146117d457600080fd5b50565b6000813590506117e6816117c0565b92915050565b60006020828403121561180257611801611605565b5b6000611810848285016117d7565b91505092915050565b611822816115b9565b82525050565b60408201600082015161183e6000850182611819565b5060208201516118516020850182611819565b50505050565b600060408201905061186c6000830184611828565b92915050565b600080fd5b600080fd5b6000601f19601f8301169050919050565b7f4e487b7100000000000000000000000000000000000000000000000000000000600052604160045260246000fd5b6118c58261187c565b810181811067ffffffffffffffff821117156118e4576118e361188d565b5b80604052505050565b60006118f76115fb565b905061190382826118bc565b919050565b600067ffffffffffffffff8211156119235761192261188d565b5b61192c8261187c565b9050602081019050919050565b82818337600083830152505050565b600061195b61195684611908565b6118ed565b90508281526020810184848401111561197757611976611877565b5b611982848285611939565b509392505050565b600082601f83011261199f5761199e611872565b5b81356119af848260208601611948565b91505092915050565b6000806000606084860312156119d1576119d0611605565b5b60006119df86828701611658565b93505060206119f086828701611684565b925050604084013567ffffffffffffffff811115611a1157611a1061160a565b5b611a1d8682870161198a565b9150509250925092565b611a308161162f565b82525050565b6000602082019050611a4b6000830184611a27565b92915050565b6000602082019050611a6660008301846115c3565b92915050565b600060208284031215611a8257611a81611605565b5b6000611a9084828501611684565b91505092915050565b6000606082019050611aae60008301866115c3565b611abb60208301856115c3565b611ac860408301846115c3565b949350505050565b611ad981611786565b8114611ae457600080fd5b50565b600081359050611af681611ad0565b92915050565b600060208284031215611b1257611b11611605565b5b6000611b2084828501611ae7565b91505092915050565b600060208284031215611b3f57611b3e611605565b5b6000611b4d84828501611658565b91505092915050565b600082825260208201905092915050565b7f4f776e61626c653a2063616c6c6572206973206e6f7420746865206f776e6572600082015250565b6000611b9d602083611b56565b9150611ba882611b67565b602082019050919050565b60006020820190508181036000830152611bcc81611b90565b9050919050565b7f4e487b7100000000000000000000000000000000000000000000000000000000600052601160045260246000fd5b6000611c0d826115b9565b9150611c18836115b9565b925082821015611c2b57611c2a611bd3565b5b828203905092915050565b6000604082019050611c4b6000830185611a27565b611c5860208301846115c3565b9392505050565b611c68816116d9565b8114611c7357600080fd5b50565b600081519050611c8581611c5f565b92915050565b600060208284031215611ca157611ca0611605565b5b6000611caf84828501611c76565b91505092915050565b7f496e636f727265637420636f6e74726163742061646472657373000000000000600082015250565b6000611cee601a83611b56565b9150611cf982611cb8565b602082019050919050565b60006020820190508181036000830152611d1d81611ce1565b9050919050565b7f7061696420707269636520697320746f6f206c6f770000000000000000000000600082015250565b6000611d5a601583611b56565b9150611d6582611d24565b602082019050919050565b60006020820190508181036000830152611d8981611d4d565b9050919050565b6000606082019050611da56000830186611a27565b611db26020830185611a27565b611dbf6040830184611796565b949350505050565b7f4e487b7100000000000000000000000000000000000000000000000000000000600052601260045260246000fd5b6000611e01826115b9565b9150611e0c836115b9565b925082611e1c57611e1b611dc7565b5b828204905092915050565b6000611e32826115b9565b9150611e3d836115b9565b9250827fffffffffffffffffffffffffffffffffffffffffffffffffffffffffffffffff03821115611e7257611e71611bd3565b5b828201905092915050565b7f5265656e7472616e637947756172643a207265656e7472616e742063616c6c00600082015250565b6000611eb3601f83611b56565b9150611ebe82611e7d565b602082019050919050565b60006020820190508181036000830152611ee281611ea6565b9050919050565b7f496e73756666696369656e742062616c616e6365000000000000000000000000600082015250565b6000611f1f601483611b56565b9150611f2a82611ee9565b602082019050919050565b60006020820190508181036000830152611f4e81611f12565b9050919050565b7f5769746864726177616c204661696c7572650000000000000000000000000000600082015250565b6000611f8b601283611b56565b9150611f9682611f55565b602082019050919050565b60006020820190508181036000830152611fba81611f7e565b9050919050565b7f4f776e61626c653a206e6577206f776e657220697320746865207a65726f206160008201527f6464726573730000000000000000000000000000000000000000000000000000602082015250565b600061201d602683611b56565b915061202882611fc1565b604082019050919050565b6000602082019050818103600083015261204c81612010565b9050919050565b7f7461782072617465206d757374206c6172676572207468616e207a65726f0000600082015250565b6000612089601e83611b56565b915061209482612053565b602082019050919050565b600060208201905081810360008301526120b88161207c565b9050919050565b7f7461782072617465206d757374206c657373207468616e203130300000000000600082015250565b60006120f5601b83611b56565b9150612100826120bf565b602082019050919050565b60006020820190508181036000830152612124816120e8565b9050919050565b60006121368261160f565b9050919050565b6121468161212b565b811461215157600080fd5b50565b6000815190506121638161213d565b92915050565b60006020828403121561217f5761217e611605565b5b600061218d84828501612154565b91505092915050565b60006121a1826115b9565b91506121ac836115b9565b9250817fffffffffffffffffffffffffffffffffffffffffffffffffffffffffffffffff04831182151516156121e5576121e4611bd3565b5b828202905092915050565b60006121fb8261170f565b91506122068361170f565b92508282101561221957612218611bd3565b5b828203905092915050565b600061222f826115b9565b915061223a836115b9565b92508261224a57612249611dc7565b5b82820690509291505056fea2646970667358221220b95217fd5c0b155a701330aafdd8eb6be53b70531f9f8f477d87b87c02560e8c64736f6c634300080d0033",
  "immutableReferences": {
    "1017": [
      {
        "length": 32,
        "start": 1078
      },
      {
        "length": 32,
        "start": 2034
      },
      {
        "length": 32,
        "start": 2943
      },
      {
        "length": 32,
        "start": 3542
      }
    ]
  },
  "source": "// SPDX-License-Identifier: MIT\npragma solidity ^0.8.0;\n\nimport \"@openzeppelin/contracts/security/ReentrancyGuard.sol\";\nimport \"@openzeppelin/contracts/access/Ownable.sol\";\nimport \"./ERC223/IERC223.sol\";\nimport \"./ERC223/IERC223Recipient.sol\";\nimport \"./TokenTax.sol\";\nimport \"./utils/Address.sol\";\nimport \"./LockBalance.sol\";\n\ncontract FavorTube is IERC223Recipient, TokenTax, Ownable, LockBalance, ReentrancyGuard {\n\n    event $subscribe(address owner, address licensee, uint32 expire);\n    event $setUserConfig(uint256 price, uint mode);\n\n    struct UserConfig {\n        uint256 price;\n        uint mode;\n    }\n\n    mapping(address => UserConfig) _userConfig;\n    mapping(address => bool) _isSetConfig;\n\n    UserConfig public _defaultUserConfig;\n\n    uint32 public subscribeBlock;\n\n    address public immutable _token;\n\n    constructor(uint8 taxRate, uint256 price, uint32 subscribeBlock_, address ERC223Token, uint interval) TokenTax(taxRate) LockBalance(interval) {\n        require(Address.isContract(ERC223Token));\n\n        _token = ERC223Token;\n\n        subscribeBlock = subscribeBlock_;\n\n        _defaultUserConfig = UserConfig(price, 0);\n    }\n\n    function setPeriodData(uint value) external override onlyOwner {\n        _setPeriodData(value);\n    }\n\n    function exchange() external override nonReentrant {\n        uint amount = exchangeableAmount();\n\n        require(amount != 0, \"Insufficient balance\");\n\n        _exchange(_msgSender(), amount);\n\n        require(IERC223(_token).transfer(_msgSender(), amount), \"Withdrawal Failure\");\n    }\n\n    function userConfig() external view returns (UserConfig memory) {\n        return userConfig(_msgSender());\n    }\n\n    function tokenReceived(address _from, uint _value, bytes memory _data) external override {\n\n        require(_msgSender() == _token, 'Incorrect contract address');\n\n        address owner;\n\n        (owner) = decodeCallbackData(_data);\n\n        UserConfig memory config = userConfig(owner);\n\n        if (_value < config.price)\n            revert(\"paid price is too low\");\n\n        uint remainValue = payTax(_value);\n\n        address lockAccount = owner;\n\n        if (config.mode == 1) lockAccount = _from;\n\n        _lock(lockAccount, remainValue);\n\n        uint32 expire = computeExpire(subscribeBlock);\n\n        emit $subscribe(owner, _from, expire);\n    }\n\n    function setSubscribeBlock(uint32 subscribeBlock_) external onlyOwner {\n        subscribeBlock = subscribeBlock_;\n    }\n\n    function setDefaultUserConfig(uint256 price, uint mode) external onlyOwner {\n        _defaultUserConfig = UserConfig(price, mode);\n    }\n\n    function setUserConfig(uint256 price, uint mode) external {\n        _userConfig[_msgSender()] = UserConfig(price, mode);\n        _isSetConfig[_msgSender()] = true;\n\n        emit $setUserConfig(price, mode);\n    }\n\n    function userConfig(address account) internal view returns (UserConfig memory) {\n        return _isSetConfig[account] ? _userConfig[account] : _defaultUserConfig;\n    }\n\n    function decodeCallbackData(bytes memory data) internal pure returns (address _owner) {\n        return abi.decode(data, (address));\n    }\n\n    function computeExpire(uint32 value) internal view returns (uint32) {\n        uint result = uint(value) + block.number;\n\n        if (result >= uint(type(uint32).max)) {\n            return type(uint32).max;\n        }\n\n        return uint32(result);\n    }\n\n    function setTaxRate(uint8 newRate) external override onlyOwner returns (bool success) {\n        return _setTaxRate(newRate);\n    }\n\n    function withdrawTax(address account, uint value) external override onlyOwner returns (bool success) {\n        require(_totalTaxes >= value);\n\n        _totalTaxes -= value;\n\n        return IERC223(_token).transfer(account, value);\n    }\n\n    function payTax(uint value) internal override returns (uint taxed) {\n        uint taxes = (_taxRate * value) / 100;\n        uint remain = (value * (100 - _taxRate)) / 100;\n\n        _totalTaxes += taxes;\n\n        return remain;\n    }\n}\n",
  "sourcePath": "/home/lzy/Project/contracts/favor-contracts/contracts/FavorTube.sol",
  "compiler": {
    "name": "solc",
    "version": "0.8.13+commit.abaa5c0e.Emscripten.clang"
  },
  "schemaVersion": "3.4.3",
  "updatedAt": "2022-08-25T04:03:22.277Z",
  "devdoc": {
    "kind": "dev",
    "methods": {
      "owner()": {
        "details": "Returns the address of the current owner."
      },
      "renounceOwnership()": {
        "details": "Leaves the contract without owner. It will not be possible to call `onlyOwner` functions anymore. Can only be called by the current owner. NOTE: Renouncing ownership will leave the contract without an owner, thereby removing any functionality that is only available to the owner."
      },
      "tokenReceived(address,uint256,bytes)": {
        "details": "Standard ERC223 function that will handle incoming token transfers.",
        "params": {
          "_data": "Transaction metadata.",
          "_from": "Token sender address.",
          "_value": "Amount of tokens."
        }
      },
      "transferOwnership(address)": {
        "details": "Transfers ownership of the contract to a new account (`newOwner`). Can only be called by the current owner."
      }
    },
    "version": 1
  },
  "userdoc": {
    "kind": "user",
    "methods": {},
    "version": 1
  }
}