{
  "contractName": "FavorTube",
  "abi": [
    {
      "inputs": [
        {
          "internalType": "uint8",
          "name": "taxRate",
          "type": "uint8"
        },
        {
          "internalType": "uint256",
          "name": "price",
          "type": "uint256"
        },
        {
          "internalType": "uint32",
          "name": "subscribeBlock_",
          "type": "uint32"
        },
        {
          "internalType": "address",
          "name": "ERC223Token",
          "type": "address"
        },
        {
          "internalType": "uint256",
          "name": "interval",
          "type": "uint256"
        }
      ],
      "stateMutability": "nonpayable",
      "type": "constructor"
    },
    {
      "anonymous": false,
      "inputs": [
        {
          "indexed": false,
          "internalType": "address",
          "name": "addr",
          "type": "address"
        },
        {
          "indexed": false,
          "internalType": "uint256",
          "name": "amount",
          "type": "uint256"
        }
      ],
      "name": "$exchange",
      "type": "event"
    },
    {
      "anonymous": false,
      "inputs": [
        {
          "indexed": false,
          "internalType": "address",
          "name": "owner",
          "type": "address"
        },
        {
          "indexed": false,
          "internalType": "uint256",
          "name": "price",
          "type": "uint256"
        },
        {
          "indexed": false,
          "internalType": "uint256",
          "name": "mode",
          "type": "uint256"
        }
      ],
      "name": "$setUserConfig",
      "type": "event"
    },
    {
      "anonymous": false,
      "inputs": [
        {
          "indexed": false,
          "internalType": "address",
          "name": "owner",
          "type": "address"
        },
        {
          "indexed": false,
          "internalType": "address",
          "name": "licensee",
          "type": "address"
        },
        {
          "indexed": false,
          "internalType": "uint32",
          "name": "expire",
          "type": "uint32"
        }
      ],
      "name": "$subscribe",
      "type": "event"
    },
    {
      "anonymous": false,
      "inputs": [
        {
          "indexed": true,
          "internalType": "address",
          "name": "previousOwner",
          "type": "address"
        },
        {
          "indexed": true,
          "internalType": "address",
          "name": "newOwner",
          "type": "address"
        }
      ],
      "name": "OwnershipTransferred",
      "type": "event"
    },
    {
      "inputs": [],
      "name": "_defaultUserConfig",
      "outputs": [
        {
          "internalType": "uint256",
          "name": "price",
          "type": "uint256"
        },
        {
          "internalType": "uint256",
          "name": "mode",
          "type": "uint256"
        }
      ],
      "stateMutability": "view",
      "type": "function",
      "constant": true
    },
    {
      "inputs": [],
      "name": "_taxRate",
      "outputs": [
        {
          "internalType": "uint8",
          "name": "",
          "type": "uint8"
        }
      ],
      "stateMutability": "view",
      "type": "function",
      "constant": true
    },
    {
      "inputs": [],
      "name": "_token",
      "outputs": [
        {
          "internalType": "address",
          "name": "",
          "type": "address"
        }
      ],
      "stateMutability": "view",
      "type": "function",
      "constant": true
    },
    {
      "inputs": [],
      "name": "_totalTaxes",
      "outputs": [
        {
          "internalType": "uint256",
          "name": "",
          "type": "uint256"
        }
      ],
      "stateMutability": "view",
      "type": "function",
      "constant": true
    },
    {
      "inputs": [],
      "name": "exchangeableAmount",
      "outputs": [
        {
          "internalType": "uint256",
          "name": "",
          "type": "uint256"
        }
      ],
      "stateMutability": "view",
      "type": "function",
      "constant": true
    },
    {
      "inputs": [],
      "name": "getCurrentRound",
      "outputs": [
        {
          "internalType": "uint256",
          "name": "",
          "type": "uint256"
        }
      ],
      "stateMutability": "view",
      "type": "function",
      "constant": true
    },
    {
      "inputs": [],
      "name": "owner",
      "outputs": [
        {
          "internalType": "address",
          "name": "",
          "type": "address"
        }
      ],
      "stateMutability": "view",
      "type": "function",
      "constant": true
    },
    {
      "inputs": [],
      "name": "periodData",
      "outputs": [
        {
          "internalType": "uint256",
          "name": "startBlockNumber",
          "type": "uint256"
        },
        {
          "internalType": "uint256",
          "name": "periodTime",
          "type": "uint256"
        },
        {
          "internalType": "uint256",
          "name": "periodNumber",
          "type": "uint256"
        }
      ],
      "stateMutability": "view",
      "type": "function",
      "constant": true
    },
    {
      "inputs": [],
      "name": "renounceOwnership",
      "outputs": [],
      "stateMutability": "nonpayable",
      "type": "function"
    },
    {
      "inputs": [],
      "name": "subscribeBlock",
      "outputs": [
        {
          "internalType": "uint32",
          "name": "",
          "type": "uint32"
        }
      ],
      "stateMutability": "view",
      "type": "function",
      "constant": true
    },
    {
      "inputs": [
        {
          "internalType": "address",
          "name": "newOwner",
          "type": "address"
        }
      ],
      "name": "transferOwnership",
      "outputs": [],
      "stateMutability": "nonpayable",
      "type": "function"
    },
    {
      "inputs": [
        {
          "internalType": "uint256",
          "name": "value",
          "type": "uint256"
        }
      ],
      "name": "setPeriodData",
      "outputs": [],
      "stateMutability": "nonpayable",
      "type": "function"
    },
    {
      "inputs": [],
      "name": "exchange",
      "outputs": [],
      "stateMutability": "nonpayable",
      "type": "function"
    },
    {
      "inputs": [
        {
          "internalType": "address",
          "name": "_from",
          "type": "address"
        },
        {
          "internalType": "uint256",
          "name": "_value",
          "type": "uint256"
        },
        {
          "internalType": "bytes",
          "name": "_data",
          "type": "bytes"
        }
      ],
      "name": "tokenReceived",
      "outputs": [],
      "stateMutability": "nonpayable",
      "type": "function"
    },
    {
      "inputs": [
        {
          "internalType": "uint32",
          "name": "subscribeBlock_",
          "type": "uint32"
        }
      ],
      "name": "setSubscribeBlock",
      "outputs": [],
      "stateMutability": "nonpayable",
      "type": "function"
    },
    {
      "inputs": [
        {
          "internalType": "uint256",
          "name": "price",
          "type": "uint256"
        },
        {
          "internalType": "uint256",
          "name": "mode",
          "type": "uint256"
        }
      ],
      "name": "setDefaultUserConfig",
      "outputs": [],
      "stateMutability": "nonpayable",
      "type": "function"
    },
    {
      "inputs": [
        {
          "internalType": "uint256",
          "name": "price",
          "type": "uint256"
        },
        {
          "internalType": "uint256",
          "name": "mode",
          "type": "uint256"
        }
      ],
      "name": "setUserConfig",
      "outputs": [],
      "stateMutability": "nonpayable",
      "type": "function"
    },
    {
      "inputs": [],
      "name": "userConfig",
      "outputs": [
        {
          "components": [
            {
              "internalType": "uint256",
              "name": "price",
              "type": "uint256"
            },
            {
              "internalType": "uint256",
              "name": "mode",
              "type": "uint256"
            }
          ],
          "internalType": "struct FavorTube.UserConfig",
          "name": "",
          "type": "tuple"
        }
      ],
      "stateMutability": "view",
      "type": "function",
      "constant": true
    },
    {
      "inputs": [
        {
          "internalType": "uint8",
          "name": "newRate",
          "type": "uint8"
        }
      ],
      "name": "setTaxRate",
      "outputs": [
        {
          "internalType": "bool",
          "name": "success",
          "type": "bool"
        }
      ],
      "stateMutability": "nonpayable",
      "type": "function"
    },
    {
      "inputs": [
        {
          "internalType": "address",
          "name": "account",
          "type": "address"
        },
        {
          "internalType": "uint256",
          "name": "value",
          "type": "uint256"
        }
      ],
      "name": "withdrawTax",
      "outputs": [
        {
          "internalType": "bool",
          "name": "success",
          "type": "bool"
        }
      ],
      "stateMutability": "nonpayable",
      "type": "function"
    }
  ],
  "bytecode": "0x60a06040523480156200001157600080fd5b50604051620027d0380380620027d08339818101604052810190620000379190620003c9565b808560008160ff1611801562000050575060648160ff16105b62000092576040517f08c379a00000000000000000000000000000000000000000000000000000000081526004016200008990620004b2565b60405180910390fd5b806000806101000a81548160ff021916908360ff16021790555050620000cd620000c1620001c460201b60201c565b620001cc60201b60201c565b6040518060600160405280438152602001828152602001600181525060036000820151816000015560208201518160010155604082015181600201559050505060016008819055506200012b826200029260201b62000f981760201c565b6200013557600080fd5b8173ffffffffffffffffffffffffffffffffffffffff1660808173ffffffffffffffffffffffffffffffffffffffff168152505082600d60006101000a81548163ffffffff021916908363ffffffff16021790555060405180604001604052808581526020016000815250600b60008201518160000155602082015181600101559050505050505050620004d4565b600033905090565b6000600260009054906101000a900473ffffffffffffffffffffffffffffffffffffffff16905081600260006101000a81548173ffffffffffffffffffffffffffffffffffffffff021916908373ffffffffffffffffffffffffffffffffffffffff1602179055508173ffffffffffffffffffffffffffffffffffffffff168173ffffffffffffffffffffffffffffffffffffffff167f8be0079c531659141344cd1fd0a4f28419497f9722a3daafe3b4186f6b6457e060405160405180910390a35050565b600080823b905060008111915050919050565b600080fd5b600060ff82169050919050565b620002c281620002aa565b8114620002ce57600080fd5b50565b600081519050620002e281620002b7565b92915050565b6000819050919050565b620002fd81620002e8565b81146200030957600080fd5b50565b6000815190506200031d81620002f2565b92915050565b600063ffffffff82169050919050565b6200033e8162000323565b81146200034a57600080fd5b50565b6000815190506200035e8162000333565b92915050565b600073ffffffffffffffffffffffffffffffffffffffff82169050919050565b6000620003918262000364565b9050919050565b620003a38162000384565b8114620003af57600080fd5b50565b600081519050620003c38162000398565b92915050565b600080600080600060a08688031215620003e857620003e7620002a5565b5b6000620003f888828901620002d1565b95505060206200040b888289016200030c565b94505060406200041e888289016200034d565b93505060606200043188828901620003b2565b925050608062000444888289016200030c565b9150509295509295909350565b600082825260208201905092915050565b7f696e76616c696420746178207261746500000000000000000000000000000000600082015250565b60006200049a60108362000451565b9150620004a78262000462565b602082019050919050565b60006020820190508181036000830152620004cd816200048b565b9050919050565b6080516122cb6200050560003960008181610436015281816107fb01528181610b880152610ddf01526122cb6000f3fe608060405234801561001057600080fd5b506004361061012c5760003560e01c80638da5cb5b116100ad578063d2f7265a11610071578063d2f7265a146102fe578063e0b5db2f14610308578063ecd0c0c314610326578063f16f250114610344578063f2fde38b146103605761012c565b80638da5cb5b14610268578063a32bf59714610286578063afd78029146102a4578063b47639a8146102c0578063c9e3c0a3146102e05761012c565b80636c791e04116100f45780636c791e04146101d85780636e2c3ad214610208578063715018a61461022457806378d076851461022e5780638943ec021461024c5761012c565b806307854e7e146101315780632a23c641146101505780634084e0b314610180578063421c2bb91461019e578063447dbbd0146101ba575b600080fd5b61013961037c565b6040516101479291906115db565b60405180910390f35b61016a600480360381019061016591906116a2565b61038e565b60405161017791906116fd565b60405180910390f35b6101886104da565b6040516101959190611734565b60405180910390f35b6101b860048036038101906101b3919061174f565b6104eb565b005b6101c2610602565b6040516101cf91906117ae565b60405180910390f35b6101f260048036038101906101ed91906117f5565b610618565b6040516101ff91906116fd565b60405180910390f35b610222600480360381019061021d919061174f565b6106a6565b005b61022c610754565b005b6102366107dc565b6040516102439190611860565b60405180910390f35b610266600480360381019061026191906119c1565b6107f9565b005b61027061097f565b60405161027d9190611a3f565b60405180910390f35b61028e6109a9565b60405161029b9190611a5a565b60405180910390f35b6102be60048036038101906102b99190611a75565b610a33565b005b6102c8610abb565b6040516102d793929190611aa2565b60405180910390f35b6102e8610ad3565b6040516102f59190611a5a565b60405180910390f35b610306610ad9565b005b610310610c75565b60405161031d9190611a5a565b60405180910390f35b61032e610ddd565b60405161033b9190611a3f565b60405180910390f35b61035e60048036038101906103599190611b05565b610e01565b005b61037a60048036038101906103759190611b32565b610ea1565b005b600b8060000154908060010154905082565b6000610398610fab565b73ffffffffffffffffffffffffffffffffffffffff166103b661097f565b73ffffffffffffffffffffffffffffffffffffffff161461040c576040517f08c379a000000000000000000000000000000000000000000000000000000000815260040161040390611bbc565b60405180910390fd5b81600154101561041b57600080fd5b816001600082825461042d9190611c0b565b925050819055507f000000000000000000000000000000000000000000000000000000000000000073ffffffffffffffffffffffffffffffffffffffff1663a9059cbb84846040518363ffffffff1660e01b815260040161048f929190611c3f565b6020604051808303816000875af11580156104ae573d6000803e3d6000fd5b505050506040513d601f19601f820116820180604052508101906104d29190611c94565b905092915050565b60008054906101000a900460ff1681565b6040518060400160405280838152602001828152506009600061050c610fab565b73ffffffffffffffffffffffffffffffffffffffff1673ffffffffffffffffffffffffffffffffffffffff16815260200190815260200160002060008201518160000155602082015181600101559050506001600a600061056b610fab565b73ffffffffffffffffffffffffffffffffffffffff1673ffffffffffffffffffffffffffffffffffffffff16815260200190815260200160002060006101000a81548160ff0219169083151502179055507f4619373028e67160770f20af9b5f8a296d2454407a13d608c905089399ec643b6105e5610fab565b83836040516105f693929190611cc1565b60405180910390a15050565b600d60009054906101000a900463ffffffff1681565b6000610622610fab565b73ffffffffffffffffffffffffffffffffffffffff1661064061097f565b73ffffffffffffffffffffffffffffffffffffffff1614610696576040517f08c379a000000000000000000000000000000000000000000000000000000000815260040161068d90611bbc565b60405180910390fd5b61069f82610fb3565b9050919050565b6106ae610fab565b73ffffffffffffffffffffffffffffffffffffffff166106cc61097f565b73ffffffffffffffffffffffffffffffffffffffff1614610722576040517f08c379a000000000000000000000000000000000000000000000000000000000815260040161071990611bbc565b60405180910390fd5b604051806040016040528083815260200182815250600b60008201518160000155602082015181600101559050505050565b61075c610fab565b73ffffffffffffffffffffffffffffffffffffffff1661077a61097f565b73ffffffffffffffffffffffffffffffffffffffff16146107d0576040517f08c379a00000000000000000000000000000000000000000000000000000000081526004016107c790611bbc565b60405180910390fd5b6107da6000611063565b565b6107e46115a8565b6107f46107ef610fab565b611129565b905090565b7f000000000000000000000000000000000000000000000000000000000000000073ffffffffffffffffffffffffffffffffffffffff16610838610fab565b73ffffffffffffffffffffffffffffffffffffffff161461088e576040517f08c379a000000000000000000000000000000000000000000000000000000000815260040161088590611d44565b60405180910390fd5b6000610899826111ef565b905060006108a682611129565b905080600001518410156108ef576040517f08c379a00000000000000000000000000000000000000000000000000000000081526004016108e690611db0565b60405180910390fd5b60006108fa8561120c565b905060008390506001836020015103610911578690505b61091b8183611294565b6000610938600d60009054906101000a900463ffffffff16611405565b90507fc3b157ee7a0c96db039cb96afc467f0e52e15dff6f4ee4e954397872c93b02bd85898360405161096d93929190611dd0565b60405180910390a15050505050505050565b6000600260009054906101000a900473ffffffffffffffffffffffffffffffffffffffff16905090565b6000806003600001544310156109d25760016003600201546109cb9190611c0b565b9050610a2c565b60036000015443036109eb576003600201549050610a2b565b600360020154600360010154600160036000015443610a0a9190611c0b565b610a149190611c0b565b610a1e9190611e36565b610a289190611e67565b90505b5b8091505090565b610a3b610fab565b73ffffffffffffffffffffffffffffffffffffffff16610a5961097f565b73ffffffffffffffffffffffffffffffffffffffff1614610aaf576040517f08c379a0000000000000000000000000000000000000000000000000000000008152600401610aa690611bbc565b60405180910390fd5b610ab881611440565b50565b60038060000154908060010154908060020154905083565b60015481565b600260085403610b1e576040517f08c379a0000000000000000000000000000000000000000000000000000000008152600401610b1590611f09565b60405180910390fd5b60026008819055506000610b30610c75565b905060008103610b75576040517f08c379a0000000000000000000000000000000000000000000000000000000008152600401610b6c90611f75565b60405180910390fd5b610b86610b80610fab565b82611515565b7f000000000000000000000000000000000000000000000000000000000000000073ffffffffffffffffffffffffffffffffffffffff1663a9059cbb610bca610fab565b836040518363ffffffff1660e01b8152600401610be8929190611c3f565b6020604051808303816000875af1158015610c07573d6000803e3d6000fd5b505050506040513d601f19601f82011682018060405250810190610c2b9190611c94565b610c6a576040517f08c379a0000000000000000000000000000000000000000000000000000000008152600401610c6190611fe1565b60405180910390fd5b506001600881905550565b600080610c806109a9565b90506000600760003373ffffffffffffffffffffffffffffffffffffffff1673ffffffffffffffffffffffffffffffffffffffff1681526020019081526020016000205490506000600660003373ffffffffffffffffffffffffffffffffffffffff1673ffffffffffffffffffffffffffffffffffffffff1681526020019081526020016000206040518060400160405290816000820160405180604001604052908160008201548152602001600182015481525050815260200160028201604051806040016040529081600082015481526020016001820154815250508152505090508060200151600001518303610da157806000015160200151816020015160200151610d8f9190611e67565b82610d9a9190611c0b565b9150610dd4565b6001816020015160000151610db69190611e67565b8303610dd35780602001516020015182610dd09190611c0b565b91505b5b81935050505090565b7f000000000000000000000000000000000000000000000000000000000000000081565b610e09610fab565b73ffffffffffffffffffffffffffffffffffffffff16610e2761097f565b73ffffffffffffffffffffffffffffffffffffffff1614610e7d576040517f08c379a0000000000000000000000000000000000000000000000000000000008152600401610e7490611bbc565b60405180910390fd5b80600d60006101000a81548163ffffffff021916908363ffffffff16021790555050565b610ea9610fab565b73ffffffffffffffffffffffffffffffffffffffff16610ec761097f565b73ffffffffffffffffffffffffffffffffffffffff1614610f1d576040517f08c379a0000000000000000000000000000000000000000000000000000000008152600401610f1490611bbc565b60405180910390fd5b600073ffffffffffffffffffffffffffffffffffffffff168173ffffffffffffffffffffffffffffffffffffffff1603610f8c576040517f08c379a0000000000000000000000000000000000000000000000000000000008152600401610f8390612073565b60405180910390fd5b610f9581611063565b50565b600080823b905060008111915050919050565b600033905090565b6000808260ff1611610ffa576040517f08c379a0000000000000000000000000000000000000000000000000000000008152600401610ff1906120df565b60405180910390fd5b60648260ff1610611040576040517f08c379a00000000000000000000000000000000000000000000000000000000081526004016110379061214b565b60405180910390fd5b816000806101000a81548160ff021916908360ff16021790555060019050919050565b6000600260009054906101000a900473ffffffffffffffffffffffffffffffffffffffff16905081600260006101000a81548173ffffffffffffffffffffffffffffffffffffffff021916908373ffffffffffffffffffffffffffffffffffffffff1602179055508173ffffffffffffffffffffffffffffffffffffffff168173ffffffffffffffffffffffffffffffffffffffff167f8be0079c531659141344cd1fd0a4f28419497f9722a3daafe3b4186f6b6457e060405160405180910390a35050565b6111316115a8565b600a60008373ffffffffffffffffffffffffffffffffffffffff1673ffffffffffffffffffffffffffffffffffffffff16815260200190815260200160002060009054906101000a900460ff1661118957600b6111c9565b600960008373ffffffffffffffffffffffffffffffffffffffff1673ffffffffffffffffffffffffffffffffffffffff1681526020019081526020016000205b604051806040016040529081600082015481526020016001820154815250509050919050565b60008180602001905181019061120591906121a9565b9050919050565b60008060648360008054906101000a900460ff1660ff1661122d91906121d6565b6112379190611e36565b90506000606460008054906101000a900460ff1660646112579190612230565b60ff168561126591906121d6565b61126f9190611e36565b905081600160008282546112839190611e67565b925050819055508092505050919050565b600061129e6109a9565b90506000600660008573ffffffffffffffffffffffffffffffffffffffff1673ffffffffffffffffffffffffffffffffffffffff16815260200190815260200160002090508181600201600001540361131457828160020160010160008282546113089190611e67565b925050819055506113a9565b81600182600201600001546113299190611e67565b036113525780600201816000016000820154816000015560018201548160010155905050611390565b604051806040016040528060018461136a9190611c0b565b815260200160008152508160000160008201518160000155602082015181600101559050505b8181600201600001819055508281600201600101819055505b82600760008673ffffffffffffffffffffffffffffffffffffffff1673ffffffffffffffffffffffffffffffffffffffff16815260200190815260200160002060008282546113f89190611e67565b9250508190555050505050565b600080438363ffffffff1661141a9190611e67565b905063ffffffff801681106114365763ffffffff91505061143b565b809150505b919050565b60036000015443101561145c5780600360010181905550611512565b6000600360010154600360000154436114759190611c0b565b61147f9190612264565b600360010154436114909190611e67565b61149a9190611c0b565b90506000600360010154600360000154836114b59190611c0b565b6114bf9190611e36565b90506040518060600160405280838152602001848152602001600360020154836114e99190611e67565b815250600360008201518160000155602082015181600101556040820151816002015590505050505b50565b80600760008473ffffffffffffffffffffffffffffffffffffffff1673ffffffffffffffffffffffffffffffffffffffff16815260200190815260200160002060008282546115649190611c0b565b925050819055507f0aa36af98793b49f134f1c56f26ee1a235db0a9c879f8d310b016c0117e8d420828260405161159c929190611c3f565b60405180910390a15050565b604051806040016040528060008152602001600081525090565b6000819050919050565b6115d5816115c2565b82525050565b60006040820190506115f060008301856115cc565b6115fd60208301846115cc565b9392505050565b6000604051905090565b600080fd5b600080fd5b600073ffffffffffffffffffffffffffffffffffffffff82169050919050565b600061164382611618565b9050919050565b61165381611638565b811461165e57600080fd5b50565b6000813590506116708161164a565b92915050565b61167f816115c2565b811461168a57600080fd5b50565b60008135905061169c81611676565b92915050565b600080604083850312156116b9576116b861160e565b5b60006116c785828601611661565b92505060206116d88582860161168d565b9150509250929050565b60008115159050919050565b6116f7816116e2565b82525050565b600060208201905061171260008301846116ee565b92915050565b600060ff82169050919050565b61172e81611718565b82525050565b60006020820190506117496000830184611725565b92915050565b600080604083850312156117665761176561160e565b5b60006117748582860161168d565b92505060206117858582860161168d565b9150509250929050565b600063ffffffff82169050919050565b6117a88161178f565b82525050565b60006020820190506117c3600083018461179f565b92915050565b6117d281611718565b81146117dd57600080fd5b50565b6000813590506117ef816117c9565b92915050565b60006020828403121561180b5761180a61160e565b5b6000611819848285016117e0565b91505092915050565b61182b816115c2565b82525050565b6040820160008201516118476000850182611822565b50602082015161185a6020850182611822565b50505050565b60006040820190506118756000830184611831565b92915050565b600080fd5b600080fd5b6000601f19601f8301169050919050565b7f4e487b7100000000000000000000000000000000000000000000000000000000600052604160045260246000fd5b6118ce82611885565b810181811067ffffffffffffffff821117156118ed576118ec611896565b5b80604052505050565b6000611900611604565b905061190c82826118c5565b919050565b600067ffffffffffffffff82111561192c5761192b611896565b5b61193582611885565b9050602081019050919050565b82818337600083830152505050565b600061196461195f84611911565b6118f6565b9050828152602081018484840111156119805761197f611880565b5b61198b848285611942565b509392505050565b600082601f8301126119a8576119a761187b565b5b81356119b8848260208601611951565b91505092915050565b6000806000606084860312156119da576119d961160e565b5b60006119e886828701611661565b93505060206119f98682870161168d565b925050604084013567ffffffffffffffff811115611a1a57611a19611613565b5b611a2686828701611993565b9150509250925092565b611a3981611638565b82525050565b6000602082019050611a546000830184611a30565b92915050565b6000602082019050611a6f60008301846115cc565b92915050565b600060208284031215611a8b57611a8a61160e565b5b6000611a998482850161168d565b91505092915050565b6000606082019050611ab760008301866115cc565b611ac460208301856115cc565b611ad160408301846115cc565b949350505050565b611ae28161178f565b8114611aed57600080fd5b50565b600081359050611aff81611ad9565b92915050565b600060208284031215611b1b57611b1a61160e565b5b6000611b2984828501611af0565b91505092915050565b600060208284031215611b4857611b4761160e565b5b6000611b5684828501611661565b91505092915050565b600082825260208201905092915050565b7f4f776e61626c653a2063616c6c6572206973206e6f7420746865206f776e6572600082015250565b6000611ba6602083611b5f565b9150611bb182611b70565b602082019050919050565b60006020820190508181036000830152611bd581611b99565b9050919050565b7f4e487b7100000000000000000000000000000000000000000000000000000000600052601160045260246000fd5b6000611c16826115c2565b9150611c21836115c2565b925082821015611c3457611c33611bdc565b5b828203905092915050565b6000604082019050611c546000830185611a30565b611c6160208301846115cc565b9392505050565b611c71816116e2565b8114611c7c57600080fd5b50565b600081519050611c8e81611c68565b92915050565b600060208284031215611caa57611ca961160e565b5b6000611cb884828501611c7f565b91505092915050565b6000606082019050611cd66000830186611a30565b611ce360208301856115cc565b611cf060408301846115cc565b949350505050565b7f496e636f727265637420636f6e74726163742061646472657373000000000000600082015250565b6000611d2e601a83611b5f565b9150611d3982611cf8565b602082019050919050565b60006020820190508181036000830152611d5d81611d21565b9050919050565b7f7061696420707269636520697320746f6f206c6f770000000000000000000000600082015250565b6000611d9a601583611b5f565b9150611da582611d64565b602082019050919050565b60006020820190508181036000830152611dc981611d8d565b9050919050565b6000606082019050611de56000830186611a30565b611df26020830185611a30565b611dff604083018461179f565b949350505050565b7f4e487b7100000000000000000000000000000000000000000000000000000000600052601260045260246000fd5b6000611e41826115c2565b9150611e4c836115c2565b925082611e5c57611e5b611e07565b5b828204905092915050565b6000611e72826115c2565b9150611e7d836115c2565b9250827fffffffffffffffffffffffffffffffffffffffffffffffffffffffffffffffff03821115611eb257611eb1611bdc565b5b828201905092915050565b7f5265656e7472616e637947756172643a207265656e7472616e742063616c6c00600082015250565b6000611ef3601f83611b5f565b9150611efe82611ebd565b602082019050919050565b60006020820190508181036000830152611f2281611ee6565b9050919050565b7f496e73756666696369656e742062616c616e6365000000000000000000000000600082015250565b6000611f5f601483611b5f565b9150611f6a82611f29565b602082019050919050565b60006020820190508181036000830152611f8e81611f52565b9050919050565b7f5769746864726177616c204661696c7572650000000000000000000000000000600082015250565b6000611fcb601283611b5f565b9150611fd682611f95565b602082019050919050565b60006020820190508181036000830152611ffa81611fbe565b9050919050565b7f4f776e61626c653a206e6577206f776e657220697320746865207a65726f206160008201527f6464726573730000000000000000000000000000000000000000000000000000602082015250565b600061205d602683611b5f565b915061206882612001565b604082019050919050565b6000602082019050818103600083015261208c81612050565b9050919050565b7f7461782072617465206d757374206c6172676572207468616e207a65726f0000600082015250565b60006120c9601e83611b5f565b91506120d482612093565b602082019050919050565b600060208201905081810360008301526120f8816120bc565b9050919050565b7f7461782072617465206d757374206c657373207468616e203130300000000000600082015250565b6000612135601b83611b5f565b9150612140826120ff565b602082019050919050565b6000602082019050818103600083015261216481612128565b9050919050565b600061217682611618565b9050919050565b6121868161216b565b811461219157600080fd5b50565b6000815190506121a38161217d565b92915050565b6000602082840312156121bf576121be61160e565b5b60006121cd84828501612194565b91505092915050565b60006121e1826115c2565b91506121ec836115c2565b9250817fffffffffffffffffffffffffffffffffffffffffffffffffffffffffffffffff048311821515161561222557612224611bdc565b5b828202905092915050565b600061223b82611718565b915061224683611718565b92508282101561225957612258611bdc565b5b828203905092915050565b600061226f826115c2565b915061227a836115c2565b92508261228a57612289611e07565b5b82820690509291505056fea2646970667358221220290e8e282f32bde70e7a568aece10110de912a59ffd04207502594481362016764736f6c634300080d0033",
  "immutableReferences": {
    "1019": [
      {
        "length": 32,
        "start": 1078
      },
      {
        "length": 32,
        "start": 2043
      },
      {
        "length": 32,
        "start": 2952
      },
      {
        "length": 32,
        "start": 3551
      }
    ]
  },
  "source": "// SPDX-License-Identifier: MIT\npragma solidity ^0.8.0;\n\nimport \"@openzeppelin/contracts/security/ReentrancyGuard.sol\";\nimport \"@openzeppelin/contracts/access/Ownable.sol\";\nimport \"./ERC223/IERC223.sol\";\nimport \"./ERC223/IERC223Recipient.sol\";\nimport \"./TokenTax.sol\";\nimport \"./utils/Address.sol\";\nimport \"./LockBalance.sol\";\n\ncontract FavorTube is IERC223Recipient, TokenTax, Ownable, LockBalance, ReentrancyGuard {\n\n    event $subscribe(address owner, address licensee, uint32 expire);\n    event $setUserConfig(address owner, uint256 price, uint mode);\n\n    struct UserConfig {\n        uint256 price;\n        uint mode;\n    }\n\n    mapping(address => UserConfig) _userConfig;\n    mapping(address => bool) _isSetConfig;\n\n    UserConfig public _defaultUserConfig;\n\n    uint32 public subscribeBlock;\n\n    address public immutable _token;\n\n    constructor(uint8 taxRate, uint256 price, uint32 subscribeBlock_, address ERC223Token, uint interval) TokenTax(taxRate) LockBalance(interval) {\n        require(Address.isContract(ERC223Token));\n\n        _token = ERC223Token;\n\n        subscribeBlock = subscribeBlock_;\n\n        _defaultUserConfig = UserConfig(price, 0);\n    }\n\n    function setPeriodData(uint value) external override onlyOwner {\n        _setPeriodData(value);\n    }\n\n    function exchange() external override nonReentrant {\n        uint amount = exchangeableAmount();\n\n        require(amount != 0, \"Insufficient balance\");\n\n        _exchange(_msgSender(), amount);\n\n        require(IERC223(_token).transfer(_msgSender(), amount), \"Withdrawal Failure\");\n    }\n\n    function userConfig() external view returns (UserConfig memory) {\n        return userConfig(_msgSender());\n    }\n\n    function tokenReceived(address _from, uint _value, bytes memory _data) external override {\n\n        require(_msgSender() == _token, 'Incorrect contract address');\n\n        address owner;\n\n        (owner) = decodeCallbackData(_data);\n\n        UserConfig memory config = userConfig(owner);\n\n        if (_value < config.price)\n            revert(\"paid price is too low\");\n\n        uint remainValue = payTax(_value);\n\n        address lockAccount = owner;\n\n        if (config.mode == 1) lockAccount = _from;\n\n        _lock(lockAccount, remainValue);\n\n        uint32 expire = computeExpire(subscribeBlock);\n\n        emit $subscribe(owner, _from, expire);\n    }\n\n    function setSubscribeBlock(uint32 subscribeBlock_) external onlyOwner {\n        subscribeBlock = subscribeBlock_;\n    }\n\n    function setDefaultUserConfig(uint256 price, uint mode) external onlyOwner {\n        _defaultUserConfig = UserConfig(price, mode);\n    }\n\n    function setUserConfig(uint256 price, uint mode) external {\n        _userConfig[_msgSender()] = UserConfig(price, mode);\n        _isSetConfig[_msgSender()] = true;\n\n        emit $setUserConfig(_msgSender(), price, mode);\n    }\n\n    function userConfig(address account) internal view returns (UserConfig memory) {\n        return _isSetConfig[account] ? _userConfig[account] : _defaultUserConfig;\n    }\n\n    function decodeCallbackData(bytes memory data) internal pure returns (address _owner) {\n        return abi.decode(data, (address));\n    }\n\n    function computeExpire(uint32 value) internal view returns (uint32) {\n        uint result = uint(value) + block.number;\n\n        if (result >= uint(type(uint32).max)) {\n            return type(uint32).max;\n        }\n\n        return uint32(result);\n    }\n\n    function setTaxRate(uint8 newRate) external override onlyOwner returns (bool success) {\n        return _setTaxRate(newRate);\n    }\n\n    function withdrawTax(address account, uint value) external override onlyOwner returns (bool success) {\n        require(_totalTaxes >= value);\n\n        _totalTaxes -= value;\n\n        return IERC223(_token).transfer(account, value);\n    }\n\n    function payTax(uint value) internal override returns (uint taxed) {\n        uint taxes = (_taxRate * value) / 100;\n        uint remain = (value * (100 - _taxRate)) / 100;\n\n        _totalTaxes += taxes;\n\n        return remain;\n    }\n}\n",
  "sourcePath": "/home/lzy/Project/contracts/favor-contracts/contracts/FavorTube.sol",
  "compiler": {
    "name": "solc",
    "version": "0.8.13+commit.abaa5c0e.Emscripten.clang"
  },
  "schemaVersion": "3.4.3",
  "updatedAt": "2022-08-26T07:28:33.063Z",
  "networkType": "ethereum",
  "devdoc": {
    "kind": "dev",
    "methods": {
      "owner()": {
        "details": "Returns the address of the current owner."
      },
      "renounceOwnership()": {
        "details": "Leaves the contract without owner. It will not be possible to call `onlyOwner` functions anymore. Can only be called by the current owner. NOTE: Renouncing ownership will leave the contract without an owner, thereby removing any functionality that is only available to the owner."
      },
      "tokenReceived(address,uint256,bytes)": {
        "details": "Standard ERC223 function that will handle incoming token transfers.",
        "params": {
          "_data": "Transaction metadata.",
          "_from": "Token sender address.",
          "_value": "Amount of tokens."
        }
      },
      "transferOwnership(address)": {
        "details": "Transfers ownership of the contract to a new account (`newOwner`). Can only be called by the current owner."
      }
    },
    "version": 1
  },
  "userdoc": {
    "kind": "user",
    "methods": {},
    "version": 1
  }
}