{
  "contractName": "Oracle",
  "abi": [
    {
      "inputs": [],
      "stateMutability": "nonpayable",
      "type": "constructor"
    },
    {
      "anonymous": false,
      "inputs": [
        {
          "indexed": false,
          "internalType": "bytes32",
          "name": "hash",
          "type": "bytes32"
        }
      ],
      "name": "$clear",
      "type": "event"
    },
    {
      "anonymous": false,
      "inputs": [
        {
          "indexed": false,
          "internalType": "bytes32",
          "name": "hash",
          "type": "bytes32"
        },
        {
          "indexed": false,
          "internalType": "bytes32",
          "name": "addr",
          "type": "bytes32"
        }
      ],
      "name": "$remove",
      "type": "event"
    },
    {
      "anonymous": false,
      "inputs": [
        {
          "indexed": false,
          "internalType": "bytes32",
          "name": "hash",
          "type": "bytes32"
        },
        {
          "indexed": false,
          "internalType": "bytes32",
          "name": "addr",
          "type": "bytes32"
        }
      ],
      "name": "$set",
      "type": "event"
    },
    {
      "inputs": [
        {
          "internalType": "bytes32",
          "name": "",
          "type": "bytes32"
        }
      ],
      "name": "hashIMap",
      "outputs": [
        {
          "internalType": "uint256",
          "name": "",
          "type": "uint256"
        }
      ],
      "stateMutability": "view",
      "type": "function",
      "constant": true
    },
    {
      "inputs": [
        {
          "internalType": "bytes32",
          "name": "",
          "type": "bytes32"
        },
        {
          "internalType": "bytes32",
          "name": "",
          "type": "bytes32"
        }
      ],
      "name": "oracleIMap",
      "outputs": [
        {
          "internalType": "uint256",
          "name": "",
          "type": "uint256"
        }
      ],
      "stateMutability": "view",
      "type": "function",
      "constant": true
    },
    {
      "inputs": [],
      "name": "owner",
      "outputs": [
        {
          "internalType": "address",
          "name": "",
          "type": "address"
        }
      ],
      "stateMutability": "view",
      "type": "function",
      "constant": true
    },
    {
      "inputs": [],
      "name": "start",
      "outputs": [
        {
          "internalType": "bool",
          "name": "",
          "type": "bool"
        }
      ],
      "stateMutability": "view",
      "type": "function",
      "constant": true
    },
    {
      "inputs": [
        {
          "internalType": "bool",
          "name": "value",
          "type": "bool"
        }
      ],
      "name": "setStart",
      "outputs": [],
      "stateMutability": "nonpayable",
      "type": "function"
    },
    {
      "inputs": [
        {
          "internalType": "bytes32",
          "name": "hash",
          "type": "bytes32"
        }
      ],
      "name": "get",
      "outputs": [
        {
          "internalType": "bytes32[]",
          "name": "",
          "type": "bytes32[]"
        }
      ],
      "stateMutability": "view",
      "type": "function",
      "constant": true
    },
    {
      "inputs": [],
      "name": "getFileList",
      "outputs": [
        {
          "components": [
            {
              "internalType": "bytes32",
              "name": "hash",
              "type": "bytes32"
            },
            {
              "internalType": "uint256",
              "name": "blockNumber",
              "type": "uint256"
            }
          ],
          "internalType": "struct Oracle.HashBN[]",
          "name": "",
          "type": "tuple[]"
        }
      ],
      "stateMutability": "view",
      "type": "function",
      "constant": true
    },
    {
      "inputs": [
        {
          "internalType": "bytes32",
          "name": "hash",
          "type": "bytes32"
        },
        {
          "internalType": "bytes32",
          "name": "addr",
          "type": "bytes32"
        }
      ],
      "name": "set",
      "outputs": [],
      "stateMutability": "nonpayable",
      "type": "function"
    },
    {
      "inputs": [
        {
          "internalType": "bytes32",
          "name": "hash",
          "type": "bytes32"
        },
        {
          "internalType": "bytes32",
          "name": "addr",
          "type": "bytes32"
        }
      ],
      "name": "remove",
      "outputs": [],
      "stateMutability": "nonpayable",
      "type": "function"
    },
    {
      "inputs": [
        {
          "internalType": "bytes32",
          "name": "hash",
          "type": "bytes32"
        }
      ],
      "name": "clear",
      "outputs": [],
      "stateMutability": "nonpayable",
      "type": "function"
    }
  ],
  "bytecode": "0x608060405234801561001057600080fd5b50336000806101000a81548173ffffffffffffffffffffffffffffffffffffffff021916908373ffffffffffffffffffffffffffffffffffffffff160217905550611483806100606000396000f3fe608060405234801561001057600080fd5b506004361061009e5760003560e01c806397040a451161006657806397040a451461015b578063b10e417214610177578063be9a655514610193578063ce9972f9146101b1578063f71f7a25146101e15761009e565b80634cedee48146100a357806364f32492146100c157806368e24327146100f15780638da5cb5b1461010d5780638eaa6ac01461012b575b600080fd5b6100ab6101fd565b6040516100b89190610fb6565b60405180910390f35b6100db60048036038101906100d69190610ce8565b6102fe565b6040516100e891906110d7565b60405180910390f35b61010b60048036038101906101069190610cbb565b610316565b005b6101156103c1565b6040516101229190610f79565b60405180910390f35b61014560048036038101906101409190610ce8565b6103e5565b6040516101529190610f94565b60405180910390f35b61017560048036038101906101709190610ce8565b610450565b005b610191600480360381019061018c9190610d15565b61061c565b005b61019b610873565b6040516101a89190610fd8565b60405180910390f35b6101cb60048036038101906101c69190610d15565b610886565b6040516101d891906110d7565b60405180910390f35b6101fb60048036038101906101f69190610d15565b6108ab565b005b606060008054906101000a900473ffffffffffffffffffffffffffffffffffffffff1673ffffffffffffffffffffffffffffffffffffffff163373ffffffffffffffffffffffffffffffffffffffff161461028d576040517f08c379a0000000000000000000000000000000000000000000000000000000008152600401610284906110b7565b60405180910390fd5b6001805480602002602001604051908101604052809291908181526020016000905b828210156102f5578382906000526020600020906002020160405180604001604052908160008201548152602001600182015481525050815260200190600101906102af565b50505050905090565b60026020528060005260406000206000915090505481565b60008054906101000a900473ffffffffffffffffffffffffffffffffffffffff1673ffffffffffffffffffffffffffffffffffffffff163373ffffffffffffffffffffffffffffffffffffffff16146103a4576040517f08c379a000000000000000000000000000000000000000000000000000000000815260040161039b906110b7565b60405180910390fd5b80600060146101000a81548160ff02191690831515021790555050565b60008054906101000a900473ffffffffffffffffffffffffffffffffffffffff1681565b60606003600083815260200190815260200160002080548060200260200160405190810160405280929190818152602001828054801561044457602002820191906000526020600020905b815481526020019060010190808311610430575b50505050509050919050565b60008054906101000a900473ffffffffffffffffffffffffffffffffffffffff1673ffffffffffffffffffffffffffffffffffffffff163373ffffffffffffffffffffffffffffffffffffffff16146104de576040517f08c379a00000000000000000000000000000000000000000000000000000000081526004016104d5906110b7565b60405180910390fd5b600060036000838152602001908152602001600020805490509050600081141561053d576040517f08c379a000000000000000000000000000000000000000000000000000000000815260040161053490611077565b60405180910390fd5b60005b818110156105b857600060036000858152602001908152602001600020828154811061056f5761056e6112f8565b5b90600052602060002001549050600460008581526020019081526020016000206000828152602001908152602001600020600090555080806105b090611251565b915050610540565b506003600083815260200190815260200160002060006105d89190610c53565b6105e182610afd565b7fb0227347450cb91394914b5f277543abcaf150f6bbbfe17481515969570e4635826040516106109190610ff3565b60405180910390a15050565b600060149054906101000a900460ff1680610682575060008054906101000a900473ffffffffffffffffffffffffffffffffffffffff1673ffffffffffffffffffffffffffffffffffffffff163373ffffffffffffffffffffffffffffffffffffffff16145b6106c1576040517f08c379a00000000000000000000000000000000000000000000000000000000081526004016106b890611037565b60405180910390fd5b6000600460008481526020019081526020016000206000838152602001908152602001600020549050600081141561072e576040517f08c379a000000000000000000000000000000000000000000000000000000000815260040161072590611057565b60405180910390fd5b6000600360008581526020019081526020016000209050600060018361075491906111cb565b90505b6001828054905061076891906111cb565b8110156107cd578160018261077d9190611175565b8154811061078e5761078d6112f8565b5b90600052602060002001548282815481106107ac576107ab6112f8565b5b906000526020600020018190555080806107c590611251565b915050610757565b50808054806107df576107de6112c9565b5b60019003818190600052602060002001600090559055600460008581526020019081526020016000206000848152602001908152602001600020600090556000818054905014156108345761083384610afd565b5b7f5b2dd8928d91d1a530f1eea33fd1ca107d0f7aef8e9cfdfaeffbb5f3bc5dc295848460405161086592919061100e565b60405180910390a150505050565b600060149054906101000a900460ff1681565b6004602052816000526040600020602052806000526040600020600091509150505481565b600060149054906101000a900460ff1680610911575060008054906101000a900473ffffffffffffffffffffffffffffffffffffffff1673ffffffffffffffffffffffffffffffffffffffff163373ffffffffffffffffffffffffffffffffffffffff16145b610950576040517f08c379a000000000000000000000000000000000000000000000000000000000815260040161094790611037565b60405180910390fd5b600060046000848152602001908152602001600020600083815260200190815260200160002054146109b7576040517f08c379a00000000000000000000000000000000000000000000000000000000081526004016109ae90611097565b60405180910390fd5b60036000838152602001908152602001600020819080600181540180825580915050600190039060005260206000200160009091909190915055600360008381526020019081526020016000208054905060046000848152602001908152602001600020600083815260200190815260200160002081905550600060026000848152602001908152602001600020541415610ac057600160405180604001604052808481526020014381525090806001815401808255809150506001900390600052602060002090600202016000909190919091506000820151816000015560208201518160010155505060018054905060026000848152602001908152602001600020819055505b7fbc807c47ca894cb7673fcd91f943526fbe70028c0020241d48c6be17131a0df38282604051610af192919061100e565b60405180910390a15050565b6000600260008381526020019081526020016000205490506000811415610b59576040517f08c379a0000000000000000000000000000000000000000000000000000000008152600401610b5090611077565b60405180910390fd5b6000600182610b6891906111cb565b90505b60018080549050610b7c91906111cb565b811015610bfc5760018082610b919190611175565b81548110610ba257610ba16112f8565b5b906000526020600020906002020160018281548110610bc457610bc36112f8565b5b906000526020600020906002020160008201548160000155600182015481600101559050508080610bf490611251565b915050610b6b565b506001805480610c0f57610c0e6112c9565b5b600190038181906000526020600020906002020160008082016000905560018201600090555050905560026000838152602001908152602001600020600090555050565b5080546000825590600052602060002090810190610c719190610c74565b50565b5b80821115610c8d576000816000905550600101610c75565b5090565b600081359050610ca08161141f565b92915050565b600081359050610cb581611436565b92915050565b600060208284031215610cd157610cd0611327565b5b6000610cdf84828501610c91565b91505092915050565b600060208284031215610cfe57610cfd611327565b5b6000610d0c84828501610ca6565b91505092915050565b60008060408385031215610d2c57610d2b611327565b5b6000610d3a85828601610ca6565b9250506020610d4b85828601610ca6565b9150509250929050565b6000610d618383610e5f565b60208301905092915050565b6000610d798383610f2c565b60408301905092915050565b610d8e816111ff565b82525050565b6000610d9f82611112565b610da98185611142565b9350610db4836110f2565b8060005b83811015610de5578151610dcc8882610d55565b9750610dd783611128565b925050600181019050610db8565b5085935050505092915050565b6000610dfd8261111d565b610e078185611153565b9350610e1283611102565b8060005b83811015610e43578151610e2a8882610d6d565b9750610e3583611135565b925050600181019050610e16565b5085935050505092915050565b610e5981611211565b82525050565b610e688161121d565b82525050565b610e778161121d565b82525050565b6000610e8a602f83611164565b9150610e958261132c565b604082019050919050565b6000610ead601683611164565b9150610eb88261137b565b602082019050919050565b6000610ed0601383611164565b9150610edb826113a4565b602082019050919050565b6000610ef3601683611164565b9150610efe826113cd565b602082019050919050565b6000610f16601883611164565b9150610f21826113f6565b602082019050919050565b604082016000820151610f426000850182610e5f565b506020820151610f556020850182610f5b565b50505050565b610f6481611247565b82525050565b610f7381611247565b82525050565b6000602082019050610f8e6000830184610d85565b92915050565b60006020820190508181036000830152610fae8184610d94565b905092915050565b60006020820190508181036000830152610fd08184610df2565b905092915050565b6000602082019050610fed6000830184610e50565b92915050565b60006020820190506110086000830184610e6e565b92915050565b60006040820190506110236000830185610e6e565b6110306020830184610e6e565b9392505050565b6000602082019050818103600083015261105081610e7d565b9050919050565b6000602082019050818103600083015261107081610ea0565b9050919050565b6000602082019050818103600083015261109081610ec3565b9050919050565b600060208201905081810360008301526110b081610ee6565b9050919050565b600060208201905081810360008301526110d081610f09565b9050919050565b60006020820190506110ec6000830184610f6a565b92915050565b6000819050602082019050919050565b6000819050602082019050919050565b600081519050919050565b600081519050919050565b6000602082019050919050565b6000602082019050919050565b600082825260208201905092915050565b600082825260208201905092915050565b600082825260208201905092915050565b600061118082611247565b915061118b83611247565b9250827fffffffffffffffffffffffffffffffffffffffffffffffffffffffffffffffff038211156111c0576111bf61129a565b5b828201905092915050565b60006111d682611247565b91506111e183611247565b9250828210156111f4576111f361129a565b5b828203905092915050565b600061120a82611227565b9050919050565b60008115159050919050565b6000819050919050565b600073ffffffffffffffffffffffffffffffffffffffff82169050919050565b6000819050919050565b600061125c82611247565b91507fffffffffffffffffffffffffffffffffffffffffffffffffffffffffffffffff82141561128f5761128e61129a565b5b600182019050919050565b7f4e487b7100000000000000000000000000000000000000000000000000000000600052601160045260246000fd5b7f4e487b7100000000000000000000000000000000000000000000000000000000600052603160045260246000fd5b7f4e487b7100000000000000000000000000000000000000000000000000000000600052603260045260246000fd5b600080fd5b7f54686520636f6e7472616374206973206e6f74206f70656e20616e642063616e60008201527f6e6f74206265206f706572617465640000000000000000000000000000000000602082015250565b7f4164647265737320646f6573206e6f7420657869737400000000000000000000600082015250565b7f4861736820646f6573206e6f7420657869737400000000000000000000000000600082015250565b7f4164647265737320616c72656164792065786973747300000000000000000000600082015250565b7f496e73756666696369656e74205065726d697373696f6e730000000000000000600082015250565b61142881611211565b811461143357600080fd5b50565b61143f8161121d565b811461144a57600080fd5b5056fea2646970667358221220b7aa7426b1258de7cfce860546e0a0cf2814823c27dcdca51cbfe9070a29529564736f6c63430008060033",
  "immutableReferences": {},
  "source": "// SPDX-License-Identifier: MIT\npragma solidity ^0.8.6;\n\ncontract Oracle {\n\n    event $set(bytes32 hash, bytes32 addr);\n    event $remove(bytes32 hash, bytes32 addr);\n    event $clear(bytes32 hash);\n\n    struct HashBN {\n        bytes32 hash;\n        uint blockNumber;\n    }\n\n    address public owner;\n\n    bool public start;\n\n    HashBN[] hashArr;\n\n    mapping(bytes32 => uint) public hashIMap;\n\n    mapping(bytes32 => bytes32[]) oracleMap;\n\n    mapping(bytes32 => mapping(bytes32 => uint)) public oracleIMap;\n\n    modifier onlyOwner(){\n        require(msg.sender == owner, \"Insufficient Permissions\");\n        _;\n    }\n\n    modifier isStart(){\n        require(start || msg.sender == owner, \"The contract is not open and cannot be operated\");\n        _;\n    }\n\n    constructor() {\n        owner = msg.sender;\n    }\n\n    function setStart(bool value) public onlyOwner {\n        start = value;\n    }\n\n    function get(bytes32 hash) public view returns (bytes32[] memory){\n        return oracleMap[hash];\n    }\n\n    function getFileList() public view onlyOwner returns (HashBN[] memory){\n        return hashArr;\n    }\n\n    function set(bytes32 hash, bytes32 addr) public isStart {\n\n        require(oracleIMap[hash][addr] == 0, \"Address already exists\");\n\n        oracleMap[hash].push(addr);\n        oracleIMap[hash][addr] = oracleMap[hash].length;\n\n        if (hashIMap[hash] == 0) {\n            hashArr.push(HashBN(hash, block.number));\n            hashIMap[hash] = hashArr.length;\n        }\n\n        emit $set(hash, addr);\n    }\n\n    function remove(bytes32 hash, bytes32 addr) public isStart {\n        uint index = oracleIMap[hash][addr];\n        require(index != 0, \"Address does not exist\");\n\n        bytes32[] storage arr = oracleMap[hash];\n\n        for (uint i = index - 1; i < arr.length - 1; i++) {\n            arr[i] = arr[i + 1];\n        }\n\n        arr.pop();\n\n        delete oracleIMap[hash][addr];\n\n        if (arr.length == 0) {\n            delSingleHash(hash);\n        }\n        emit $remove(hash, addr);\n    }\n\n    function clear(bytes32 hash) public onlyOwner {\n        uint len = oracleMap[hash].length;\n        require(len != 0, \"Hash does not exist\");\n\n        for (uint i = 0; i < len; i++) {\n            bytes32 addr = oracleMap[hash][i];\n            delete oracleIMap[hash][addr];\n        }\n\n        delete oracleMap[hash];\n\n        delSingleHash(hash);\n\n        emit $clear(hash);\n    }\n\n    function delSingleHash(bytes32 hash) private {\n        uint index = hashIMap[hash];\n        require(index != 0, \"Hash does not exist\");\n        for (uint i = index - 1; i < hashArr.length - 1; i++) {\n            hashArr[i] = hashArr[i + 1];\n        }\n        hashArr.pop();\n        delete hashIMap[hash];\n    }\n}\n",
  "sourcePath": "/home/lzy/Project/contracts/oracle-contracts/contracts/Oracle.sol",
  "compiler": {
    "name": "solc",
    "version": "0.8.6+commit.11564f7e.Emscripten.clang"
  },
  "schemaVersion": "3.4.3",
  "updatedAt": "2022-07-21T05:48:11.765Z",
  "networkType": "ethereum",
  "devdoc": {
    "kind": "dev",
    "methods": {},
    "version": 1
  },
  "userdoc": {
    "kind": "user",
    "methods": {},
    "version": 1
  }
}